{
  "contractName": "ERC721Mintable",
  "abi": [
    {
      "inputs": [],
      "stateMutability": "nonpayable",
      "type": "constructor"
    },
    {
      "anonymous": false,
      "inputs": [
        {
          "indexed": true,
          "internalType": "address",
          "name": "owner",
          "type": "address"
        },
        {
          "indexed": true,
          "internalType": "address",
          "name": "approved",
          "type": "address"
        },
        {
          "indexed": true,
          "internalType": "uint256",
          "name": "tokenId",
          "type": "uint256"
        }
      ],
      "name": "Approval",
      "type": "event"
    },
    {
      "anonymous": false,
      "inputs": [
        {
          "indexed": true,
          "internalType": "address",
          "name": "owner",
          "type": "address"
        },
        {
          "indexed": true,
          "internalType": "address",
          "name": "operator",
          "type": "address"
        },
        {
          "indexed": false,
          "internalType": "bool",
          "name": "approved",
          "type": "bool"
        }
      ],
      "name": "ApprovalForAll",
      "type": "event"
    },
    {
      "anonymous": false,
      "inputs": [
        {
          "indexed": true,
          "internalType": "address",
          "name": "oldOnwer",
          "type": "address"
        },
        {
          "indexed": true,
          "internalType": "address",
          "name": "newOwner",
          "type": "address"
        }
      ],
      "name": "OwnerTransferred",
      "type": "event"
    },
    {
      "anonymous": false,
      "inputs": [
        {
          "indexed": true,
          "internalType": "address",
          "name": "trigger",
          "type": "address"
        }
      ],
      "name": "Paused",
      "type": "event"
    },
    {
      "anonymous": false,
      "inputs": [
        {
          "indexed": true,
          "internalType": "address",
          "name": "from",
          "type": "address"
        },
        {
          "indexed": true,
          "internalType": "address",
          "name": "to",
          "type": "address"
        },
        {
          "indexed": true,
          "internalType": "uint256",
          "name": "tokenId",
          "type": "uint256"
        }
      ],
      "name": "Transfer",
      "type": "event"
    },
    {
      "anonymous": false,
      "inputs": [
        {
          "indexed": true,
          "internalType": "address",
          "name": "trigger",
          "type": "address"
        }
      ],
      "name": "Unpaused",
      "type": "event"
    },
    {
      "inputs": [
        {
          "internalType": "address",
          "name": "to",
          "type": "address"
        },
        {
          "internalType": "uint256",
          "name": "tokenId",
          "type": "uint256"
        }
      ],
      "name": "approve",
      "outputs": [],
      "stateMutability": "nonpayable",
      "type": "function"
    },
    {
      "inputs": [
        {
          "internalType": "address",
          "name": "owner",
          "type": "address"
        }
      ],
      "name": "balanceOf",
      "outputs": [
        {
          "internalType": "uint256",
          "name": "",
          "type": "uint256"
        }
      ],
      "stateMutability": "view",
      "type": "function"
    },
    {
      "inputs": [],
      "name": "contractOwner",
      "outputs": [
        {
          "internalType": "address",
          "name": "",
          "type": "address"
        }
      ],
      "stateMutability": "view",
      "type": "function"
    },
    {
      "inputs": [
        {
          "internalType": "uint256",
          "name": "tokenId",
          "type": "uint256"
        }
      ],
      "name": "getApproved",
      "outputs": [
        {
          "internalType": "address",
          "name": "",
          "type": "address"
        }
      ],
      "stateMutability": "view",
      "type": "function"
    },
    {
      "inputs": [],
      "name": "getBaseTokenURI",
      "outputs": [
        {
          "internalType": "string",
          "name": "",
          "type": "string"
        }
      ],
      "stateMutability": "view",
      "type": "function"
    },
    {
      "inputs": [],
      "name": "getName",
      "outputs": [
        {
          "internalType": "string",
          "name": "",
          "type": "string"
        }
      ],
      "stateMutability": "view",
      "type": "function"
    },
    {
      "inputs": [],
      "name": "getSymbol",
      "outputs": [
        {
          "internalType": "string",
          "name": "",
          "type": "string"
        }
      ],
      "stateMutability": "view",
      "type": "function"
    },
    {
      "inputs": [
        {
          "internalType": "uint256",
          "name": "tokenId",
          "type": "uint256"
        }
      ],
      "name": "getTokenURI",
      "outputs": [
        {
          "internalType": "string",
          "name": "",
          "type": "string"
        }
      ],
      "stateMutability": "view",
      "type": "function"
    },
    {
      "inputs": [
        {
          "internalType": "address",
          "name": "owner",
          "type": "address"
        },
        {
          "internalType": "address",
          "name": "operator",
          "type": "address"
        }
      ],
      "name": "isApprovedForAll",
      "outputs": [
        {
          "internalType": "bool",
          "name": "",
          "type": "bool"
        }
      ],
      "stateMutability": "view",
      "type": "function"
    },
    {
      "inputs": [
        {
          "internalType": "uint256",
          "name": "tokenId",
          "type": "uint256"
        }
      ],
      "name": "ownerOf",
      "outputs": [
        {
          "internalType": "address",
          "name": "",
          "type": "address"
        }
      ],
      "stateMutability": "view",
      "type": "function"
    },
    {
      "inputs": [
        {
          "internalType": "address",
          "name": "from",
          "type": "address"
        },
        {
          "internalType": "address",
          "name": "to",
          "type": "address"
        },
        {
          "internalType": "uint256",
          "name": "tokenId",
          "type": "uint256"
        }
      ],
      "name": "safeTransferFrom",
      "outputs": [],
      "stateMutability": "nonpayable",
      "type": "function"
    },
    {
      "inputs": [
        {
          "internalType": "address",
          "name": "from",
          "type": "address"
        },
        {
          "internalType": "address",
          "name": "to",
          "type": "address"
        },
        {
          "internalType": "uint256",
          "name": "tokenId",
          "type": "uint256"
        },
        {
          "internalType": "bytes",
          "name": "_data",
          "type": "bytes"
        }
      ],
      "name": "safeTransferFrom",
      "outputs": [],
      "stateMutability": "nonpayable",
      "type": "function"
    },
    {
      "inputs": [
        {
          "internalType": "address",
          "name": "to",
          "type": "address"
        },
        {
          "internalType": "bool",
          "name": "approved",
          "type": "bool"
        }
      ],
      "name": "setApprovalForAll",
      "outputs": [],
      "stateMutability": "nonpayable",
      "type": "function"
    },
    {
      "inputs": [
        {
          "internalType": "bool",
          "name": "_paused",
          "type": "bool"
        }
      ],
      "name": "setPaused",
      "outputs": [],
      "stateMutability": "nonpayable",
      "type": "function"
    },
    {
      "inputs": [
        {
          "internalType": "bytes4",
          "name": "interfaceId",
          "type": "bytes4"
        }
      ],
      "name": "supportsInterface",
      "outputs": [
        {
          "internalType": "bool",
          "name": "",
          "type": "bool"
        }
      ],
      "stateMutability": "view",
      "type": "function"
    },
    {
      "inputs": [
        {
          "internalType": "uint256",
          "name": "index",
          "type": "uint256"
        }
      ],
      "name": "tokenByIndex",
      "outputs": [
        {
          "internalType": "uint256",
          "name": "",
          "type": "uint256"
        }
      ],
      "stateMutability": "view",
      "type": "function"
    },
    {
      "inputs": [
        {
          "internalType": "address",
          "name": "owner",
          "type": "address"
        },
        {
          "internalType": "uint256",
          "name": "index",
          "type": "uint256"
        }
      ],
      "name": "tokenOfOwnerByIndex",
      "outputs": [
        {
          "internalType": "uint256",
          "name": "",
          "type": "uint256"
        }
      ],
      "stateMutability": "view",
      "type": "function"
    },
    {
      "inputs": [],
      "name": "totalSupply",
      "outputs": [
        {
          "internalType": "uint256",
          "name": "",
          "type": "uint256"
        }
      ],
      "stateMutability": "view",
      "type": "function"
    },
    {
      "inputs": [
        {
          "internalType": "address",
          "name": "from",
          "type": "address"
        },
        {
          "internalType": "address",
          "name": "to",
          "type": "address"
        },
        {
          "internalType": "uint256",
          "name": "tokenId",
          "type": "uint256"
        }
      ],
      "name": "transferFrom",
      "outputs": [],
      "stateMutability": "nonpayable",
      "type": "function"
    },
    {
      "inputs": [
        {
          "internalType": "address",
          "name": "newOwner",
          "type": "address"
        }
      ],
      "name": "transferOwnership",
      "outputs": [],
      "stateMutability": "nonpayable",
      "type": "function"
    },
    {
      "inputs": [
        {
          "internalType": "address",
          "name": "to",
          "type": "address"
        },
        {
          "internalType": "uint256",
          "name": "tokenId",
          "type": "uint256"
        }
      ],
      "name": "mint",
      "outputs": [
        {
          "internalType": "bool",
          "name": "",
          "type": "bool"
        }
      ],
      "stateMutability": "nonpayable",
      "type": "function"
    }
  ],
  "bytecode": "0x60806040523480156200001157600080fd5b506040518060400160405280600b81526020017f5265616c204573746174650000000000000000000000000000000000000000008152506040518060400160405280600581526020017f52454e46540000000000000000000000000000000000000000000000000000008152506040518060600160405280603f8152602001620032a0603f9139336000806101000a81548173ffffffffffffffffffffffffffffffffffffffff021916908373ffffffffffffffffffffffffffffffffffffffff1602179055503373ffffffffffffffffffffffffffffffffffffffff16600073ffffffffffffffffffffffffffffffffffffffff167f8934ce4adea8d9ce0d714d2c22b86790e41b7731c84b926fbbdc1d40ff6533c960405160405180910390a360008060146101000a81548160ff021916908315150217905550620001656301ffc9a760e01b620001ec60201b60201c565b6200017d6380ac58cd60e01b620001ec60201b60201c565b6200019563780e9d6360e01b620001ec60201b60201c565b82600a9081620001a6919062000505565b5081600b9081620001b8919062000505565b5080600c9081620001ca919062000505565b50620001e3635b5e139f60e01b620001ec60201b60201c565b505050620005ec565b63ffffffff60e01b817bffffffffffffffffffffffffffffffffffffffffffffffffffffffff1916036200021f57600080fd5b6001806000837bffffffffffffffffffffffffffffffffffffffffffffffffffffffff19167bffffffffffffffffffffffffffffffffffffffffffffffffffffffff1916815260200190815260200160002060006101000a81548160ff02191690831515021790555050565b600081519050919050565b7f4e487b7100000000000000000000000000000000000000000000000000000000600052604160045260246000fd5b7f4e487b7100000000000000000000000000000000000000000000000000000000600052602260045260246000fd5b600060028204905060018216806200030d57607f821691505b602082108103620003235762000322620002c5565b5b50919050565b60008190508160005260206000209050919050565b60006020601f8301049050919050565b600082821b905092915050565b6000600883026200038d7fffffffffffffffffffffffffffffffffffffffffffffffffffffffffffffffff826200034e565b6200039986836200034e565b95508019841693508086168417925050509392505050565b6000819050919050565b6000819050919050565b6000620003e6620003e0620003da84620003b1565b620003bb565b620003b1565b9050919050565b6000819050919050565b6200040283620003c5565b6200041a6200041182620003ed565b8484546200035b565b825550505050565b600090565b6200043162000422565b6200043e818484620003f7565b505050565b5b8181101562000466576200045a60008262000427565b60018101905062000444565b5050565b601f821115620004b5576200047f8162000329565b6200048a846200033e565b810160208510156200049a578190505b620004b2620004a9856200033e565b83018262000443565b50505b505050565b600082821c905092915050565b6000620004da60001984600802620004ba565b1980831691505092915050565b6000620004f58383620004c7565b9150826002028217905092915050565b62000510826200028b565b67ffffffffffffffff8111156200052c576200052b62000296565b5b620005388254620002f4565b620005458282856200046a565b600060209050601f8311600181146200057d576000841562000568578287015190505b620005748582620004e7565b865550620005e4565b601f1984166200058d8662000329565b60005b82811015620005b75784890151825560018201915060208501945060208101905062000590565b86831015620005d75784890151620005d3601f891682620004c7565b8355505b6001600288020188555050505b505050505050565b612ca480620005fc6000396000f3fe608060405234801561001057600080fd5b50600436106101375760003560e01c806340c10f19116100b8578063a22cb4651161007c578063a22cb46514610386578063b88d4fde146103a2578063bdc32be0146103be578063ce606ee0146103dc578063e985e9c5146103fa578063f2fde38b1461042a57610137565b806340c10f19146102aa57806342842e0e146102da5780634f6ccce7146102f65780636352211e1461032657806370a082311461035657610137565b806317d7de7c116100ff57806317d7de7c146101f257806318160ddd1461021057806323b872dd1461022e5780632f745c591461024a5780633bb3a24d1461027a57610137565b806301ffc9a71461013c578063081812fc1461016c578063095ea7b31461019c57806315070401146101b857806316c38b3c146101d6575b600080fd5b61015660048036038101906101519190611cc4565b610446565b6040516101639190611d0c565b60405180910390f35b61018660048036038101906101819190611d5d565b6104ae565b6040516101939190611dcb565b60405180910390f35b6101b660048036038101906101b19190611e12565b6104eb565b005b6101c0610668565b6040516101cd9190611eeb565b60405180910390f35b6101f060048036038101906101eb9190611f39565b6106fa565b005b6101fa610837565b6040516102079190611eeb565b60405180910390f35b6102186108c9565b6040516102259190611f75565b60405180910390f35b61024860048036038101906102439190611f90565b6108d6565b005b610264600480360381019061025f9190611e12565b6108f9565b6040516102719190611f75565b60405180910390f35b610294600480360381019061028f9190611d5d565b610973565b6040516102a19190611eeb565b60405180910390f35b6102c460048036038101906102bf9190611e12565b610a2a565b6040516102d19190611d0c565b60405180910390f35b6102f460048036038101906102ef9190611f90565b610ad8565b005b610310600480360381019061030b9190611d5d565b610af8565b60405161031d9190611f75565b60405180910390f35b610340600480360381019061033b9190611d5d565b610b33565b60405161034d9190611dcb565b60405180910390f35b610370600480360381019061036b9190611fe3565b610b70565b60405161037d9190611f75565b60405180910390f35b6103a0600480360381019061039b9190612010565b610bc0565b005b6103bc60048036038101906103b79190612185565b610cf5565b005b6103c6610d1b565b6040516103d39190611eeb565b60405180910390f35b6103e4610dad565b6040516103f19190611dcb565b60405180910390f35b610414600480360381019061040f9190612208565b610dd6565b6040516104219190611d0c565b60405180910390f35b610444600480360381019061043f9190611fe3565b610e6a565b005b600060016000837bffffffffffffffffffffffffffffffffffffffffffffffffffffffff19167bffffffffffffffffffffffffffffffffffffffffffffffffffffffff1916815260200190815260200160002060009054906101000a900460ff169050919050565b60006003600083815260200190815260200160002060009054906101000a900473ffffffffffffffffffffffffffffffffffffffff169050919050565b60006104f682610b33565b90508073ffffffffffffffffffffffffffffffffffffffff168373ffffffffffffffffffffffffffffffffffffffff1603610566576040517f08c379a000000000000000000000000000000000000000000000000000000000815260040161055d906122ba565b60405180910390fd5b61056e610dad565b73ffffffffffffffffffffffffffffffffffffffff163373ffffffffffffffffffffffffffffffffffffffff1614806105ad57506105ac8133610dd6565b5b6105b657600080fd5b336003600084815260200190815260200160002060006101000a81548173ffffffffffffffffffffffffffffffffffffffff021916908373ffffffffffffffffffffffffffffffffffffffff160217905550813373ffffffffffffffffffffffffffffffffffffffff168273ffffffffffffffffffffffffffffffffffffffff167f8c5be1e5ebec7d5bd14f71427d1e84f3dd0314c0f7b2291e5b200ac8c7c3b92560405160405180910390a4505050565b6060600b805461067790612309565b80601f01602080910402602001604051908101604052809291908181526020018280546106a390612309565b80156106f05780601f106106c5576101008083540402835291602001916106f0565b820191906000526020600020905b8154815290600101906020018083116106d357829003601f168201915b5050505050905090565b60008054906101000a900473ffffffffffffffffffffffffffffffffffffffff1673ffffffffffffffffffffffffffffffffffffffff163373ffffffffffffffffffffffffffffffffffffffff1614610788576040517f08c379a000000000000000000000000000000000000000000000000000000000815260040161077f90612386565b60405180910390fd5b80600060146101000a81548160ff02191690831515021790555080156107f0573373ffffffffffffffffffffffffffffffffffffffff167f62e78cea01bee320cd4e420270b5ea74000d11b0c9f74754ebdbfc544b05a25860405160405180910390a2610834565b3373ffffffffffffffffffffffffffffffffffffffff167f5db9ee0a495bf2e6ff9c91a7834c1ba4fdd244a5e8aa4e537bd38aeae4b073aa60405160405180910390a25b50565b6060600a805461084690612309565b80601f016020809104026020016040519081016040528092919081815260200182805461087290612309565b80156108bf5780601f10610894576101008083540402835291602001916108bf565b820191906000526020600020905b8154815290600101906020018083116108a257829003601f168201915b5050505050905090565b6000600880549050905090565b6108e0338261102b565b6108e957600080fd5b6108f48383836110c0565b505050565b600061090483610b70565b821061090f57600080fd5b600660008473ffffffffffffffffffffffffffffffffffffffff1673ffffffffffffffffffffffffffffffffffffffff16815260200190815260200160002082815481106109605761095f6123a6565b5b9060005260206000200154905092915050565b606061097e826110e4565b61098757600080fd5b600d600083815260200190815260200160002080546109a590612309565b80601f01602080910402602001604051908101604052809291908181526020018280546109d190612309565b8015610a1e5780601f106109f357610100808354040283529160200191610a1e565b820191906000526020600020905b815481529060010190602001808311610a0157829003601f168201915b50505050509050919050565b60008060009054906101000a900473ffffffffffffffffffffffffffffffffffffffff1673ffffffffffffffffffffffffffffffffffffffff163373ffffffffffffffffffffffffffffffffffffffff1614610abb576040517f08c379a0000000000000000000000000000000000000000000000000000000008152600401610ab290612386565b60405180910390fd5b610ac5838361112b565b610ace8261114c565b6001905092915050565b610af383838360405180602001604052806000815250610cf5565b505050565b6000610b026108c9565b8210610b0d57600080fd5b60088281548110610b2157610b206123a6565b5b90600052602060002001549050919050565b60006002600083815260200190815260200160002060009054906101000a900473ffffffffffffffffffffffffffffffffffffffff169050919050565b6000610bb9600460008473ffffffffffffffffffffffffffffffffffffffff1673ffffffffffffffffffffffffffffffffffffffff1681526020019081526020016000206111ac565b9050919050565b3373ffffffffffffffffffffffffffffffffffffffff168273ffffffffffffffffffffffffffffffffffffffff1603610bf857600080fd5b80600560003373ffffffffffffffffffffffffffffffffffffffff1673ffffffffffffffffffffffffffffffffffffffff16815260200190815260200160002060008473ffffffffffffffffffffffffffffffffffffffff1673ffffffffffffffffffffffffffffffffffffffff16815260200190815260200160002060006101000a81548160ff0219169083151502179055508173ffffffffffffffffffffffffffffffffffffffff163373ffffffffffffffffffffffffffffffffffffffff167f17307eab39ab6107e8899845ad3d59bd9653f200f220920489ca2b5937696c3183604051610ce99190611d0c565b60405180910390a35050565b610d008484846108d6565b610d0c848484846111ba565b610d1557600080fd5b50505050565b6060600c8054610d2a90612309565b80601f0160208091040260200160405190810160405280929190818152602001828054610d5690612309565b8015610da35780601f10610d7857610100808354040283529160200191610da3565b820191906000526020600020905b815481529060010190602001808311610d8657829003601f168201915b5050505050905090565b60008060009054906101000a900473ffffffffffffffffffffffffffffffffffffffff16905090565b6000600560008473ffffffffffffffffffffffffffffffffffffffff1673ffffffffffffffffffffffffffffffffffffffff16815260200190815260200160002060008373ffffffffffffffffffffffffffffffffffffffff1673ffffffffffffffffffffffffffffffffffffffff16815260200190815260200160002060009054906101000a900460ff16905092915050565b60008054906101000a900473ffffffffffffffffffffffffffffffffffffffff1673ffffffffffffffffffffffffffffffffffffffff163373ffffffffffffffffffffffffffffffffffffffff1614610ef8576040517f08c379a0000000000000000000000000000000000000000000000000000000008152600401610eef90612386565b60405180910390fd5b600073ffffffffffffffffffffffffffffffffffffffff168173ffffffffffffffffffffffffffffffffffffffff1603610f67576040517f08c379a0000000000000000000000000000000000000000000000000000000008152600401610f5e90612447565b60405180910390fd5b60008060009054906101000a900473ffffffffffffffffffffffffffffffffffffffff169050816000806101000a81548173ffffffffffffffffffffffffffffffffffffffff021916908373ffffffffffffffffffffffffffffffffffffffff1602179055508173ffffffffffffffffffffffffffffffffffffffff168173ffffffffffffffffffffffffffffffffffffffff167f8934ce4adea8d9ce0d714d2c22b86790e41b7731c84b926fbbdc1d40ff6533c960405160405180910390a35050565b60008061103783610b33565b90508073ffffffffffffffffffffffffffffffffffffffff168473ffffffffffffffffffffffffffffffffffffffff1614806110a657508373ffffffffffffffffffffffffffffffffffffffff1661108e846104ae565b73ffffffffffffffffffffffffffffffffffffffff16145b806110b757506110b68185610dd6565b5b91505092915050565b6110cb8383836112c2565b6110d5838261151b565b6110df82826116cb565b505050565b6000806110f083610b33565b9050600073ffffffffffffffffffffffffffffffffffffffff168173ffffffffffffffffffffffffffffffffffffffff161415915050919050565b611135828261178f565b61113f82826116cb565b61114881611946565b5050565b611155816110e4565b61115e57600080fd5b600c6111698261198f565b60405160200161117a929190612546565b604051602081830303815290604052600d600083815260200190815260200160002090816111a89190612716565b5050565b600081600001549050919050565b60006111db8473ffffffffffffffffffffffffffffffffffffffff16611aef565b6111e857600190506112ba565b60008473ffffffffffffffffffffffffffffffffffffffff1663150b7a02338887876040518563ffffffff1660e01b81526004016112299493929190612832565b6020604051808303816000875af1158015611248573d6000803e3d6000fd5b505050506040513d601f19601f8201168201806040525081019061126c9190612893565b905063150b7a0260e01b7bffffffffffffffffffffffffffffffffffffffffffffffffffffffff1916817bffffffffffffffffffffffffffffffffffffffffffffffffffffffff1916149150505b949350505050565b6002600082815260200190815260200160002060009054906101000a900473ffffffffffffffffffffffffffffffffffffffff1673ffffffffffffffffffffffffffffffffffffffff168373ffffffffffffffffffffffffffffffffffffffff1614611363576040517f08c379a000000000000000000000000000000000000000000000000000000000815260040161135a9061290c565b60405180910390fd5b600073ffffffffffffffffffffffffffffffffffffffff168273ffffffffffffffffffffffffffffffffffffffff16036113d2576040517f08c379a00000000000000000000000000000000000000000000000000000000081526004016113c990612978565b60405180910390fd5b6113db81611b12565b611422600460008573ffffffffffffffffffffffffffffffffffffffff1673ffffffffffffffffffffffffffffffffffffffff168152602001908152602001600020611bd0565b611469600460008473ffffffffffffffffffffffffffffffffffffffff1673ffffffffffffffffffffffffffffffffffffffff168152602001908152602001600020611c2c565b816002600083815260200190815260200160002060006101000a81548173ffffffffffffffffffffffffffffffffffffffff021916908373ffffffffffffffffffffffffffffffffffffffff160217905550808273ffffffffffffffffffffffffffffffffffffffff168473ffffffffffffffffffffffffffffffffffffffff167fddf252ad1be2c89b69c2b068fc378daa952ba7f163c4a11628f55a4df523b3ef60405160405180910390a4505050565b60006115736001600660008673ffffffffffffffffffffffffffffffffffffffff1673ffffffffffffffffffffffffffffffffffffffff16815260200190815260200160002080549050611c4290919063ffffffff16565b905060006007600084815260200190815260200160002054905081811461166e576000600660008673ffffffffffffffffffffffffffffffffffffffff1673ffffffffffffffffffffffffffffffffffffffff16815260200190815260200160002083815481106115e7576115e66123a6565b5b9060005260206000200154905080600660008773ffffffffffffffffffffffffffffffffffffffff1673ffffffffffffffffffffffffffffffffffffffff1681526020019081526020016000208381548110611646576116456123a6565b5b9060005260206000200181905550816007600083815260200190815260200160002081905550505b6116c46001600660008773ffffffffffffffffffffffffffffffffffffffff1673ffffffffffffffffffffffffffffffffffffffff16815260200190815260200160002080549050611c4290919063ffffffff16565b5050505050565b600660008373ffffffffffffffffffffffffffffffffffffffff1673ffffffffffffffffffffffffffffffffffffffff168152602001908152602001600020805490506007600083815260200190815260200160002081905550600660008373ffffffffffffffffffffffffffffffffffffffff1673ffffffffffffffffffffffffffffffffffffffff1681526020019081526020016000208190806001815401808255809150506001900390600052602060002001600090919091909150555050565b600073ffffffffffffffffffffffffffffffffffffffff168273ffffffffffffffffffffffffffffffffffffffff16036117fe576040517f08c379a00000000000000000000000000000000000000000000000000000000081526004016117f5906129e4565b60405180910390fd5b6000151561180b826110e4565b15151461184d576040517f08c379a000000000000000000000000000000000000000000000000000000000815260040161184490612a50565b60405180910390fd5b816002600083815260200190815260200160002060006101000a81548173ffffffffffffffffffffffffffffffffffffffff021916908373ffffffffffffffffffffffffffffffffffffffff1602179055506118e6600460008473ffffffffffffffffffffffffffffffffffffffff1673ffffffffffffffffffffffffffffffffffffffff168152602001908152602001600020611c2c565b808273ffffffffffffffffffffffffffffffffffffffff16600073ffffffffffffffffffffffffffffffffffffffff167fddf252ad1be2c89b69c2b068fc378daa952ba7f163c4a11628f55a4df523b3ef60405160405180910390a45050565b6008805490506009600083815260200190815260200160002081905550600881908060018154018082558091505060019003906000526020600020016000909190919091505550565b6060600082036119d6576040518060400160405280600181526020017f30000000000000000000000000000000000000000000000000000000000000008152509050611aea565b600082905060005b60008214611a085780806119f190612a9f565b915050600a82611a019190612b16565b91506119de565b60008167ffffffffffffffff811115611a2457611a2361205a565b5b6040519080825280601f01601f191660200182016040528015611a565781602001600182028036833780820191505090505b5090505b60008514611ae357600182611a6f9190612b47565b9150600a85611a7e9190612b7b565b6030611a8a9190612bac565b60f81b818381518110611aa057611a9f6123a6565b5b60200101907effffffffffffffffffffffffffffffffffffffffffffffffffffffffffffff1916908160001a905350600a85611adc9190612b16565b9450611a5a565b8093505050505b919050565b6000808273ffffffffffffffffffffffffffffffffffffffff163b119050919050565b600073ffffffffffffffffffffffffffffffffffffffff166003600083815260200190815260200160002060009054906101000a900473ffffffffffffffffffffffffffffffffffffffff1673ffffffffffffffffffffffffffffffffffffffff1614611bcd5760006003600083815260200190815260200160002060006101000a81548173ffffffffffffffffffffffffffffffffffffffff021916908373ffffffffffffffffffffffffffffffffffffffff1602179055505b50565b60008160000154905060008111611c1c576040517f08c379a0000000000000000000000000000000000000000000000000000000008152600401611c1390612c4e565b60405180910390fd5b6001810382600001819055505050565b6001816000016000828254019250508190555050565b60008183611c509190612b47565b905092915050565b6000604051905090565b600080fd5b600080fd5b60007fffffffff0000000000000000000000000000000000000000000000000000000082169050919050565b611ca181611c6c565b8114611cac57600080fd5b50565b600081359050611cbe81611c98565b92915050565b600060208284031215611cda57611cd9611c62565b5b6000611ce884828501611caf565b91505092915050565b60008115159050919050565b611d0681611cf1565b82525050565b6000602082019050611d216000830184611cfd565b92915050565b6000819050919050565b611d3a81611d27565b8114611d4557600080fd5b50565b600081359050611d5781611d31565b92915050565b600060208284031215611d7357611d72611c62565b5b6000611d8184828501611d48565b91505092915050565b600073ffffffffffffffffffffffffffffffffffffffff82169050919050565b6000611db582611d8a565b9050919050565b611dc581611daa565b82525050565b6000602082019050611de06000830184611dbc565b92915050565b611def81611daa565b8114611dfa57600080fd5b50565b600081359050611e0c81611de6565b92915050565b60008060408385031215611e2957611e28611c62565b5b6000611e3785828601611dfd565b9250506020611e4885828601611d48565b9150509250929050565b600081519050919050565b600082825260208201905092915050565b60005b83811015611e8c578082015181840152602081019050611e71565b83811115611e9b576000848401525b50505050565b6000601f19601f8301169050919050565b6000611ebd82611e52565b611ec78185611e5d565b9350611ed7818560208601611e6e565b611ee081611ea1565b840191505092915050565b60006020820190508181036000830152611f058184611eb2565b905092915050565b611f1681611cf1565b8114611f2157600080fd5b50565b600081359050611f3381611f0d565b92915050565b600060208284031215611f4f57611f4e611c62565b5b6000611f5d84828501611f24565b91505092915050565b611f6f81611d27565b82525050565b6000602082019050611f8a6000830184611f66565b92915050565b600080600060608486031215611fa957611fa8611c62565b5b6000611fb786828701611dfd565b9350506020611fc886828701611dfd565b9250506040611fd986828701611d48565b9150509250925092565b600060208284031215611ff957611ff8611c62565b5b600061200784828501611dfd565b91505092915050565b6000806040838503121561202757612026611c62565b5b600061203585828601611dfd565b925050602061204685828601611f24565b9150509250929050565b600080fd5b600080fd5b7f4e487b7100000000000000000000000000000000000000000000000000000000600052604160045260246000fd5b61209282611ea1565b810181811067ffffffffffffffff821117156120b1576120b061205a565b5b80604052505050565b60006120c4611c58565b90506120d08282612089565b919050565b600067ffffffffffffffff8211156120f0576120ef61205a565b5b6120f982611ea1565b9050602081019050919050565b82818337600083830152505050565b6000612128612123846120d5565b6120ba565b90508281526020810184848401111561214457612143612055565b5b61214f848285612106565b509392505050565b600082601f83011261216c5761216b612050565b5b813561217c848260208601612115565b91505092915050565b6000806000806080858703121561219f5761219e611c62565b5b60006121ad87828801611dfd565b94505060206121be87828801611dfd565b93505060406121cf87828801611d48565b925050606085013567ffffffffffffffff8111156121f0576121ef611c67565b5b6121fc87828801612157565b91505092959194509250565b6000806040838503121561221f5761221e611c62565b5b600061222d85828601611dfd565b925050602061223e85828601611dfd565b9150509250929050565b7f27546f2720416464726573732073686f756c6420626520646966666572656e7460008201527f2066726f6d20746865206f776e65720000000000000000000000000000000000602082015250565b60006122a4602f83611e5d565b91506122af82612248565b604082019050919050565b600060208201905081810360008301526122d381612297565b9050919050565b7f4e487b7100000000000000000000000000000000000000000000000000000000600052602260045260246000fd5b6000600282049050600182168061232157607f821691505b602082108103612334576123336122da565b5b50919050565b7f4f6e6c7920636f6e7472616374206f776e65722063616e2063616c6c20697400600082015250565b6000612370601f83611e5d565b915061237b8261233a565b602082019050919050565b6000602082019050818103600083015261239f81612363565b9050919050565b7f4e487b7100000000000000000000000000000000000000000000000000000000600052603260045260246000fd5b7f4e6577206f776e6572206e65656420746f2062652061207265616c206164647260008201527f6573730000000000000000000000000000000000000000000000000000000000602082015250565b6000612431602383611e5d565b915061243c826123d5565b604082019050919050565b6000602082019050818103600083015261246081612424565b9050919050565b600081905092915050565b60008190508160005260206000209050919050565b6000815461249481612309565b61249e8186612467565b945060018216600081146124b957600181146124ce57612501565b60ff1983168652811515820286019350612501565b6124d785612472565b60005b838110156124f9578154818901526001820191506020810190506124da565b838801955050505b50505092915050565b600081519050919050565b60006125208261250a565b61252a8185612467565b935061253a818560208601611e6e565b80840191505092915050565b60006125528285612487565b915061255e8284612515565b91508190509392505050565b60008190508160005260206000209050919050565b60006020601f8301049050919050565b600082821b905092915050565b6000600883026125cc7fffffffffffffffffffffffffffffffffffffffffffffffffffffffffffffffff8261258f565b6125d6868361258f565b95508019841693508086168417925050509392505050565b6000819050919050565b600061261361260e61260984611d27565b6125ee565b611d27565b9050919050565b6000819050919050565b61262d836125f8565b6126416126398261261a565b84845461259c565b825550505050565b600090565b612656612649565b612661818484612624565b505050565b5b818110156126855761267a60008261264e565b600181019050612667565b5050565b601f8211156126ca5761269b8161256a565b6126a48461257f565b810160208510156126b3578190505b6126c76126bf8561257f565b830182612666565b50505b505050565b600082821c905092915050565b60006126ed600019846008026126cf565b1980831691505092915050565b600061270683836126dc565b9150826002028217905092915050565b61271f82611e52565b67ffffffffffffffff8111156127385761273761205a565b5b6127428254612309565b61274d828285612689565b600060209050601f831160018114612780576000841561276e578287015190505b61277885826126fa565b8655506127e0565b601f19841661278e8661256a565b60005b828110156127b657848901518255600182019150602085019450602081019050612791565b868310156127d357848901516127cf601f8916826126dc565b8355505b6001600288020188555050505b505050505050565b600082825260208201905092915050565b60006128048261250a565b61280e81856127e8565b935061281e818560208601611e6e565b61282781611ea1565b840191505092915050565b60006080820190506128476000830187611dbc565b6128546020830186611dbc565b6128616040830185611f66565b818103606083015261287381846127f9565b905095945050505050565b60008151905061288d81611c98565b92915050565b6000602082840312156128a9576128a8611c62565b5b60006128b78482850161287e565b91505092915050565b7f46726f6d2073686f756c6420626520746f6b656e206f776e6572000000000000600082015250565b60006128f6601a83611e5d565b9150612901826128c0565b602082019050919050565b60006020820190508181036000830152612925816128e9565b9050919050565b7f27546f272073686f756c642062652076616c6964206164647265737300000000600082015250565b6000612962601c83611e5d565b915061296d8261292c565b602082019050919050565b6000602082019050818103600083015261299181612955565b9050919050565b7f496e76616c696420616464726573730000000000000000000000000000000000600082015250565b60006129ce600f83611e5d565b91506129d982612998565b602082019050919050565b600060208201905081810360008301526129fd816129c1565b9050919050565b7f546f6b656e20496420616c726561647920657869737473000000000000000000600082015250565b6000612a3a601783611e5d565b9150612a4582612a04565b602082019050919050565b60006020820190508181036000830152612a6981612a2d565b9050919050565b7f4e487b7100000000000000000000000000000000000000000000000000000000600052601160045260246000fd5b6000612aaa82611d27565b91507fffffffffffffffffffffffffffffffffffffffffffffffffffffffffffffffff8203612adc57612adb612a70565b5b600182019050919050565b7f4e487b7100000000000000000000000000000000000000000000000000000000600052601260045260246000fd5b6000612b2182611d27565b9150612b2c83611d27565b925082612b3c57612b3b612ae7565b5b828204905092915050565b6000612b5282611d27565b9150612b5d83611d27565b925082821015612b7057612b6f612a70565b5b828203905092915050565b6000612b8682611d27565b9150612b9183611d27565b925082612ba157612ba0612ae7565b5b828206905092915050565b6000612bb782611d27565b9150612bc283611d27565b9250827fffffffffffffffffffffffffffffffffffffffffffffffffffffffffffffffff03821115612bf757612bf6612a70565b5b828201905092915050565b7f436f756e7465723a2064656372656d656e74206f766572666c6f770000000000600082015250565b6000612c38601b83611e5d565b9150612c4382612c02565b602082019050919050565b60006020820190508181036000830152612c6781612c2b565b905091905056fea26469706673582212202351e0f559a4dbf8e69f4479094537008b02dad00db029d3ffdc2122deab5b8064736f6c634300080f003368747470733a2f2f73332d75732d776573742d322e616d617a6f6e6177732e636f6d2f756461636974792d626c6f636b636861696e2f63617073746f6e652f",
  "immutableReferences": {},
  "source": "// SPDX-License-Identifier: MIT\npragma solidity >=0.8.0;\n\nimport \"@openzeppelin/contracts/utils/Address.sol\";\nimport \"@openzeppelin/contracts/utils/Counters.sol\";\nimport \"@openzeppelin/contracts/utils/math/SafeMath.sol\";\nimport \"@openzeppelin/contracts/utils/Strings.sol\";\nimport \"@openzeppelin/contracts/token/ERC721/IERC721Receiver.sol\";\n\ncontract Ownable {\n    // Storage variables\n    address private s_owner;\n\n    constructor() {\n        s_owner = msg.sender;\n        emit OwnerTransferred(address(0), msg.sender);\n    }\n\n    // Events ################################################\n    event OwnerTransferred(address indexed oldOnwer, address indexed newOwner);\n\n    // Modifiers #############################################\n    modifier onlyOwner() {\n        require(msg.sender == s_owner, \"Only contract owner can call it\");\n        _;\n    }\n\n    // Utility functions ####################################\n    function contractOwner() public view returns (address) {\n        return s_owner;\n    }\n\n    function transferOwnership(address newOwner) public onlyOwner {\n        require(newOwner != address(0), \"New owner need to be a real address\");\n        address oldOnwer = s_owner;\n        s_owner = newOwner;\n        emit OwnerTransferred(oldOnwer, newOwner);\n    }\n}\n\ncontract Pausable is Ownable {\n    // Storage variables\n    bool private s_paused;\n\n    constructor() {\n        s_paused = false;\n    }\n\n    event Paused(address indexed trigger);\n    event Unpaused(address indexed trigger);\n\n    // Modifiers #####################################\n\n    modifier whenNotPaused() {\n        require(s_paused == false, \"Contract is NOT paused\");\n        _;\n    }\n\n    modifier paused() {\n        require(s_paused == true, \"Contract is paused\");\n        _;\n    }\n\n    // functions\n\n    function setPaused(bool _paused) public onlyOwner {\n        s_paused = _paused;\n        if (_paused) {\n            emit Paused(msg.sender);\n        } else {\n            emit Unpaused(msg.sender);\n        }\n    }\n}\n\ncontract ERC165 {\n    bytes4 private constant _INTERFACE_ID_ERC165 = 0x01ffc9a7;\n    /*\n     * 0x01ffc9a7 ===\n     *     bytes4(keccak256('supportsInterface(bytes4)'))\n     */\n\n    /**\n     * @dev a mapping of interface id to whether or not it's supported\n     */\n    mapping(bytes4 => bool) private _supportedInterfaces;\n\n    /**\n     * @dev A contract implementing SupportsInterfaceWithLookup\n     * implement ERC165 itself\n     */\n    constructor() {\n        _registerInterface(_INTERFACE_ID_ERC165);\n    }\n\n    /**\n     * @dev implement supportsInterface(bytes4) using a lookup table\n     */\n    function supportsInterface(bytes4 interfaceId)\n        external\n        view\n        returns (bool)\n    {\n        return _supportedInterfaces[interfaceId];\n    }\n\n    /**\n     * @dev internal method for registering an interface\n     */\n    function _registerInterface(bytes4 interfaceId) internal {\n        require(interfaceId != 0xffffffff);\n        _supportedInterfaces[interfaceId] = true;\n    }\n}\n\ncontract ERC721 is Pausable, ERC165 {\n    event Transfer(\n        address indexed from,\n        address indexed to,\n        uint256 indexed tokenId\n    );\n\n    event Approval(\n        address indexed owner,\n        address indexed approved,\n        uint256 indexed tokenId\n    );\n\n    event ApprovalForAll(\n        address indexed owner,\n        address indexed operator,\n        bool approved\n    );\n\n    using SafeMath for uint256;\n    using Address for address;\n    using Counters for Counters.Counter;\n\n    // Equals to `bytes4(keccak256(\"onERC721Received(address,address,uint256,bytes)\"))`\n    // which can be also obtained as `IERC721Receiver(0).onERC721Received.selector`\n    bytes4 private constant _ERC721_RECEIVED = 0x150b7a02;\n\n    // Mapping from token ID to owner\n    mapping(uint256 => address) private _tokenOwner;\n\n    // Mapping from token ID to approved address\n    mapping(uint256 => address) private _tokenApprovals;\n\n    // Mapping from owner to number of owned token\n    mapping(address => Counters.Counter) private _ownedTokensCount;\n\n    // Mapping from owner to operator approvals\n    mapping(address => mapping(address => bool)) private _operatorApprovals;\n\n    bytes4 private constant _INTERFACE_ID_ERC721 = 0x80ac58cd;\n\n    constructor() {\n        // register the supported interfaces to conform to ERC721 via ERC165\n        _registerInterface(_INTERFACE_ID_ERC721);\n    }\n\n    function balanceOf(address owner) public view returns (uint256) {\n        return _ownedTokensCount[owner].current();\n    }\n\n    function ownerOf(uint256 tokenId) public view returns (address) {\n        return _tokenOwner[tokenId];\n    }\n\n    //    @dev Approves another address to transfer the given token ID\n    function approve(address to, uint256 tokenId) public {\n        address _tokenOwnerAddress = ownerOf(tokenId);\n        require(\n            to != _tokenOwnerAddress,\n            \"'To' Address should be different from the owner\"\n        );\n        require(\n            msg.sender == contractOwner() ||\n                isApprovedForAll(_tokenOwnerAddress, msg.sender)\n        );\n\n        _tokenApprovals[tokenId] = msg.sender;\n        emit Approval(_tokenOwnerAddress, msg.sender, tokenId);\n    }\n\n    function getApproved(uint256 tokenId) public view returns (address) {\n        return _tokenApprovals[tokenId];\n    }\n\n    /**\n     * @dev Sets or unsets the approval of a given operator\n     * An operator is allowed to transfer all tokens of the sender on their behalf\n     * @param to operator address to set the approval\n     * @param approved representing the status of the approval to be set\n     */\n    function setApprovalForAll(address to, bool approved) public {\n        require(to != msg.sender);\n        _operatorApprovals[msg.sender][to] = approved;\n        emit ApprovalForAll(msg.sender, to, approved);\n    }\n\n    /**\n     * @dev Tells whether an operator is approved by a given owner\n     * @param owner owner address which you want to query the approval of\n     * @param operator operator address which you want to query the approval of\n     * @return bool whether the given operator is approved by the given owner\n     */\n    function isApprovedForAll(address owner, address operator)\n        public\n        view\n        returns (bool)\n    {\n        return _operatorApprovals[owner][operator];\n    }\n\n    function transferFrom(\n        address from,\n        address to,\n        uint256 tokenId\n    ) public {\n        require(_isApprovedOrOwner(msg.sender, tokenId));\n\n        _transferFrom(from, to, tokenId);\n    }\n\n    function safeTransferFrom(\n        address from,\n        address to,\n        uint256 tokenId\n    ) public {\n        safeTransferFrom(from, to, tokenId, \"\");\n    }\n\n    function safeTransferFrom(\n        address from,\n        address to,\n        uint256 tokenId,\n        bytes memory _data\n    ) public {\n        transferFrom(from, to, tokenId);\n        require(_checkOnERC721Received(from, to, tokenId, _data));\n    }\n\n    /**\n     * @dev Returns whether the specified token exists\n     * @param tokenId uint256 ID of the token to query the existence of\n     * @return bool whether the token exists\n     */\n    function _exists(uint256 tokenId) internal view returns (bool) {\n        address owner = ownerOf(tokenId);\n        return owner != address(0);\n    }\n\n    /**\n     * @dev Returns whether the given spender can transfer a given token ID\n     * @param spender address of the spender to query\n     * @param tokenId uint256 ID of the token to be transferred\n     * @return bool whether the msg.sender is approved for the given token ID,\n     * is an operator of the owner, or is the owner of the token\n     */\n    function _isApprovedOrOwner(address spender, uint256 tokenId)\n        internal\n        view\n        returns (bool)\n    {\n        address owner = ownerOf(tokenId);\n        return (spender == owner ||\n            getApproved(tokenId) == spender ||\n            isApprovedForAll(owner, spender));\n    }\n\n    // @dev Internal function to mint a new token\n    function _mint(address to, uint256 tokenId) internal virtual {\n        require(to != address(0), \"Invalid address\");\n        require(_exists(tokenId) == false, \"Token Id already exists\");\n\n        _tokenOwner[tokenId] = to;\n        _ownedTokensCount[to].increment();\n\n        emit Transfer(address(0), to, tokenId);\n    }\n\n    // @dev Internal function to transfer ownership of a given token ID to another address.\n\n    function _transferFrom(\n        address from,\n        address to,\n        uint256 tokenId\n    ) internal virtual {\n        require(from == _tokenOwner[tokenId], \"From should be token owner\");\n        require(to != address(0), \"'To' should be valid address\");\n\n        _clearApproval(tokenId);\n\n        _ownedTokensCount[from].decrement();\n        _ownedTokensCount[to].increment();\n\n        _tokenOwner[tokenId] = to;\n\n        emit Transfer(from, to, tokenId);\n    }\n\n    /**\n     * @dev Internal function to invoke `onERC721Received` on a target address\n     * The call is not executed if the target address is not a contract\n     * @param from address representing the previous owner of the given token ID\n     * @param to target address that will receive the tokens\n     * @param tokenId uint256 ID of the token to be transferred\n     * @param _data bytes optional data to send along with the call\n     * @return bool whether the call correctly returned the expected magic value\n     */\n    function _checkOnERC721Received(\n        address from,\n        address to,\n        uint256 tokenId,\n        bytes memory _data\n    ) internal returns (bool) {\n        if (!to.isContract()) {\n            return true;\n        }\n\n        bytes4 retval = IERC721Receiver(to).onERC721Received(\n            msg.sender,\n            from,\n            tokenId,\n            _data\n        );\n        return (retval == _ERC721_RECEIVED);\n    }\n\n    // @dev Private function to clear current approval of a given token ID\n    function _clearApproval(uint256 tokenId) private {\n        if (_tokenApprovals[tokenId] != address(0)) {\n            _tokenApprovals[tokenId] = address(0);\n        }\n    }\n}\n\ncontract ERC721Enumerable is ERC165, ERC721 {\n    using SafeMath for uint256;\n\n    // Mapping from owner to list of owned token IDs\n    mapping(address => uint256[]) private _ownedTokens;\n\n    // Mapping from token ID to index of the owner tokens list\n    mapping(uint256 => uint256) private _ownedTokensIndex;\n\n    // Array with all token ids, used for enumeration\n    uint256[] private _allTokens;\n\n    // Mapping from token id to position in the allTokens array\n    mapping(uint256 => uint256) private _allTokensIndex;\n\n    bytes4 private constant _INTERFACE_ID_ERC721_ENUMERABLE = 0x780e9d63;\n\n    /*\n     * 0x780e9d63 ===\n     *     bytes4(keccak256('totalSupply()')) ^\n     *     bytes4(keccak256('tokenOfOwnerByIndex(address,uint256)')) ^\n     *     bytes4(keccak256('tokenByIndex(uint256)'))\n     */\n\n    /**\n     * @dev Constructor function\n     */\n    constructor() {\n        // register the supported interface to conform to ERC721Enumerable via ERC165\n        _registerInterface(_INTERFACE_ID_ERC721_ENUMERABLE);\n    }\n\n    /**\n     * @dev Gets the token ID at a given index of the tokens list of the requested owner\n     * @param owner address owning the tokens list to be accessed\n     * @param index uint256 representing the index to be accessed of the requested tokens list\n     * @return uint256 token ID at the given index of the tokens list owned by the requested address\n     */\n    function tokenOfOwnerByIndex(address owner, uint256 index)\n        public\n        view\n        returns (uint256)\n    {\n        require(index < balanceOf(owner));\n        return _ownedTokens[owner][index];\n    }\n\n    /**\n     * @dev Gets the total amount of tokens stored by the contract\n     * @return uint256 representing the total amount of tokens\n     */\n    function totalSupply() public view returns (uint256) {\n        return _allTokens.length;\n    }\n\n    /**\n     * @dev Gets the token ID at a given index of all the tokens in this contract\n     * Reverts if the index is greater or equal to the total number of tokens\n     * @param index uint256 representing the index to be accessed of the tokens list\n     * @return uint256 token ID at the given index of the tokens list\n     */\n    function tokenByIndex(uint256 index) public view returns (uint256) {\n        require(index < totalSupply());\n        return _allTokens[index];\n    }\n\n    /**\n     * @dev Internal function to transfer ownership of a given token ID to another address.\n     * As opposed to transferFrom, this imposes no restrictions on msg.sender.\n     * @param from current owner of the token\n     * @param to address to receive the ownership of the given token ID\n     * @param tokenId uint256 ID of the token to be transferred\n     */\n    function _transferFrom(\n        address from,\n        address to,\n        uint256 tokenId\n    ) internal override {\n        super._transferFrom(from, to, tokenId);\n\n        _removeTokenFromOwnerEnumeration(from, tokenId);\n\n        _addTokenToOwnerEnumeration(to, tokenId);\n    }\n\n    /**\n     * @dev Internal function to mint a new token\n     * Reverts if the given token ID already exists\n     * @param to address the beneficiary that will own the minted token\n     * @param tokenId uint256 ID of the token to be minted\n     */\n    function _mint(address to, uint256 tokenId) internal override {\n        super._mint(to, tokenId);\n\n        _addTokenToOwnerEnumeration(to, tokenId);\n\n        _addTokenToAllTokensEnumeration(tokenId);\n    }\n\n    /**\n     * @dev Gets the list of token IDs of the requested owner\n     * @param owner address owning the tokens\n     * @return uint256[] List of token IDs owned by the requested address\n     */\n    function _tokensOfOwner(address owner)\n        internal\n        view\n        returns (uint256[] storage)\n    {\n        return _ownedTokens[owner];\n    }\n\n    /**\n     * @dev Private function to add a token to this extension's ownership-tracking data structures.\n     * @param to address representing the new owner of the given token ID\n     * @param tokenId uint256 ID of the token to be added to the tokens list of the given address\n     */\n    function _addTokenToOwnerEnumeration(address to, uint256 tokenId) private {\n        _ownedTokensIndex[tokenId] = _ownedTokens[to].length;\n        _ownedTokens[to].push(tokenId);\n    }\n\n    /**\n     * @dev Private function to add a token to this extension's token tracking data structures.\n     * @param tokenId uint256 ID of the token to be added to the tokens list\n     */\n    function _addTokenToAllTokensEnumeration(uint256 tokenId) private {\n        _allTokensIndex[tokenId] = _allTokens.length;\n        _allTokens.push(tokenId);\n    }\n\n    /**\n     * @dev Private function to remove a token from this extension's ownership-tracking data structures. Note that\n     * while the token is not assigned a new owner, the _ownedTokensIndex mapping is _not_ updated: this allows for\n     * gas optimizations e.g. when performing a transfer operation (avoiding double writes).\n     * This has O(1) time complexity, but alters the order of the _ownedTokens array.\n     * @param from address representing the previous owner of the given token ID\n     * @param tokenId uint256 ID of the token to be removed from the tokens list of the given address\n     */\n    function _removeTokenFromOwnerEnumeration(address from, uint256 tokenId)\n        private\n    {\n        // To prevent a gap in from's tokens array, we store the last token in the index of the token to delete, and\n        // then delete the last slot (swap and pop).\n\n        uint256 lastTokenIndex = _ownedTokens[from].length.sub(1);\n        uint256 tokenIndex = _ownedTokensIndex[tokenId];\n\n        // When the token to delete is the last token, the swap operation is unnecessary\n        if (tokenIndex != lastTokenIndex) {\n            uint256 lastTokenId = _ownedTokens[from][lastTokenIndex];\n\n            _ownedTokens[from][tokenIndex] = lastTokenId; // Move the last token to the slot of the to-delete token\n            _ownedTokensIndex[lastTokenId] = tokenIndex; // Update the moved token's index\n        }\n\n        // This also deletes the contents at the last position of the array\n        _ownedTokens[from].length.sub(1);\n\n        // Note that _ownedTokensIndex[tokenId] hasn't been cleared: it still points to the old slot (now occupied by\n        // lastTokenId, or just over the end of the array if the token was the last one).\n    }\n\n    /**\n     * @dev Private function to remove a token from this extension's token tracking data structures.\n     * This has O(1) time complexity, but alters the order of the _allTokens array.\n     * @param tokenId uint256 ID of the token to be removed from the tokens list\n     */\n    function _removeTokenFromAllTokensEnumeration(uint256 tokenId) private {\n        // To prevent a gap in the tokens array, we store the last token in the index of the token to delete, and\n        // then delete the last slot (swap and pop).\n\n        uint256 lastTokenIndex = _allTokens.length.sub(1);\n        uint256 tokenIndex = _allTokensIndex[tokenId];\n\n        // When the token to delete is the last token, the swap operation is unnecessary. However, since this occurs so\n        // rarely (when the last minted token is burnt) that we still do the swap here to avoid the gas cost of adding\n        // an 'if' statement (like in _removeTokenFromOwnerEnumeration)\n        uint256 lastTokenId = _allTokens[lastTokenIndex];\n\n        _allTokens[tokenIndex] = lastTokenId; // Move the last token to the slot of the to-delete token\n        _allTokensIndex[lastTokenId] = tokenIndex; // Update the moved token's index\n\n        // This also deletes the contents at the last position of the array\n        _allTokens.length.sub(1);\n        _allTokensIndex[tokenId] = 0;\n    }\n}\n\ncontract ERC721Metadata is ERC721Enumerable {\n    string private _name;\n    string private _symbol;\n    string private _baseTokenURI;\n\n    mapping(uint256 => string) _tokenURIs;\n\n    bytes4 private constant _INTERFACE_ID_ERC721_METADATA = 0x5b5e139f;\n\n    /*\n     * 0x5b5e139f ===\n     *     bytes4(keccak256('name()')) ^\n     *     bytes4(keccak256('symbol()')) ^\n     *     bytes4(keccak256('tokenURI(uint256)'))\n     */\n\n    constructor(\n        string memory name,\n        string memory symbol,\n        string memory baseTokenURI\n    ) {\n        // TODO: set instance var values\n        _name = name;\n        _symbol = symbol;\n        _baseTokenURI = baseTokenURI;\n\n        _registerInterface(_INTERFACE_ID_ERC721_METADATA);\n    }\n\n    // TODO: create external getter functions for name, symbol, and baseTokenURI\n\n    function getName() public view returns (string memory) {\n        return _name;\n    }\n\n    function getSymbol() public view returns (string memory) {\n        return _symbol;\n    }\n\n    function getBaseTokenURI() public view returns (string memory) {\n        return _baseTokenURI;\n    }\n\n    function getTokenURI(uint256 tokenId)\n        external\n        view\n        returns (string memory)\n    {\n        require(_exists(tokenId));\n        return _tokenURIs[tokenId];\n    }\n\n    function setTokenURI(uint256 tokenId) internal {\n        require(_exists(tokenId));\n        _tokenURIs[tokenId] = string(\n            bytes.concat(bytes(_baseTokenURI), bytes(Strings.toString(tokenId)))\n        );\n    }\n}\n\ncontract ERC721Mintable is ERC721Metadata {\n    constructor()\n        ERC721Metadata(\n            \"Real Estate\",\n            \"RENFT\",\n            \"https://s3-us-west-2.amazonaws.com/udacity-blockchain/capstone/\"\n        )\n    {}\n\n    function mint(address to, uint256 tokenId) public onlyOwner returns (bool) {\n        super._mint(to, tokenId);\n        super.setTokenURI(tokenId);\n        return true;\n    }\n}\n",
  "sourcePath": "/home/rafamessias/Documents/udacity/Ethereum/real-estate-marketplace/contracts/ERC721Mintable.sol",
  "compiler": {
    "name": "solc",
    "version": "0.8.15+commit.e14f2714.Emscripten.clang"
  },
  "schemaVersion": "3.4.8",
  "updatedAt": "2022-09-24T13:27:45.624Z",
  "devdoc": {
    "kind": "dev",
    "methods": {
      "isApprovedForAll(address,address)": {
        "details": "Tells whether an operator is approved by a given owner",
        "params": {
          "operator": "operator address which you want to query the approval of",
          "owner": "owner address which you want to query the approval of"
        },
        "returns": {
          "_0": "bool whether the given operator is approved by the given owner"
        }
      },
      "setApprovalForAll(address,bool)": {
        "details": "Sets or unsets the approval of a given operator An operator is allowed to transfer all tokens of the sender on their behalf",
        "params": {
          "approved": "representing the status of the approval to be set",
          "to": "operator address to set the approval"
        }
      },
      "supportsInterface(bytes4)": {
        "details": "implement supportsInterface(bytes4) using a lookup table"
      },
      "tokenByIndex(uint256)": {
        "details": "Gets the token ID at a given index of all the tokens in this contract Reverts if the index is greater or equal to the total number of tokens",
        "params": {
          "index": "uint256 representing the index to be accessed of the tokens list"
        },
        "returns": {
          "_0": "uint256 token ID at the given index of the tokens list"
        }
      },
      "tokenOfOwnerByIndex(address,uint256)": {
        "details": "Gets the token ID at a given index of the tokens list of the requested owner",
        "params": {
          "index": "uint256 representing the index to be accessed of the requested tokens list",
          "owner": "address owning the tokens list to be accessed"
        },
        "returns": {
          "_0": "uint256 token ID at the given index of the tokens list owned by the requested address"
        }
      },
      "totalSupply()": {
        "details": "Gets the total amount of tokens stored by the contract",
        "returns": {
          "_0": "uint256 representing the total amount of tokens"
        }
      }
    },
    "version": 1
  },
  "userdoc": {
    "kind": "user",
    "methods": {},
    "version": 1
  }
}