{
  "contractName": "ERC721Metadata",
  "abi": [
    {
      "inputs": [
        {
          "internalType": "string",
          "name": "_name",
          "type": "string"
        },
        {
          "internalType": "string",
          "name": "_symbol",
          "type": "string"
        },
        {
          "internalType": "string",
          "name": "_baseTokenURI",
          "type": "string"
        }
      ],
      "stateMutability": "nonpayable",
      "type": "constructor"
    },
    {
      "anonymous": false,
      "inputs": [
        {
          "indexed": true,
          "internalType": "address",
          "name": "owner",
          "type": "address"
        },
        {
          "indexed": true,
          "internalType": "address",
          "name": "approved",
          "type": "address"
        },
        {
          "indexed": true,
          "internalType": "uint256",
          "name": "tokenId",
          "type": "uint256"
        }
      ],
      "name": "Approval",
      "type": "event"
    },
    {
      "anonymous": false,
      "inputs": [
        {
          "indexed": true,
          "internalType": "address",
          "name": "owner",
          "type": "address"
        },
        {
          "indexed": true,
          "internalType": "address",
          "name": "operator",
          "type": "address"
        },
        {
          "indexed": false,
          "internalType": "bool",
          "name": "approved",
          "type": "bool"
        }
      ],
      "name": "ApprovalForAll",
      "type": "event"
    },
    {
      "anonymous": false,
      "inputs": [
        {
          "indexed": true,
          "internalType": "address",
          "name": "oldOnwer",
          "type": "address"
        },
        {
          "indexed": true,
          "internalType": "address",
          "name": "newOwner",
          "type": "address"
        }
      ],
      "name": "OwnerTransferred",
      "type": "event"
    },
    {
      "anonymous": false,
      "inputs": [
        {
          "indexed": true,
          "internalType": "address",
          "name": "trigger",
          "type": "address"
        }
      ],
      "name": "Paused",
      "type": "event"
    },
    {
      "anonymous": false,
      "inputs": [
        {
          "indexed": true,
          "internalType": "address",
          "name": "from",
          "type": "address"
        },
        {
          "indexed": true,
          "internalType": "address",
          "name": "to",
          "type": "address"
        },
        {
          "indexed": true,
          "internalType": "uint256",
          "name": "tokenId",
          "type": "uint256"
        }
      ],
      "name": "Transfer",
      "type": "event"
    },
    {
      "anonymous": false,
      "inputs": [
        {
          "indexed": true,
          "internalType": "address",
          "name": "trigger",
          "type": "address"
        }
      ],
      "name": "Unpaused",
      "type": "event"
    },
    {
      "inputs": [
        {
          "internalType": "address",
          "name": "to",
          "type": "address"
        },
        {
          "internalType": "uint256",
          "name": "tokenId",
          "type": "uint256"
        }
      ],
      "name": "approve",
      "outputs": [],
      "stateMutability": "nonpayable",
      "type": "function"
    },
    {
      "inputs": [
        {
          "internalType": "address",
          "name": "owner",
          "type": "address"
        }
      ],
      "name": "balanceOf",
      "outputs": [
        {
          "internalType": "uint256",
          "name": "",
          "type": "uint256"
        }
      ],
      "stateMutability": "view",
      "type": "function"
    },
    {
      "inputs": [],
      "name": "contractOwner",
      "outputs": [
        {
          "internalType": "address",
          "name": "",
          "type": "address"
        }
      ],
      "stateMutability": "view",
      "type": "function"
    },
    {
      "inputs": [
        {
          "internalType": "uint256",
          "name": "tokenId",
          "type": "uint256"
        }
      ],
      "name": "getApproved",
      "outputs": [
        {
          "internalType": "address",
          "name": "",
          "type": "address"
        }
      ],
      "stateMutability": "view",
      "type": "function"
    },
    {
      "inputs": [
        {
          "internalType": "address",
          "name": "owner",
          "type": "address"
        },
        {
          "internalType": "address",
          "name": "operator",
          "type": "address"
        }
      ],
      "name": "isApprovedForAll",
      "outputs": [
        {
          "internalType": "bool",
          "name": "",
          "type": "bool"
        }
      ],
      "stateMutability": "view",
      "type": "function"
    },
    {
      "inputs": [
        {
          "internalType": "uint256",
          "name": "tokenId",
          "type": "uint256"
        }
      ],
      "name": "ownerOf",
      "outputs": [
        {
          "internalType": "address",
          "name": "",
          "type": "address"
        }
      ],
      "stateMutability": "view",
      "type": "function"
    },
    {
      "inputs": [
        {
          "internalType": "address",
          "name": "from",
          "type": "address"
        },
        {
          "internalType": "address",
          "name": "to",
          "type": "address"
        },
        {
          "internalType": "uint256",
          "name": "tokenId",
          "type": "uint256"
        }
      ],
      "name": "safeTransferFrom",
      "outputs": [],
      "stateMutability": "nonpayable",
      "type": "function"
    },
    {
      "inputs": [
        {
          "internalType": "address",
          "name": "from",
          "type": "address"
        },
        {
          "internalType": "address",
          "name": "to",
          "type": "address"
        },
        {
          "internalType": "uint256",
          "name": "tokenId",
          "type": "uint256"
        },
        {
          "internalType": "bytes",
          "name": "_data",
          "type": "bytes"
        }
      ],
      "name": "safeTransferFrom",
      "outputs": [],
      "stateMutability": "nonpayable",
      "type": "function"
    },
    {
      "inputs": [
        {
          "internalType": "address",
          "name": "to",
          "type": "address"
        },
        {
          "internalType": "bool",
          "name": "approved",
          "type": "bool"
        }
      ],
      "name": "setApprovalForAll",
      "outputs": [],
      "stateMutability": "nonpayable",
      "type": "function"
    },
    {
      "inputs": [
        {
          "internalType": "bool",
          "name": "_paused",
          "type": "bool"
        }
      ],
      "name": "setPaused",
      "outputs": [],
      "stateMutability": "nonpayable",
      "type": "function"
    },
    {
      "inputs": [
        {
          "internalType": "bytes4",
          "name": "interfaceId",
          "type": "bytes4"
        }
      ],
      "name": "supportsInterface",
      "outputs": [
        {
          "internalType": "bool",
          "name": "",
          "type": "bool"
        }
      ],
      "stateMutability": "view",
      "type": "function"
    },
    {
      "inputs": [
        {
          "internalType": "uint256",
          "name": "index",
          "type": "uint256"
        }
      ],
      "name": "tokenByIndex",
      "outputs": [
        {
          "internalType": "uint256",
          "name": "",
          "type": "uint256"
        }
      ],
      "stateMutability": "view",
      "type": "function"
    },
    {
      "inputs": [
        {
          "internalType": "address",
          "name": "owner",
          "type": "address"
        },
        {
          "internalType": "uint256",
          "name": "index",
          "type": "uint256"
        }
      ],
      "name": "tokenOfOwnerByIndex",
      "outputs": [
        {
          "internalType": "uint256",
          "name": "",
          "type": "uint256"
        }
      ],
      "stateMutability": "view",
      "type": "function"
    },
    {
      "inputs": [],
      "name": "totalSupply",
      "outputs": [
        {
          "internalType": "uint256",
          "name": "",
          "type": "uint256"
        }
      ],
      "stateMutability": "view",
      "type": "function"
    },
    {
      "inputs": [
        {
          "internalType": "address",
          "name": "from",
          "type": "address"
        },
        {
          "internalType": "address",
          "name": "to",
          "type": "address"
        },
        {
          "internalType": "uint256",
          "name": "tokenId",
          "type": "uint256"
        }
      ],
      "name": "transferFrom",
      "outputs": [],
      "stateMutability": "nonpayable",
      "type": "function"
    },
    {
      "inputs": [
        {
          "internalType": "address",
          "name": "newOwner",
          "type": "address"
        }
      ],
      "name": "transferOwnership",
      "outputs": [],
      "stateMutability": "nonpayable",
      "type": "function"
    },
    {
      "inputs": [],
      "name": "name",
      "outputs": [
        {
          "internalType": "string",
          "name": "",
          "type": "string"
        }
      ],
      "stateMutability": "view",
      "type": "function"
    },
    {
      "inputs": [],
      "name": "symbol",
      "outputs": [
        {
          "internalType": "string",
          "name": "",
          "type": "string"
        }
      ],
      "stateMutability": "view",
      "type": "function"
    },
    {
      "inputs": [],
      "name": "baseTokenURI",
      "outputs": [
        {
          "internalType": "string",
          "name": "",
          "type": "string"
        }
      ],
      "stateMutability": "view",
      "type": "function"
    },
    {
      "inputs": [
        {
          "internalType": "uint256",
          "name": "tokenId",
          "type": "uint256"
        }
      ],
      "name": "tokenURI",
      "outputs": [
        {
          "internalType": "string",
          "name": "",
          "type": "string"
        }
      ],
      "stateMutability": "view",
      "type": "function"
    }
  ],
  "bytecode": "0x60806040523480156200001157600080fd5b5060405162003352380380620033528339818101604052810190620000379190620003ff565b336000806101000a81548173ffffffffffffffffffffffffffffffffffffffff021916908373ffffffffffffffffffffffffffffffffffffffff1602179055503373ffffffffffffffffffffffffffffffffffffffff16600073ffffffffffffffffffffffffffffffffffffffff167f8934ce4adea8d9ce0d714d2c22b86790e41b7731c84b926fbbdc1d40ff6533c960405160405180910390a360008060146101000a81548160ff021916908315150217905550620001046301ffc9a760e01b6200018b60201b60201c565b6200011c6380ac58cd60e01b6200018b60201b60201c565b6200013463780e9d6360e01b6200018b60201b60201c565b82600a908162000145919062000703565b5081600b908162000157919062000703565b5080600c908162000169919062000703565b5062000182635b5e139f60e01b6200018b60201b60201c565b5050506200086d565b63ffffffff60e01b817bffffffffffffffffffffffffffffffffffffffffffffffffffffffff191603620001f6576040517f08c379a0000000000000000000000000000000000000000000000000000000008152600401620001ed906200084b565b60405180910390fd5b6001806000837bffffffffffffffffffffffffffffffffffffffffffffffffffffffff19167bffffffffffffffffffffffffffffffffffffffffffffffffffffffff1916815260200190815260200160002060006101000a81548160ff02191690831515021790555050565b6000604051905090565b600080fd5b600080fd5b600080fd5b600080fd5b6000601f19601f8301169050919050565b7f4e487b7100000000000000000000000000000000000000000000000000000000600052604160045260246000fd5b620002cb8262000280565b810181811067ffffffffffffffff82111715620002ed57620002ec62000291565b5b80604052505050565b60006200030262000262565b9050620003108282620002c0565b919050565b600067ffffffffffffffff82111562000333576200033262000291565b5b6200033e8262000280565b9050602081019050919050565b60005b838110156200036b5780820151818401526020810190506200034e565b838111156200037b576000848401525b50505050565b600062000398620003928462000315565b620002f6565b905082815260208101848484011115620003b757620003b66200027b565b5b620003c48482856200034b565b509392505050565b600082601f830112620003e457620003e362000276565b5b8151620003f684826020860162000381565b91505092915050565b6000806000606084860312156200041b576200041a6200026c565b5b600084015167ffffffffffffffff8111156200043c576200043b62000271565b5b6200044a86828701620003cc565b935050602084015167ffffffffffffffff8111156200046e576200046d62000271565b5b6200047c86828701620003cc565b925050604084015167ffffffffffffffff811115620004a0576200049f62000271565b5b620004ae86828701620003cc565b9150509250925092565b600081519050919050565b7f4e487b7100000000000000000000000000000000000000000000000000000000600052602260045260246000fd5b600060028204905060018216806200050b57607f821691505b602082108103620005215762000520620004c3565b5b50919050565b60008190508160005260206000209050919050565b60006020601f8301049050919050565b600082821b905092915050565b6000600883026200058b7fffffffffffffffffffffffffffffffffffffffffffffffffffffffffffffffff826200054c565b6200059786836200054c565b95508019841693508086168417925050509392505050565b6000819050919050565b6000819050919050565b6000620005e4620005de620005d884620005af565b620005b9565b620005af565b9050919050565b6000819050919050565b6200060083620005c3565b620006186200060f82620005eb565b84845462000559565b825550505050565b600090565b6200062f62000620565b6200063c818484620005f5565b505050565b5b8181101562000664576200065860008262000625565b60018101905062000642565b5050565b601f821115620006b3576200067d8162000527565b62000688846200053c565b8101602085101562000698578190505b620006b0620006a7856200053c565b83018262000641565b50505b505050565b600082821c905092915050565b6000620006d860001984600802620006b8565b1980831691505092915050565b6000620006f38383620006c5565b9150826002028217905092915050565b6200070e82620004b8565b67ffffffffffffffff8111156200072a576200072962000291565b5b620007368254620004f2565b6200074382828562000668565b600060209050601f8311600181146200077b576000841562000766578287015190505b620007728582620006e5565b865550620007e2565b601f1984166200078b8662000527565b60005b82811015620007b5578489015182556001820191506020850194506020810190506200078e565b86831015620007d55784890151620007d1601f891682620006c5565b8355505b6001600288020188555050505b505050505050565b600082825260208201905092915050565b7f496e74657266616365206964206973206e6f7420307866660000000000000000600082015250565b600062000833601883620007ea565b91506200084082620007fb565b602082019050919050565b60006020820190508181036000830152620008668162000824565b9050919050565b612ad5806200087d6000396000f3fe608060405234801561001057600080fd5b506004361061012c5760003560e01c80636352211e116100ad578063c87b56dd11610071578063c87b56dd14610353578063ce606ee014610383578063d547cfb7146103a1578063e985e9c5146103bf578063f2fde38b146103ef5761012c565b80636352211e1461029d57806370a08231146102cd57806395d89b41146102fd578063a22cb4651461031b578063b88d4fde146103375761012c565b806318160ddd116100f457806318160ddd146101e757806323b872dd146102055780632f745c591461022157806342842e0e146102515780634f6ccce71461026d5761012c565b806301ffc9a71461013157806306fdde0314610161578063081812fc1461017f578063095ea7b3146101af57806316c38b3c146101cb575b600080fd5b61014b60048036038101906101469190611c7a565b61040b565b6040516101589190611cc2565b60405180910390f35b610169610473565b6040516101769190611d76565b60405180910390f35b61019960048036038101906101949190611dce565b610505565b6040516101a69190611e3c565b60405180910390f35b6101c960048036038101906101c49190611e83565b610542565b005b6101e560048036038101906101e09190611eef565b61074b565b005b6101ef610888565b6040516101fc9190611f2b565b60405180910390f35b61021f600480360381019061021a9190611f46565b610895565b005b61023b60048036038101906102369190611e83565b610944565b6040516102489190611f2b565b60405180910390f35b61026b60048036038101906102669190611f46565b6109f4565b005b61028760048036038101906102829190611dce565b610a6a565b6040516102949190611f2b565b60405180910390f35b6102b760048036038101906102b29190611dce565b610adb565b6040516102c49190611e3c565b60405180910390f35b6102e760048036038101906102e29190611f99565b610b18565b6040516102f49190611f2b565b60405180910390f35b610305610b68565b6040516103129190611d76565b60405180910390f35b61033560048036038101906103309190611fc6565b610bfa565b005b610351600480360381019061034c919061213b565b610dbb565b005b61036d60048036038101906103689190611dce565b610e6d565b60405161037a9190611d76565b60405180910390f35b61038b610f5a565b6040516103989190611e3c565b60405180910390f35b6103a9610f83565b6040516103b69190611d76565b60405180910390f35b6103d960048036038101906103d491906121be565b611015565b6040516103e69190611cc2565b60405180910390f35b61040960048036038101906104049190611f99565b6110a9565b005b600060016000837bffffffffffffffffffffffffffffffffffffffffffffffffffffffff19167bffffffffffffffffffffffffffffffffffffffffffffffffffffffff1916815260200190815260200160002060009054906101000a900460ff169050919050565b6060600a80546104829061222d565b80601f01602080910402602001604051908101604052809291908181526020018280546104ae9061222d565b80156104fb5780601f106104d0576101008083540402835291602001916104fb565b820191906000526020600020905b8154815290600101906020018083116104de57829003601f168201915b5050505050905090565b60006003600083815260200190815260200160002060009054906101000a900473ffffffffffffffffffffffffffffffffffffffff169050919050565b60001515600060149054906101000a900460ff16151514610598576040517f08c379a000000000000000000000000000000000000000000000000000000000815260040161058f906122aa565b60405180910390fd5b60006105a382610adb565b90508073ffffffffffffffffffffffffffffffffffffffff168373ffffffffffffffffffffffffffffffffffffffff1603610613576040517f08c379a000000000000000000000000000000000000000000000000000000000815260040161060a9061233c565b60405180910390fd5b61061b610f5a565b73ffffffffffffffffffffffffffffffffffffffff163373ffffffffffffffffffffffffffffffffffffffff16148061065a57506106598133611015565b5b610699576040517f08c379a0000000000000000000000000000000000000000000000000000000008152600401610690906123ce565b60405180910390fd5b336003600084815260200190815260200160002060006101000a81548173ffffffffffffffffffffffffffffffffffffffff021916908373ffffffffffffffffffffffffffffffffffffffff160217905550813373ffffffffffffffffffffffffffffffffffffffff168273ffffffffffffffffffffffffffffffffffffffff167f8c5be1e5ebec7d5bd14f71427d1e84f3dd0314c0f7b2291e5b200ac8c7c3b92560405160405180910390a4505050565b60008054906101000a900473ffffffffffffffffffffffffffffffffffffffff1673ffffffffffffffffffffffffffffffffffffffff163373ffffffffffffffffffffffffffffffffffffffff16146107d9576040517f08c379a00000000000000000000000000000000000000000000000000000000081526004016107d09061243a565b60405180910390fd5b80600060146101000a81548160ff0219169083151502179055508015610841573373ffffffffffffffffffffffffffffffffffffffff167f62e78cea01bee320cd4e420270b5ea74000d11b0c9f74754ebdbfc544b05a25860405160405180910390a2610885565b3373ffffffffffffffffffffffffffffffffffffffff167f5db9ee0a495bf2e6ff9c91a7834c1ba4fdd244a5e8aa4e537bd38aeae4b073aa60405160405180910390a25b50565b6000600880549050905090565b60001515600060149054906101000a900460ff161515146108eb576040517f08c379a00000000000000000000000000000000000000000000000000000000081526004016108e2906122aa565b60405180910390fd5b6108f5338261126a565b610934576040517f08c379a000000000000000000000000000000000000000000000000000000000815260040161092b906124cc565b60405180910390fd5b61093f8383836112ff565b505050565b600061094f83610b18565b8210610990576040517f08c379a00000000000000000000000000000000000000000000000000000000081526004016109879061255e565b60405180910390fd5b600660008473ffffffffffffffffffffffffffffffffffffffff1673ffffffffffffffffffffffffffffffffffffffff16815260200190815260200160002082815481106109e1576109e061257e565b5b9060005260206000200154905092915050565b60001515600060149054906101000a900460ff16151514610a4a576040517f08c379a0000000000000000000000000000000000000000000000000000000008152600401610a41906122aa565b60405180910390fd5b610a6583838360405180602001604052806000815250610dbb565b505050565b6000610a74610888565b8210610ab5576040517f08c379a0000000000000000000000000000000000000000000000000000000008152600401610aac9061261f565b60405180910390fd5b60088281548110610ac957610ac861257e565b5b90600052602060002001549050919050565b60006002600083815260200190815260200160002060009054906101000a900473ffffffffffffffffffffffffffffffffffffffff169050919050565b6000610b61600460008473ffffffffffffffffffffffffffffffffffffffff1673ffffffffffffffffffffffffffffffffffffffff168152602001908152602001600020611379565b9050919050565b6060600b8054610b779061222d565b80601f0160208091040260200160405190810160405280929190818152602001828054610ba39061222d565b8015610bf05780601f10610bc557610100808354040283529160200191610bf0565b820191906000526020600020905b815481529060010190602001808311610bd357829003601f168201915b5050505050905090565b60001515600060149054906101000a900460ff16151514610c50576040517f08c379a0000000000000000000000000000000000000000000000000000000008152600401610c47906122aa565b60405180910390fd5b3373ffffffffffffffffffffffffffffffffffffffff168273ffffffffffffffffffffffffffffffffffffffff1603610cbe576040517f08c379a0000000000000000000000000000000000000000000000000000000008152600401610cb59061268b565b60405180910390fd5b80600560003373ffffffffffffffffffffffffffffffffffffffff1673ffffffffffffffffffffffffffffffffffffffff16815260200190815260200160002060008473ffffffffffffffffffffffffffffffffffffffff1673ffffffffffffffffffffffffffffffffffffffff16815260200190815260200160002060006101000a81548160ff0219169083151502179055508173ffffffffffffffffffffffffffffffffffffffff163373ffffffffffffffffffffffffffffffffffffffff167f17307eab39ab6107e8899845ad3d59bd9653f200f220920489ca2b5937696c3183604051610daf9190611cc2565b60405180910390a35050565b60001515600060149054906101000a900460ff16151514610e11576040517f08c379a0000000000000000000000000000000000000000000000000000000008152600401610e08906122aa565b60405180910390fd5b610e1c848484610895565b610e2884848484611387565b610e67576040517f08c379a0000000000000000000000000000000000000000000000000000000008152600401610e5e906126f7565b60405180910390fd5b50505050565b6060610e788261148f565b610eb7576040517f08c379a0000000000000000000000000000000000000000000000000000000008152600401610eae90612763565b60405180910390fd5b600d60008381526020019081526020016000208054610ed59061222d565b80601f0160208091040260200160405190810160405280929190818152602001828054610f019061222d565b8015610f4e5780601f10610f2357610100808354040283529160200191610f4e565b820191906000526020600020905b815481529060010190602001808311610f3157829003601f168201915b50505050509050919050565b60008060009054906101000a900473ffffffffffffffffffffffffffffffffffffffff16905090565b6060600c8054610f929061222d565b80601f0160208091040260200160405190810160405280929190818152602001828054610fbe9061222d565b801561100b5780601f10610fe05761010080835404028352916020019161100b565b820191906000526020600020905b815481529060010190602001808311610fee57829003601f168201915b5050505050905090565b6000600560008473ffffffffffffffffffffffffffffffffffffffff1673ffffffffffffffffffffffffffffffffffffffff16815260200190815260200160002060008373ffffffffffffffffffffffffffffffffffffffff1673ffffffffffffffffffffffffffffffffffffffff16815260200190815260200160002060009054906101000a900460ff16905092915050565b60008054906101000a900473ffffffffffffffffffffffffffffffffffffffff1673ffffffffffffffffffffffffffffffffffffffff163373ffffffffffffffffffffffffffffffffffffffff1614611137576040517f08c379a000000000000000000000000000000000000000000000000000000000815260040161112e9061243a565b60405180910390fd5b600073ffffffffffffffffffffffffffffffffffffffff168173ffffffffffffffffffffffffffffffffffffffff16036111a6576040517f08c379a000000000000000000000000000000000000000000000000000000000815260040161119d906127f5565b60405180910390fd5b60008060009054906101000a900473ffffffffffffffffffffffffffffffffffffffff169050816000806101000a81548173ffffffffffffffffffffffffffffffffffffffff021916908373ffffffffffffffffffffffffffffffffffffffff1602179055508173ffffffffffffffffffffffffffffffffffffffff168173ffffffffffffffffffffffffffffffffffffffff167f8934ce4adea8d9ce0d714d2c22b86790e41b7731c84b926fbbdc1d40ff6533c960405160405180910390a35050565b60008061127683610adb565b90508073ffffffffffffffffffffffffffffffffffffffff168473ffffffffffffffffffffffffffffffffffffffff1614806112e557508373ffffffffffffffffffffffffffffffffffffffff166112cd84610505565b73ffffffffffffffffffffffffffffffffffffffff16145b806112f657506112f58185611015565b5b91505092915050565b60001515600060149054906101000a900460ff16151514611355576040517f08c379a000000000000000000000000000000000000000000000000000000000815260040161134c906122aa565b60405180910390fd5b6113608383836114d6565b61136a8382611785565b611374828261198b565b505050565b600081600001549050919050565b60006113a88473ffffffffffffffffffffffffffffffffffffffff16611aa5565b6113b55760019050611487565b60008473ffffffffffffffffffffffffffffffffffffffff1663150b7a02338887876040518563ffffffff1660e01b81526004016113f6949392919061286a565b6020604051808303816000875af1158015611415573d6000803e3d6000fd5b505050506040513d601f19601f8201168201806040525081019061143991906128cb565b905063150b7a0260e01b7bffffffffffffffffffffffffffffffffffffffffffffffffffffffff1916817bffffffffffffffffffffffffffffffffffffffffffffffffffffffff1916149150505b949350505050565b60008061149b83610adb565b9050600073ffffffffffffffffffffffffffffffffffffffff168173ffffffffffffffffffffffffffffffffffffffff161415915050919050565b60001515600060149054906101000a900460ff1615151461152c576040517f08c379a0000000000000000000000000000000000000000000000000000000008152600401611523906122aa565b60405180910390fd5b6002600082815260200190815260200160002060009054906101000a900473ffffffffffffffffffffffffffffffffffffffff1673ffffffffffffffffffffffffffffffffffffffff168373ffffffffffffffffffffffffffffffffffffffff16146115cd576040517f08c379a00000000000000000000000000000000000000000000000000000000081526004016115c490612944565b60405180910390fd5b600073ffffffffffffffffffffffffffffffffffffffff168273ffffffffffffffffffffffffffffffffffffffff160361163c576040517f08c379a0000000000000000000000000000000000000000000000000000000008152600401611633906129b0565b60405180910390fd5b61164581611ac8565b61168c600460008573ffffffffffffffffffffffffffffffffffffffff1673ffffffffffffffffffffffffffffffffffffffff168152602001908152602001600020611b86565b6116d3600460008473ffffffffffffffffffffffffffffffffffffffff1673ffffffffffffffffffffffffffffffffffffffff168152602001908152602001600020611be2565b816002600083815260200190815260200160002060006101000a81548173ffffffffffffffffffffffffffffffffffffffff021916908373ffffffffffffffffffffffffffffffffffffffff160217905550808273ffffffffffffffffffffffffffffffffffffffff168473ffffffffffffffffffffffffffffffffffffffff167fddf252ad1be2c89b69c2b068fc378daa952ba7f163c4a11628f55a4df523b3ef60405160405180910390a4505050565b60001515600060149054906101000a900460ff161515146117db576040517f08c379a00000000000000000000000000000000000000000000000000000000081526004016117d2906122aa565b60405180910390fd5b60006118336001600660008673ffffffffffffffffffffffffffffffffffffffff1673ffffffffffffffffffffffffffffffffffffffff16815260200190815260200160002080549050611bf890919063ffffffff16565b905060006007600084815260200190815260200160002054905081811461192e576000600660008673ffffffffffffffffffffffffffffffffffffffff1673ffffffffffffffffffffffffffffffffffffffff16815260200190815260200160002083815481106118a7576118a661257e565b5b9060005260206000200154905080600660008773ffffffffffffffffffffffffffffffffffffffff1673ffffffffffffffffffffffffffffffffffffffff16815260200190815260200160002083815481106119065761190561257e565b5b9060005260206000200181905550816007600083815260200190815260200160002081905550505b6119846001600660008773ffffffffffffffffffffffffffffffffffffffff1673ffffffffffffffffffffffffffffffffffffffff16815260200190815260200160002080549050611bf890919063ffffffff16565b5050505050565b60001515600060149054906101000a900460ff161515146119e1576040517f08c379a00000000000000000000000000000000000000000000000000000000081526004016119d8906122aa565b60405180910390fd5b600660008373ffffffffffffffffffffffffffffffffffffffff1673ffffffffffffffffffffffffffffffffffffffff168152602001908152602001600020805490506007600083815260200190815260200160002081905550600660008373ffffffffffffffffffffffffffffffffffffffff1673ffffffffffffffffffffffffffffffffffffffff1681526020019081526020016000208190806001815401808255809150506001900390600052602060002001600090919091909150555050565b6000808273ffffffffffffffffffffffffffffffffffffffff163b119050919050565b600073ffffffffffffffffffffffffffffffffffffffff166003600083815260200190815260200160002060009054906101000a900473ffffffffffffffffffffffffffffffffffffffff1673ffffffffffffffffffffffffffffffffffffffff1614611b835760006003600083815260200190815260200160002060006101000a81548173ffffffffffffffffffffffffffffffffffffffff021916908373ffffffffffffffffffffffffffffffffffffffff1602179055505b50565b60008160000154905060008111611bd2576040517f08c379a0000000000000000000000000000000000000000000000000000000008152600401611bc990612a1c565b60405180910390fd5b6001810382600001819055505050565b6001816000016000828254019250508190555050565b60008183611c069190612a6b565b905092915050565b6000604051905090565b600080fd5b600080fd5b60007fffffffff0000000000000000000000000000000000000000000000000000000082169050919050565b611c5781611c22565b8114611c6257600080fd5b50565b600081359050611c7481611c4e565b92915050565b600060208284031215611c9057611c8f611c18565b5b6000611c9e84828501611c65565b91505092915050565b60008115159050919050565b611cbc81611ca7565b82525050565b6000602082019050611cd76000830184611cb3565b92915050565b600081519050919050565b600082825260208201905092915050565b60005b83811015611d17578082015181840152602081019050611cfc565b83811115611d26576000848401525b50505050565b6000601f19601f8301169050919050565b6000611d4882611cdd565b611d528185611ce8565b9350611d62818560208601611cf9565b611d6b81611d2c565b840191505092915050565b60006020820190508181036000830152611d908184611d3d565b905092915050565b6000819050919050565b611dab81611d98565b8114611db657600080fd5b50565b600081359050611dc881611da2565b92915050565b600060208284031215611de457611de3611c18565b5b6000611df284828501611db9565b91505092915050565b600073ffffffffffffffffffffffffffffffffffffffff82169050919050565b6000611e2682611dfb565b9050919050565b611e3681611e1b565b82525050565b6000602082019050611e516000830184611e2d565b92915050565b611e6081611e1b565b8114611e6b57600080fd5b50565b600081359050611e7d81611e57565b92915050565b60008060408385031215611e9a57611e99611c18565b5b6000611ea885828601611e6e565b9250506020611eb985828601611db9565b9150509250929050565b611ecc81611ca7565b8114611ed757600080fd5b50565b600081359050611ee981611ec3565b92915050565b600060208284031215611f0557611f04611c18565b5b6000611f1384828501611eda565b91505092915050565b611f2581611d98565b82525050565b6000602082019050611f406000830184611f1c565b92915050565b600080600060608486031215611f5f57611f5e611c18565b5b6000611f6d86828701611e6e565b9350506020611f7e86828701611e6e565b9250506040611f8f86828701611db9565b9150509250925092565b600060208284031215611faf57611fae611c18565b5b6000611fbd84828501611e6e565b91505092915050565b60008060408385031215611fdd57611fdc611c18565b5b6000611feb85828601611e6e565b9250506020611ffc85828601611eda565b9150509250929050565b600080fd5b600080fd5b7f4e487b7100000000000000000000000000000000000000000000000000000000600052604160045260246000fd5b61204882611d2c565b810181811067ffffffffffffffff8211171561206757612066612010565b5b80604052505050565b600061207a611c0e565b9050612086828261203f565b919050565b600067ffffffffffffffff8211156120a6576120a5612010565b5b6120af82611d2c565b9050602081019050919050565b82818337600083830152505050565b60006120de6120d98461208b565b612070565b9050828152602081018484840111156120fa576120f961200b565b5b6121058482856120bc565b509392505050565b600082601f83011261212257612121612006565b5b81356121328482602086016120cb565b91505092915050565b6000806000806080858703121561215557612154611c18565b5b600061216387828801611e6e565b945050602061217487828801611e6e565b935050604061218587828801611db9565b925050606085013567ffffffffffffffff8111156121a6576121a5611c1d565b5b6121b28782880161210d565b91505092959194509250565b600080604083850312156121d5576121d4611c18565b5b60006121e385828601611e6e565b92505060206121f485828601611e6e565b9150509250929050565b7f4e487b7100000000000000000000000000000000000000000000000000000000600052602260045260246000fd5b6000600282049050600182168061224557607f821691505b602082108103612258576122576121fe565b5b50919050565b7f436f6e7472616374206973204e4f542070617573656400000000000000000000600082015250565b6000612294601683611ce8565b915061229f8261225e565b602082019050919050565b600060208201905081810360008301526122c381612287565b9050919050565b7f27546f2720416464726573732073686f756c6420626520646966666572656e7460008201527f2066726f6d20746865206f776e65720000000000000000000000000000000000602082015250565b6000612326602f83611ce8565b9150612331826122ca565b604082019050919050565b6000602082019050818103600083015261235581612319565b9050919050565b7f53656e646572206973206e6f7420436f6e7472616374206f776e6572206f722060008201527f6973206e6f7420617070726f7665640000000000000000000000000000000000602082015250565b60006123b8602f83611ce8565b91506123c38261235c565b604082019050919050565b600060208201905081810360008301526123e7816123ab565b9050919050565b7f4f6e6c7920636f6e7472616374206f776e65722063616e2063616c6c20697400600082015250565b6000612424601f83611ce8565b915061242f826123ee565b602082019050919050565b6000602082019050818103600083015261245381612417565b9050919050565b7f497320417070726f766564206f72206f776e65722072657475726e6564206e6f60008201527f7400000000000000000000000000000000000000000000000000000000000000602082015250565b60006124b6602183611ce8565b91506124c18261245a565b604082019050919050565b600060208201905081810360008301526124e5816124a9565b9050919050565b7f496e6465782073686f756c64206265206c657373207468616e2062616c616e6360008201527f656f660000000000000000000000000000000000000000000000000000000000602082015250565b6000612548602383611ce8565b9150612553826124ec565b604082019050919050565b600060208201905081810360008301526125778161253b565b9050919050565b7f4e487b7100000000000000000000000000000000000000000000000000000000600052603260045260246000fd5b7f696e6465782073686f756c64206265206c657373207468616e20546f74616c2060008201527f537570706c790000000000000000000000000000000000000000000000000000602082015250565b6000612609602683611ce8565b9150612614826125ad565b604082019050919050565b60006020820190508181036000830152612638816125fc565b9050919050565b7f53656e646572206973206e6f742074686520746f000000000000000000000000600082015250565b6000612675601483611ce8565b91506126808261263f565b602082019050919050565b600060208201905081810360008301526126a481612668565b9050919050565b7f436865636b206f6e204552433732312052656365697665640000000000000000600082015250565b60006126e1601883611ce8565b91506126ec826126ab565b602082019050919050565b60006020820190508181036000830152612710816126d4565b9050919050565b7f546f6b656e20646f6573206e6f74206578697374730000000000000000000000600082015250565b600061274d601583611ce8565b915061275882612717565b602082019050919050565b6000602082019050818103600083015261277c81612740565b9050919050565b7f4e6577206f776e6572206e65656420746f2062652061207265616c206164647260008201527f6573730000000000000000000000000000000000000000000000000000000000602082015250565b60006127df602383611ce8565b91506127ea82612783565b604082019050919050565b6000602082019050818103600083015261280e816127d2565b9050919050565b600081519050919050565b600082825260208201905092915050565b600061283c82612815565b6128468185612820565b9350612856818560208601611cf9565b61285f81611d2c565b840191505092915050565b600060808201905061287f6000830187611e2d565b61288c6020830186611e2d565b6128996040830185611f1c565b81810360608301526128ab8184612831565b905095945050505050565b6000815190506128c581611c4e565b92915050565b6000602082840312156128e1576128e0611c18565b5b60006128ef848285016128b6565b91505092915050565b7f46726f6d2073686f756c6420626520746f6b656e206f776e6572000000000000600082015250565b600061292e601a83611ce8565b9150612939826128f8565b602082019050919050565b6000602082019050818103600083015261295d81612921565b9050919050565b7f27546f272073686f756c642062652076616c6964206164647265737300000000600082015250565b600061299a601c83611ce8565b91506129a582612964565b602082019050919050565b600060208201905081810360008301526129c98161298d565b9050919050565b7f436f756e7465723a2064656372656d656e74206f766572666c6f770000000000600082015250565b6000612a06601b83611ce8565b9150612a11826129d0565b602082019050919050565b60006020820190508181036000830152612a35816129f9565b9050919050565b7f4e487b7100000000000000000000000000000000000000000000000000000000600052601160045260246000fd5b6000612a7682611d98565b9150612a8183611d98565b925082821015612a9457612a93612a3c565b5b82820390509291505056fea2646970667358221220815828a779ab302cf7c9b77060a28dc7c96f5b0eb0fa56a56f6d37dcea5ffc6a64736f6c634300080f0033",
  "immutableReferences": {},
  "source": "// SPDX-License-Identifier: MIT\npragma solidity >=0.8.0;\n\nimport \"@openzeppelin/contracts/utils/Address.sol\";\nimport \"@openzeppelin/contracts/utils/Counters.sol\";\nimport \"@openzeppelin/contracts/utils/math/SafeMath.sol\";\nimport \"@openzeppelin/contracts/utils/Strings.sol\";\nimport \"@openzeppelin/contracts/token/ERC721/IERC721Receiver.sol\";\n\ncontract Ownable {\n    // Storage variables\n    address private s_owner;\n\n    constructor() {\n        s_owner = msg.sender;\n        emit OwnerTransferred(address(0), msg.sender);\n    }\n\n    // Events ################################################\n    event OwnerTransferred(address indexed oldOnwer, address indexed newOwner);\n\n    // Modifiers #############################################\n    modifier onlyOwner() {\n        require(msg.sender == s_owner, \"Only contract owner can call it\");\n        _;\n    }\n\n    // Utility functions ####################################\n    function contractOwner() public view returns (address) {\n        return s_owner;\n    }\n\n    function transferOwnership(address newOwner) public onlyOwner {\n        require(newOwner != address(0), \"New owner need to be a real address\");\n        address oldOnwer = s_owner;\n        s_owner = newOwner;\n        emit OwnerTransferred(oldOnwer, newOwner);\n    }\n}\n\ncontract Pausable is Ownable {\n    // Storage variables\n    bool private s_paused;\n\n    constructor() {\n        s_paused = false;\n    }\n\n    event Paused(address indexed trigger);\n    event Unpaused(address indexed trigger);\n\n    // Modifiers #####################################\n\n    modifier whenNotPaused() {\n        require(s_paused == false, \"Contract is NOT paused\");\n        _;\n    }\n\n    modifier paused() {\n        require(s_paused == true, \"Contract is paused\");\n        _;\n    }\n\n    // functions\n\n    function setPaused(bool _paused) public onlyOwner {\n        s_paused = _paused;\n        if (_paused) {\n            emit Paused(msg.sender);\n        } else {\n            emit Unpaused(msg.sender);\n        }\n    }\n}\n\ncontract ERC165 {\n    bytes4 private constant _INTERFACE_ID_ERC165 = 0x01ffc9a7;\n    /*\n     * 0x01ffc9a7 ===\n     *     bytes4(keccak256('supportsInterface(bytes4)'))\n     */\n\n    /**\n     * @dev a mapping of interface id to whether or not it's supported\n     */\n    mapping(bytes4 => bool) private _supportedInterfaces;\n\n    /**\n     * @dev A contract implementing SupportsInterfaceWithLookup\n     * implement ERC165 itself\n     */\n    constructor() {\n        _registerInterface(_INTERFACE_ID_ERC165);\n    }\n\n    /**\n     * @dev implement supportsInterface(bytes4) using a lookup table\n     */\n    function supportsInterface(bytes4 interfaceId)\n        external\n        view\n        returns (bool)\n    {\n        return _supportedInterfaces[interfaceId];\n    }\n\n    /**\n     * @dev internal method for registering an interface\n     */\n    function _registerInterface(bytes4 interfaceId) internal {\n        require(interfaceId != 0xffffffff, \"Interface id is not 0xff\");\n        _supportedInterfaces[interfaceId] = true;\n    }\n}\n\ncontract ERC721 is Pausable, ERC165 {\n    event Transfer(\n        address indexed from,\n        address indexed to,\n        uint256 indexed tokenId\n    );\n\n    event Approval(\n        address indexed owner,\n        address indexed approved,\n        uint256 indexed tokenId\n    );\n\n    event ApprovalForAll(\n        address indexed owner,\n        address indexed operator,\n        bool approved\n    );\n\n    using SafeMath for uint256;\n    using Address for address;\n    using Counters for Counters.Counter;\n\n    // Equals to `bytes4(keccak256(\"onERC721Received(address,address,uint256,bytes)\"))`\n    // which can be also obtained as `IERC721Receiver(0).onERC721Received.selector`\n    bytes4 private constant _ERC721_RECEIVED = 0x150b7a02;\n\n    // Mapping from token ID to owner\n    mapping(uint256 => address) private _tokenOwner;\n\n    // Mapping from token ID to approved address\n    mapping(uint256 => address) private _tokenApprovals;\n\n    // Mapping from owner to number of owned token\n    mapping(address => Counters.Counter) private _ownedTokensCount;\n\n    // Mapping from owner to operator approvals\n    mapping(address => mapping(address => bool)) private _operatorApprovals;\n\n    bytes4 private constant _INTERFACE_ID_ERC721 = 0x80ac58cd;\n\n    constructor() {\n        // register the supported interfaces to conform to ERC721 via ERC165\n        _registerInterface(_INTERFACE_ID_ERC721);\n    }\n\n    function balanceOf(address owner) public view returns (uint256) {\n        return _ownedTokensCount[owner].current();\n    }\n\n    function ownerOf(uint256 tokenId) public view returns (address) {\n        return _tokenOwner[tokenId];\n    }\n\n    //    @dev Approves another address to transfer the given token ID\n    function approve(address to, uint256 tokenId) public whenNotPaused {\n        address _tokenOwnerAddress = ownerOf(tokenId);\n        require(\n            to != _tokenOwnerAddress,\n            \"'To' Address should be different from the owner\"\n        );\n        require(\n            msg.sender == contractOwner() ||\n                isApprovedForAll(_tokenOwnerAddress, msg.sender),\n            \"Sender is not Contract owner or is not approved\"\n        );\n\n        _tokenApprovals[tokenId] = msg.sender;\n        emit Approval(_tokenOwnerAddress, msg.sender, tokenId);\n    }\n\n    function getApproved(uint256 tokenId) public view returns (address) {\n        return _tokenApprovals[tokenId];\n    }\n\n    /**\n     * @dev Sets or unsets the approval of a given operator\n     * An operator is allowed to transfer all tokens of the sender on their behalf\n     * @param to operator address to set the approval\n     * @param approved representing the status of the approval to be set\n     */\n    function setApprovalForAll(address to, bool approved) public whenNotPaused {\n        require(to != msg.sender, \"Sender is not the to\");\n        _operatorApprovals[msg.sender][to] = approved;\n        emit ApprovalForAll(msg.sender, to, approved);\n    }\n\n    /**\n     * @dev Tells whether an operator is approved by a given owner\n     * @param owner owner address which you want to query the approval of\n     * @param operator operator address which you want to query the approval of\n     * @return bool whether the given operator is approved by the given owner\n     */\n    function isApprovedForAll(address owner, address operator)\n        public\n        view\n        returns (bool)\n    {\n        return _operatorApprovals[owner][operator];\n    }\n\n    function transferFrom(\n        address from,\n        address to,\n        uint256 tokenId\n    ) public whenNotPaused {\n        require(\n            _isApprovedOrOwner(msg.sender, tokenId),\n            \"Is Approved or owner returned not\"\n        );\n\n        _transferFrom(from, to, tokenId);\n    }\n\n    function safeTransferFrom(\n        address from,\n        address to,\n        uint256 tokenId\n    ) public whenNotPaused {\n        safeTransferFrom(from, to, tokenId, \"\");\n    }\n\n    function safeTransferFrom(\n        address from,\n        address to,\n        uint256 tokenId,\n        bytes memory _data\n    ) public whenNotPaused {\n        transferFrom(from, to, tokenId);\n        require(\n            _checkOnERC721Received(from, to, tokenId, _data),\n            \"Check on ERC721 Received\"\n        );\n    }\n\n    /**\n     * @dev Returns whether the specified token exists\n     * @param tokenId uint256 ID of the token to query the existence of\n     * @return bool whether the token exists\n     */\n    function _exists(uint256 tokenId) internal view returns (bool) {\n        address owner = ownerOf(tokenId);\n        return owner != address(0);\n    }\n\n    /**\n     * @dev Returns whether the given spender can transfer a given token ID\n     * @param spender address of the spender to query\n     * @param tokenId uint256 ID of the token to be transferred\n     * @return bool whether the msg.sender is approved for the given token ID,\n     * is an operator of the owner, or is the owner of the token\n     */\n    function _isApprovedOrOwner(address spender, uint256 tokenId)\n        internal\n        view\n        returns (bool)\n    {\n        address owner = ownerOf(tokenId);\n        return (spender == owner ||\n            getApproved(tokenId) == spender ||\n            isApprovedForAll(owner, spender));\n    }\n\n    // @dev Internal function to mint a new token\n    function _mint(address to, uint256 tokenId) internal virtual whenNotPaused {\n        require(to != address(0), \"Invalid address\");\n        require(_exists(tokenId) == false, \"Token Id already exists\");\n\n        _tokenOwner[tokenId] = to;\n        _ownedTokensCount[to].increment();\n\n        emit Transfer(address(0), to, tokenId);\n    }\n\n    // @dev Internal function to transfer ownership of a given token ID to another address.\n\n    function _transferFrom(\n        address from,\n        address to,\n        uint256 tokenId\n    ) internal virtual whenNotPaused {\n        require(from == _tokenOwner[tokenId], \"From should be token owner\");\n        require(to != address(0), \"'To' should be valid address\");\n\n        _clearApproval(tokenId);\n\n        _ownedTokensCount[from].decrement();\n        _ownedTokensCount[to].increment();\n\n        _tokenOwner[tokenId] = to;\n\n        emit Transfer(from, to, tokenId);\n    }\n\n    /**\n     * @dev Internal function to invoke `onERC721Received` on a target address\n     * The call is not executed if the target address is not a contract\n     * @param from address representing the previous owner of the given token ID\n     * @param to target address that will receive the tokens\n     * @param tokenId uint256 ID of the token to be transferred\n     * @param _data bytes optional data to send along with the call\n     * @return bool whether the call correctly returned the expected magic value\n     */\n    function _checkOnERC721Received(\n        address from,\n        address to,\n        uint256 tokenId,\n        bytes memory _data\n    ) internal returns (bool) {\n        if (!to.isContract()) {\n            return true;\n        }\n\n        bytes4 retval = IERC721Receiver(to).onERC721Received(\n            msg.sender,\n            from,\n            tokenId,\n            _data\n        );\n        return (retval == _ERC721_RECEIVED);\n    }\n\n    // @dev Private function to clear current approval of a given token ID\n    function _clearApproval(uint256 tokenId) private {\n        if (_tokenApprovals[tokenId] != address(0)) {\n            _tokenApprovals[tokenId] = address(0);\n        }\n    }\n}\n\ncontract ERC721Enumerable is ERC165, ERC721 {\n    using SafeMath for uint256;\n\n    // Mapping from owner to list of owned token IDs\n    mapping(address => uint256[]) private _ownedTokens;\n\n    // Mapping from token ID to index of the owner tokens list\n    mapping(uint256 => uint256) private _ownedTokensIndex;\n\n    // Array with all token ids, used for enumeration\n    uint256[] private _allTokens;\n\n    // Mapping from token id to position in the allTokens array\n    mapping(uint256 => uint256) private _allTokensIndex;\n\n    bytes4 private constant _INTERFACE_ID_ERC721_ENUMERABLE = 0x780e9d63;\n\n    /*\n     * 0x780e9d63 ===\n     *     bytes4(keccak256('totalSupply()')) ^\n     *     bytes4(keccak256('tokenOfOwnerByIndex(address,uint256)')) ^\n     *     bytes4(keccak256('tokenByIndex(uint256)'))\n     */\n\n    /**\n     * @dev Constructor function\n     */\n    constructor() {\n        // register the supported interface to conform to ERC721Enumerable via ERC165\n        _registerInterface(_INTERFACE_ID_ERC721_ENUMERABLE);\n    }\n\n    /**\n     * @dev Gets the token ID at a given index of the tokens list of the requested owner\n     * @param owner address owning the tokens list to be accessed\n     * @param index uint256 representing the index to be accessed of the requested tokens list\n     * @return uint256 token ID at the given index of the tokens list owned by the requested address\n     */\n    function tokenOfOwnerByIndex(address owner, uint256 index)\n        public\n        view\n        returns (uint256)\n    {\n        require(\n            index < balanceOf(owner),\n            \"Index should be less than balanceof\"\n        );\n        return _ownedTokens[owner][index];\n    }\n\n    /**\n     * @dev Gets the total amount of tokens stored by the contract\n     * @return uint256 representing the total amount of tokens\n     */\n    function totalSupply() public view returns (uint256) {\n        return _allTokens.length;\n    }\n\n    /**\n     * @dev Gets the token ID at a given index of all the tokens in this contract\n     * Reverts if the index is greater or equal to the total number of tokens\n     * @param index uint256 representing the index to be accessed of the tokens list\n     * @return uint256 token ID at the given index of the tokens list\n     */\n    function tokenByIndex(uint256 index) public view returns (uint256) {\n        require(\n            index < totalSupply(),\n            \"index should be less than Total Supply\"\n        );\n        return _allTokens[index];\n    }\n\n    /**\n     * @dev Internal function to transfer ownership of a given token ID to another address.\n     * As opposed to transferFrom, this imposes no restrictions on msg.sender.\n     * @param from current owner of the token\n     * @param to address to receive the ownership of the given token ID\n     * @param tokenId uint256 ID of the token to be transferred\n     */\n    function _transferFrom(\n        address from,\n        address to,\n        uint256 tokenId\n    ) internal override whenNotPaused {\n        super._transferFrom(from, to, tokenId);\n\n        _removeTokenFromOwnerEnumeration(from, tokenId);\n\n        _addTokenToOwnerEnumeration(to, tokenId);\n    }\n\n    /**\n     * @dev Internal function to mint a new token\n     * Reverts if the given token ID already exists\n     * @param to address the beneficiary that will own the minted token\n     * @param tokenId uint256 ID of the token to be minted\n     */\n    function _mint(address to, uint256 tokenId)\n        internal\n        override\n        whenNotPaused\n    {\n        super._mint(to, tokenId);\n\n        _addTokenToOwnerEnumeration(to, tokenId);\n\n        _addTokenToAllTokensEnumeration(tokenId);\n    }\n\n    /**\n     * @dev Gets the list of token IDs of the requested owner\n     * @param owner address owning the tokens\n     * @return uint256[] List of token IDs owned by the requested address\n     */\n    function _tokensOfOwner(address owner)\n        internal\n        view\n        returns (uint256[] storage)\n    {\n        return _ownedTokens[owner];\n    }\n\n    /**\n     * @dev Private function to add a token to this extension's ownership-tracking data structures.\n     * @param to address representing the new owner of the given token ID\n     * @param tokenId uint256 ID of the token to be added to the tokens list of the given address\n     */\n    function _addTokenToOwnerEnumeration(address to, uint256 tokenId)\n        private\n        whenNotPaused\n    {\n        _ownedTokensIndex[tokenId] = _ownedTokens[to].length;\n        _ownedTokens[to].push(tokenId);\n    }\n\n    /**\n     * @dev Private function to add a token to this extension's token tracking data structures.\n     * @param tokenId uint256 ID of the token to be added to the tokens list\n     */\n    function _addTokenToAllTokensEnumeration(uint256 tokenId)\n        private\n        whenNotPaused\n    {\n        _allTokensIndex[tokenId] = _allTokens.length;\n        _allTokens.push(tokenId);\n    }\n\n    /**\n     * @dev Private function to remove a token from this extension's ownership-tracking data structures. Note that\n     * while the token is not assigned a new owner, the _ownedTokensIndex mapping is _not_ updated: this allows for\n     * gas optimizations e.g. when performing a transfer operation (avoiding double writes).\n     * This has O(1) time complexity, but alters the order of the _ownedTokens array.\n     * @param from address representing the previous owner of the given token ID\n     * @param tokenId uint256 ID of the token to be removed from the tokens list of the given address\n     */\n    function _removeTokenFromOwnerEnumeration(address from, uint256 tokenId)\n        private\n        whenNotPaused\n    {\n        // To prevent a gap in from's tokens array, we store the last token in the index of the token to delete, and\n        // then delete the last slot (swap and pop).\n\n        uint256 lastTokenIndex = _ownedTokens[from].length.sub(1);\n        uint256 tokenIndex = _ownedTokensIndex[tokenId];\n\n        // When the token to delete is the last token, the swap operation is unnecessary\n        if (tokenIndex != lastTokenIndex) {\n            uint256 lastTokenId = _ownedTokens[from][lastTokenIndex];\n\n            _ownedTokens[from][tokenIndex] = lastTokenId; // Move the last token to the slot of the to-delete token\n            _ownedTokensIndex[lastTokenId] = tokenIndex; // Update the moved token's index\n        }\n\n        // This also deletes the contents at the last position of the array\n        _ownedTokens[from].length.sub(1);\n\n        // Note that _ownedTokensIndex[tokenId] hasn't been cleared: it still points to the old slot (now occupied by\n        // lastTokenId, or just over the end of the array if the token was the last one).\n    }\n\n    /**\n     * @dev Private function to remove a token from this extension's token tracking data structures.\n     * This has O(1) time complexity, but alters the order of the _allTokens array.\n     * @param tokenId uint256 ID of the token to be removed from the tokens list\n     */\n    function _removeTokenFromAllTokensEnumeration(uint256 tokenId)\n        private\n        whenNotPaused\n    {\n        // To prevent a gap in the tokens array, we store the last token in the index of the token to delete, and\n        // then delete the last slot (swap and pop).\n\n        uint256 lastTokenIndex = _allTokens.length.sub(1);\n        uint256 tokenIndex = _allTokensIndex[tokenId];\n\n        // When the token to delete is the last token, the swap operation is unnecessary. However, since this occurs so\n        // rarely (when the last minted token is burnt) that we still do the swap here to avoid the gas cost of adding\n        // an 'if' statement (like in _removeTokenFromOwnerEnumeration)\n        uint256 lastTokenId = _allTokens[lastTokenIndex];\n\n        _allTokens[tokenIndex] = lastTokenId; // Move the last token to the slot of the to-delete token\n        _allTokensIndex[lastTokenId] = tokenIndex; // Update the moved token's index\n\n        // This also deletes the contents at the last position of the array\n        _allTokens.length.sub(1);\n        _allTokensIndex[tokenId] = 0;\n    }\n}\n\ncontract ERC721Metadata is ERC721Enumerable {\n    string private s_name;\n    string private s_symbol;\n    string private s_baseTokenURI;\n\n    mapping(uint256 => string) _tokenURIs;\n\n    bytes4 private constant _INTERFACE_ID_ERC721_METADATA = 0x5b5e139f;\n\n    /*\n     * 0x5b5e139f ===\n     *     bytes4(keccak256('name()')) ^\n     *     bytes4(keccak256('symbol()')) ^\n     *     bytes4(keccak256('tokenURI(uint256)'))\n     */\n\n    constructor(\n        string memory _name,\n        string memory _symbol,\n        string memory _baseTokenURI\n    ) {\n        // TODO: set instance var values\n        s_name = _name;\n        s_symbol = _symbol;\n        s_baseTokenURI = _baseTokenURI;\n\n        _registerInterface(_INTERFACE_ID_ERC721_METADATA);\n    }\n\n    // TODO: create external getter functions for name, symbol, and baseTokenURI\n\n    function name() public view returns (string memory) {\n        return s_name;\n    }\n\n    function symbol() public view returns (string memory) {\n        return s_symbol;\n    }\n\n    function baseTokenURI() public view returns (string memory) {\n        return s_baseTokenURI;\n    }\n\n    function tokenURI(uint256 tokenId) external view returns (string memory) {\n        require(_exists(tokenId), \"Token does not exists\");\n        return _tokenURIs[tokenId];\n    }\n\n    function setTokenURI(uint256 tokenId) internal whenNotPaused {\n        require(_exists(tokenId), \"Token does not exists\");\n        _tokenURIs[tokenId] = string(\n            bytes.concat(\n                bytes(s_baseTokenURI),\n                bytes(Strings.toString(tokenId))\n            )\n        );\n    }\n}\n\ncontract ERC721Mintable is ERC721Metadata {\n    constructor()\n        ERC721Metadata(\n            \"Real Estate\",\n            \"RENFT\",\n            \"https://s3-us-west-2.amazonaws.com/udacity-blockchain/capstone/\"\n        )\n    {}\n\n    function mint(address to, uint256 tokenId)\n        public\n        onlyOwner\n        whenNotPaused\n        returns (bool)\n    {\n        super._mint(to, tokenId);\n        super.setTokenURI(tokenId);\n        return true;\n    }\n}\n",
  "sourcePath": "/home/rafamessias/Documents/udacity/Ethereum/real-estate-marketplace/contracts/ERC721Mintable.sol",
  "compiler": {
    "name": "solc",
    "version": "0.8.15+commit.e14f2714.Emscripten.clang"
  },
  "schemaVersion": "3.4.10",
  "updatedAt": "2022-09-26T01:16:12.913Z",
  "devdoc": {
    "kind": "dev",
    "methods": {
      "isApprovedForAll(address,address)": {
        "details": "Tells whether an operator is approved by a given owner",
        "params": {
          "operator": "operator address which you want to query the approval of",
          "owner": "owner address which you want to query the approval of"
        },
        "returns": {
          "_0": "bool whether the given operator is approved by the given owner"
        }
      },
      "setApprovalForAll(address,bool)": {
        "details": "Sets or unsets the approval of a given operator An operator is allowed to transfer all tokens of the sender on their behalf",
        "params": {
          "approved": "representing the status of the approval to be set",
          "to": "operator address to set the approval"
        }
      },
      "supportsInterface(bytes4)": {
        "details": "implement supportsInterface(bytes4) using a lookup table"
      },
      "tokenByIndex(uint256)": {
        "details": "Gets the token ID at a given index of all the tokens in this contract Reverts if the index is greater or equal to the total number of tokens",
        "params": {
          "index": "uint256 representing the index to be accessed of the tokens list"
        },
        "returns": {
          "_0": "uint256 token ID at the given index of the tokens list"
        }
      },
      "tokenOfOwnerByIndex(address,uint256)": {
        "details": "Gets the token ID at a given index of the tokens list of the requested owner",
        "params": {
          "index": "uint256 representing the index to be accessed of the requested tokens list",
          "owner": "address owning the tokens list to be accessed"
        },
        "returns": {
          "_0": "uint256 token ID at the given index of the tokens list owned by the requested address"
        }
      },
      "totalSupply()": {
        "details": "Gets the total amount of tokens stored by the contract",
        "returns": {
          "_0": "uint256 representing the total amount of tokens"
        }
      }
    },
    "version": 1
  },
  "userdoc": {
    "kind": "user",
    "methods": {},
    "version": 1
  }
}