{
  "contractName": "SolnSquareVerifier",
  "abi": [
    {
      "anonymous": false,
      "inputs": [
        {
          "indexed": true,
          "internalType": "address",
          "name": "owner",
          "type": "address"
        },
        {
          "indexed": true,
          "internalType": "address",
          "name": "approved",
          "type": "address"
        },
        {
          "indexed": true,
          "internalType": "uint256",
          "name": "tokenId",
          "type": "uint256"
        }
      ],
      "name": "Approval",
      "type": "event"
    },
    {
      "anonymous": false,
      "inputs": [
        {
          "indexed": true,
          "internalType": "address",
          "name": "owner",
          "type": "address"
        },
        {
          "indexed": true,
          "internalType": "address",
          "name": "operator",
          "type": "address"
        },
        {
          "indexed": false,
          "internalType": "bool",
          "name": "approved",
          "type": "bool"
        }
      ],
      "name": "ApprovalForAll",
      "type": "event"
    },
    {
      "anonymous": false,
      "inputs": [
        {
          "indexed": true,
          "internalType": "address",
          "name": "oldOnwer",
          "type": "address"
        },
        {
          "indexed": true,
          "internalType": "address",
          "name": "newOwner",
          "type": "address"
        }
      ],
      "name": "OwnerTransferred",
      "type": "event"
    },
    {
      "anonymous": false,
      "inputs": [
        {
          "indexed": true,
          "internalType": "address",
          "name": "trigger",
          "type": "address"
        }
      ],
      "name": "Paused",
      "type": "event"
    },
    {
      "anonymous": false,
      "inputs": [
        {
          "indexed": true,
          "internalType": "uint256",
          "name": "solution",
          "type": "uint256"
        }
      ],
      "name": "SolutionAdded",
      "type": "event"
    },
    {
      "anonymous": false,
      "inputs": [
        {
          "indexed": true,
          "internalType": "address",
          "name": "from",
          "type": "address"
        },
        {
          "indexed": true,
          "internalType": "address",
          "name": "to",
          "type": "address"
        },
        {
          "indexed": true,
          "internalType": "uint256",
          "name": "tokenId",
          "type": "uint256"
        }
      ],
      "name": "Transfer",
      "type": "event"
    },
    {
      "anonymous": false,
      "inputs": [
        {
          "indexed": true,
          "internalType": "address",
          "name": "trigger",
          "type": "address"
        }
      ],
      "name": "Unpaused",
      "type": "event"
    },
    {
      "inputs": [
        {
          "internalType": "address",
          "name": "to",
          "type": "address"
        },
        {
          "internalType": "uint256",
          "name": "tokenId",
          "type": "uint256"
        }
      ],
      "name": "approve",
      "outputs": [],
      "stateMutability": "nonpayable",
      "type": "function"
    },
    {
      "inputs": [
        {
          "internalType": "address",
          "name": "owner",
          "type": "address"
        }
      ],
      "name": "balanceOf",
      "outputs": [
        {
          "internalType": "uint256",
          "name": "",
          "type": "uint256"
        }
      ],
      "stateMutability": "view",
      "type": "function"
    },
    {
      "inputs": [],
      "name": "contractOwner",
      "outputs": [
        {
          "internalType": "address",
          "name": "",
          "type": "address"
        }
      ],
      "stateMutability": "view",
      "type": "function"
    },
    {
      "inputs": [
        {
          "internalType": "uint256",
          "name": "tokenId",
          "type": "uint256"
        }
      ],
      "name": "getApproved",
      "outputs": [
        {
          "internalType": "address",
          "name": "",
          "type": "address"
        }
      ],
      "stateMutability": "view",
      "type": "function"
    },
    {
      "inputs": [],
      "name": "getBaseTokenURI",
      "outputs": [
        {
          "internalType": "string",
          "name": "",
          "type": "string"
        }
      ],
      "stateMutability": "view",
      "type": "function"
    },
    {
      "inputs": [],
      "name": "getName",
      "outputs": [
        {
          "internalType": "string",
          "name": "",
          "type": "string"
        }
      ],
      "stateMutability": "view",
      "type": "function"
    },
    {
      "inputs": [],
      "name": "getSymbol",
      "outputs": [
        {
          "internalType": "string",
          "name": "",
          "type": "string"
        }
      ],
      "stateMutability": "view",
      "type": "function"
    },
    {
      "inputs": [
        {
          "internalType": "uint256",
          "name": "tokenId",
          "type": "uint256"
        }
      ],
      "name": "getTokenURI",
      "outputs": [
        {
          "internalType": "string",
          "name": "",
          "type": "string"
        }
      ],
      "stateMutability": "view",
      "type": "function"
    },
    {
      "inputs": [
        {
          "internalType": "address",
          "name": "owner",
          "type": "address"
        },
        {
          "internalType": "address",
          "name": "operator",
          "type": "address"
        }
      ],
      "name": "isApprovedForAll",
      "outputs": [
        {
          "internalType": "bool",
          "name": "",
          "type": "bool"
        }
      ],
      "stateMutability": "view",
      "type": "function"
    },
    {
      "inputs": [
        {
          "internalType": "address",
          "name": "to",
          "type": "address"
        },
        {
          "internalType": "uint256",
          "name": "tokenId",
          "type": "uint256"
        }
      ],
      "name": "mint",
      "outputs": [
        {
          "internalType": "bool",
          "name": "",
          "type": "bool"
        }
      ],
      "stateMutability": "nonpayable",
      "type": "function"
    },
    {
      "inputs": [
        {
          "internalType": "uint256",
          "name": "tokenId",
          "type": "uint256"
        }
      ],
      "name": "ownerOf",
      "outputs": [
        {
          "internalType": "address",
          "name": "",
          "type": "address"
        }
      ],
      "stateMutability": "view",
      "type": "function"
    },
    {
      "inputs": [
        {
          "internalType": "address",
          "name": "from",
          "type": "address"
        },
        {
          "internalType": "address",
          "name": "to",
          "type": "address"
        },
        {
          "internalType": "uint256",
          "name": "tokenId",
          "type": "uint256"
        }
      ],
      "name": "safeTransferFrom",
      "outputs": [],
      "stateMutability": "nonpayable",
      "type": "function"
    },
    {
      "inputs": [
        {
          "internalType": "address",
          "name": "from",
          "type": "address"
        },
        {
          "internalType": "address",
          "name": "to",
          "type": "address"
        },
        {
          "internalType": "uint256",
          "name": "tokenId",
          "type": "uint256"
        },
        {
          "internalType": "bytes",
          "name": "_data",
          "type": "bytes"
        }
      ],
      "name": "safeTransferFrom",
      "outputs": [],
      "stateMutability": "nonpayable",
      "type": "function"
    },
    {
      "inputs": [
        {
          "internalType": "address",
          "name": "to",
          "type": "address"
        },
        {
          "internalType": "bool",
          "name": "approved",
          "type": "bool"
        }
      ],
      "name": "setApprovalForAll",
      "outputs": [],
      "stateMutability": "nonpayable",
      "type": "function"
    },
    {
      "inputs": [
        {
          "internalType": "bool",
          "name": "_paused",
          "type": "bool"
        }
      ],
      "name": "setPaused",
      "outputs": [],
      "stateMutability": "nonpayable",
      "type": "function"
    },
    {
      "inputs": [
        {
          "internalType": "bytes4",
          "name": "interfaceId",
          "type": "bytes4"
        }
      ],
      "name": "supportsInterface",
      "outputs": [
        {
          "internalType": "bool",
          "name": "",
          "type": "bool"
        }
      ],
      "stateMutability": "view",
      "type": "function"
    },
    {
      "inputs": [
        {
          "internalType": "uint256",
          "name": "index",
          "type": "uint256"
        }
      ],
      "name": "tokenByIndex",
      "outputs": [
        {
          "internalType": "uint256",
          "name": "",
          "type": "uint256"
        }
      ],
      "stateMutability": "view",
      "type": "function"
    },
    {
      "inputs": [
        {
          "internalType": "address",
          "name": "owner",
          "type": "address"
        },
        {
          "internalType": "uint256",
          "name": "index",
          "type": "uint256"
        }
      ],
      "name": "tokenOfOwnerByIndex",
      "outputs": [
        {
          "internalType": "uint256",
          "name": "",
          "type": "uint256"
        }
      ],
      "stateMutability": "view",
      "type": "function"
    },
    {
      "inputs": [],
      "name": "totalSupply",
      "outputs": [
        {
          "internalType": "uint256",
          "name": "",
          "type": "uint256"
        }
      ],
      "stateMutability": "view",
      "type": "function"
    },
    {
      "inputs": [
        {
          "internalType": "address",
          "name": "from",
          "type": "address"
        },
        {
          "internalType": "address",
          "name": "to",
          "type": "address"
        },
        {
          "internalType": "uint256",
          "name": "tokenId",
          "type": "uint256"
        }
      ],
      "name": "transferFrom",
      "outputs": [],
      "stateMutability": "nonpayable",
      "type": "function"
    },
    {
      "inputs": [
        {
          "internalType": "address",
          "name": "newOwner",
          "type": "address"
        }
      ],
      "name": "transferOwnership",
      "outputs": [],
      "stateMutability": "nonpayable",
      "type": "function"
    },
    {
      "inputs": [
        {
          "components": [
            {
              "components": [
                {
                  "internalType": "uint256",
                  "name": "X",
                  "type": "uint256"
                },
                {
                  "internalType": "uint256",
                  "name": "Y",
                  "type": "uint256"
                }
              ],
              "internalType": "struct Pairing.G1Point",
              "name": "a",
              "type": "tuple"
            },
            {
              "components": [
                {
                  "internalType": "uint256[2]",
                  "name": "X",
                  "type": "uint256[2]"
                },
                {
                  "internalType": "uint256[2]",
                  "name": "Y",
                  "type": "uint256[2]"
                }
              ],
              "internalType": "struct Pairing.G2Point",
              "name": "b",
              "type": "tuple"
            },
            {
              "components": [
                {
                  "internalType": "uint256",
                  "name": "X",
                  "type": "uint256"
                },
                {
                  "internalType": "uint256",
                  "name": "Y",
                  "type": "uint256"
                }
              ],
              "internalType": "struct Pairing.G1Point",
              "name": "c",
              "type": "tuple"
            }
          ],
          "internalType": "struct Verifier.Proof",
          "name": "proof",
          "type": "tuple"
        },
        {
          "internalType": "uint256[2]",
          "name": "input",
          "type": "uint256[2]"
        }
      ],
      "name": "verifyTx",
      "outputs": [
        {
          "internalType": "bool",
          "name": "r",
          "type": "bool"
        }
      ],
      "stateMutability": "view",
      "type": "function"
    },
    {
      "inputs": [
        {
          "internalType": "address",
          "name": "to",
          "type": "address"
        },
        {
          "internalType": "uint256",
          "name": "tokenId",
          "type": "uint256"
        }
      ],
      "name": "mintAfterVerification",
      "outputs": [],
      "stateMutability": "nonpayable",
      "type": "function"
    },
    {
      "inputs": [
        {
          "components": [
            {
              "components": [
                {
                  "internalType": "uint256",
                  "name": "X",
                  "type": "uint256"
                },
                {
                  "internalType": "uint256",
                  "name": "Y",
                  "type": "uint256"
                }
              ],
              "internalType": "struct Pairing.G1Point",
              "name": "a",
              "type": "tuple"
            },
            {
              "components": [
                {
                  "internalType": "uint256[2]",
                  "name": "X",
                  "type": "uint256[2]"
                },
                {
                  "internalType": "uint256[2]",
                  "name": "Y",
                  "type": "uint256[2]"
                }
              ],
              "internalType": "struct Pairing.G2Point",
              "name": "b",
              "type": "tuple"
            },
            {
              "components": [
                {
                  "internalType": "uint256",
                  "name": "X",
                  "type": "uint256"
                },
                {
                  "internalType": "uint256",
                  "name": "Y",
                  "type": "uint256"
                }
              ],
              "internalType": "struct Pairing.G1Point",
              "name": "c",
              "type": "tuple"
            }
          ],
          "internalType": "struct Verifier.Proof",
          "name": "proof",
          "type": "tuple"
        },
        {
          "internalType": "uint256[2]",
          "name": "input",
          "type": "uint256[2]"
        }
      ],
      "name": "zkVerify",
      "outputs": [
        {
          "internalType": "bool",
          "name": "",
          "type": "bool"
        }
      ],
      "stateMutability": "view",
      "type": "function"
    }
  ],
  "bytecode": "0x60806040523480156200001157600080fd5b506040518060400160405280600b81526020017f5265616c204573746174650000000000000000000000000000000000000000008152506040518060400160405280600581526020017f52454e46540000000000000000000000000000000000000000000000000000008152506040518060600160405280603f8152602001620044d1603f9139336000806101000a81548173ffffffffffffffffffffffffffffffffffffffff021916908373ffffffffffffffffffffffffffffffffffffffff1602179055503373ffffffffffffffffffffffffffffffffffffffff16600073ffffffffffffffffffffffffffffffffffffffff167f8934ce4adea8d9ce0d714d2c22b86790e41b7731c84b926fbbdc1d40ff6533c960405160405180910390a360008060146101000a81548160ff021916908315150217905550620001656301ffc9a760e01b620001ec60201b60201c565b6200017d6380ac58cd60e01b620001ec60201b60201c565b6200019563780e9d6360e01b620001ec60201b60201c565b82600a9081620001a6919062000505565b5081600b9081620001b8919062000505565b5080600c9081620001ca919062000505565b50620001e3635b5e139f60e01b620001ec60201b60201c565b505050620005ec565b63ffffffff60e01b817bffffffffffffffffffffffffffffffffffffffffffffffffffffffff1916036200021f57600080fd5b6001806000837bffffffffffffffffffffffffffffffffffffffffffffffffffffffff19167bffffffffffffffffffffffffffffffffffffffffffffffffffffffff1916815260200190815260200160002060006101000a81548160ff02191690831515021790555050565b600081519050919050565b7f4e487b7100000000000000000000000000000000000000000000000000000000600052604160045260246000fd5b7f4e487b7100000000000000000000000000000000000000000000000000000000600052602260045260246000fd5b600060028204905060018216806200030d57607f821691505b602082108103620003235762000322620002c5565b5b50919050565b60008190508160005260206000209050919050565b60006020601f8301049050919050565b600082821b905092915050565b6000600883026200038d7fffffffffffffffffffffffffffffffffffffffffffffffffffffffffffffffff826200034e565b6200039986836200034e565b95508019841693508086168417925050509392505050565b6000819050919050565b6000819050919050565b6000620003e6620003e0620003da84620003b1565b620003bb565b620003b1565b9050919050565b6000819050919050565b6200040283620003c5565b6200041a6200041182620003ed565b8484546200035b565b825550505050565b600090565b6200043162000422565b6200043e818484620003f7565b505050565b5b8181101562000466576200045a60008262000427565b60018101905062000444565b5050565b601f821115620004b5576200047f8162000329565b6200048a846200033e565b810160208510156200049a578190505b620004b2620004a9856200033e565b83018262000443565b50505b505050565b600082821c905092915050565b6000620004da60001984600802620004ba565b1980831691505092915050565b6000620004f58383620004c7565b9150826002028217905092915050565b62000510826200028b565b67ffffffffffffffff8111156200052c576200052b62000296565b5b620005388254620002f4565b620005458282856200046a565b600060209050601f8311600181146200057d576000841562000568578287015190505b620005748582620004e7565b865550620005e4565b601f1984166200058d8662000329565b60005b82811015620005b75784890151825560018201915060208501945060208101905062000590565b86831015620005d75784890151620005d3601f891682620004c7565b8355505b6001600288020188555050505b505050505050565b613ed580620005fc6000396000f3fe608060405234801561001057600080fd5b50600436106101585760003560e01c806343cd76fc116100c3578063b02ac8001161007c578063b02ac8001461040f578063b88d4fde1461043f578063bdc32be01461045b578063ce606ee014610479578063e985e9c514610497578063f2fde38b146104c757610158565b806343cd76fc146103175780634f6ccce7146103475780636352211e146103775780636a70177d146103a757806370a08231146103c3578063a22cb465146103f357610158565b806318160ddd1161011557806318160ddd1461023157806323b872dd1461024f5780632f745c591461026b5780633bb3a24d1461029b57806340c10f19146102cb57806342842e0e146102fb57610158565b806301ffc9a71461015d578063081812fc1461018d578063095ea7b3146101bd57806315070401146101d957806316c38b3c146101f757806317d7de7c14610213575b600080fd5b61017760048036038101906101729190612c99565b6104e3565b6040516101849190612ce1565b60405180910390f35b6101a760048036038101906101a29190612d32565b61054b565b6040516101b49190612da0565b60405180910390f35b6101d760048036038101906101d29190612de7565b610588565b005b6101e1610705565b6040516101ee9190612ec0565b60405180910390f35b610211600480360381019061020c9190612f0e565b610797565b005b61021b6108d4565b6040516102289190612ec0565b60405180910390f35b610239610966565b6040516102469190612f4a565b60405180910390f35b61026960048036038101906102649190612f65565b610973565b005b61028560048036038101906102809190612de7565b610996565b6040516102929190612f4a565b60405180910390f35b6102b560048036038101906102b09190612d32565b610a10565b6040516102c29190612ec0565b60405180910390f35b6102e560048036038101906102e09190612de7565b610ac7565b6040516102f29190612ce1565b60405180910390f35b61031560048036038101906103109190612f65565b610b75565b005b610331600480360381019061032c91906131f8565b610b95565b60405161033e9190612ce1565b60405180910390f35b610361600480360381019061035c9190612d32565b610c62565b60405161036e9190612f4a565b60405180910390f35b610391600480360381019061038c9190612d32565b610c9d565b60405161039e9190612da0565b60405180910390f35b6103c160048036038101906103bc9190612de7565b610cda565b005b6103dd60048036038101906103d8919061323a565b610cde565b6040516103ea9190612f4a565b60405180910390f35b61040d60048036038101906104089190613267565b610d2e565b005b610429600480360381019061042491906131f8565b610e63565b6040516104369190612ce1565b60405180910390f35b6104596004803603810190610454919061335c565b610e77565b005b610463610e9d565b6040516104709190612ec0565b60405180910390f35b610481610f2f565b60405161048e9190612da0565b60405180910390f35b6104b160048036038101906104ac91906133df565b610f58565b6040516104be9190612ce1565b60405180910390f35b6104e160048036038101906104dc919061323a565b610fec565b005b600060016000837bffffffffffffffffffffffffffffffffffffffffffffffffffffffff19167bffffffffffffffffffffffffffffffffffffffffffffffffffffffff1916815260200190815260200160002060009054906101000a900460ff169050919050565b60006003600083815260200190815260200160002060009054906101000a900473ffffffffffffffffffffffffffffffffffffffff169050919050565b600061059382610c9d565b90508073ffffffffffffffffffffffffffffffffffffffff168373ffffffffffffffffffffffffffffffffffffffff1603610603576040517f08c379a00000000000000000000000000000000000000000000000000000000081526004016105fa90613491565b60405180910390fd5b61060b610f2f565b73ffffffffffffffffffffffffffffffffffffffff163373ffffffffffffffffffffffffffffffffffffffff16148061064a57506106498133610f58565b5b61065357600080fd5b336003600084815260200190815260200160002060006101000a81548173ffffffffffffffffffffffffffffffffffffffff021916908373ffffffffffffffffffffffffffffffffffffffff160217905550813373ffffffffffffffffffffffffffffffffffffffff168273ffffffffffffffffffffffffffffffffffffffff167f8c5be1e5ebec7d5bd14f71427d1e84f3dd0314c0f7b2291e5b200ac8c7c3b92560405160405180910390a4505050565b6060600b8054610714906134e0565b80601f0160208091040260200160405190810160405280929190818152602001828054610740906134e0565b801561078d5780601f106107625761010080835404028352916020019161078d565b820191906000526020600020905b81548152906001019060200180831161077057829003601f168201915b5050505050905090565b60008054906101000a900473ffffffffffffffffffffffffffffffffffffffff1673ffffffffffffffffffffffffffffffffffffffff163373ffffffffffffffffffffffffffffffffffffffff1614610825576040517f08c379a000000000000000000000000000000000000000000000000000000000815260040161081c9061355d565b60405180910390fd5b80600060146101000a81548160ff021916908315150217905550801561088d573373ffffffffffffffffffffffffffffffffffffffff167f62e78cea01bee320cd4e420270b5ea74000d11b0c9f74754ebdbfc544b05a25860405160405180910390a26108d1565b3373ffffffffffffffffffffffffffffffffffffffff167f5db9ee0a495bf2e6ff9c91a7834c1ba4fdd244a5e8aa4e537bd38aeae4b073aa60405160405180910390a25b50565b6060600a80546108e3906134e0565b80601f016020809104026020016040519081016040528092919081815260200182805461090f906134e0565b801561095c5780601f106109315761010080835404028352916020019161095c565b820191906000526020600020905b81548152906001019060200180831161093f57829003601f168201915b5050505050905090565b6000600880549050905090565b61097d33826111ad565b61098657600080fd5b610991838383611242565b505050565b60006109a183610cde565b82106109ac57600080fd5b600660008473ffffffffffffffffffffffffffffffffffffffff1673ffffffffffffffffffffffffffffffffffffffff16815260200190815260200160002082815481106109fd576109fc61357d565b5b9060005260206000200154905092915050565b6060610a1b82611266565b610a2457600080fd5b600d60008381526020019081526020016000208054610a42906134e0565b80601f0160208091040260200160405190810160405280929190818152602001828054610a6e906134e0565b8015610abb5780601f10610a9057610100808354040283529160200191610abb565b820191906000526020600020905b815481529060010190602001808311610a9e57829003601f168201915b50505050509050919050565b60008060009054906101000a900473ffffffffffffffffffffffffffffffffffffffff1673ffffffffffffffffffffffffffffffffffffffff163373ffffffffffffffffffffffffffffffffffffffff1614610b58576040517f08c379a0000000000000000000000000000000000000000000000000000000008152600401610b4f9061355d565b60405180910390fd5b610b6283836112ad565b610b6b826112ce565b6001905092915050565b610b9083838360405180602001604052806000815250610e77565b505050565b600080600267ffffffffffffffff811115610bb357610bb2612fbd565b5b604051908082528060200260200182016040528015610be15781602001602082028036833780820191505090505b50905060005b6002811015610c3a57838160028110610c0357610c0261357d565b5b6020020151828281518110610c1b57610c1a61357d565b5b6020026020010181815250508080610c32906135db565b915050610be7565b506000610c47828661132e565b03610c56576001915050610c5c565b60009150505b92915050565b6000610c6c610966565b8210610c7757600080fd5b60088281548110610c8b57610c8a61357d565b5b90600052602060002001549050919050565b60006002600083815260200190815260200160002060009054906101000a900473ffffffffffffffffffffffffffffffffffffffff169050919050565b5050565b6000610d27600460008473ffffffffffffffffffffffffffffffffffffffff1673ffffffffffffffffffffffffffffffffffffffff1681526020019081526020016000206114c5565b9050919050565b3373ffffffffffffffffffffffffffffffffffffffff168273ffffffffffffffffffffffffffffffffffffffff1603610d6657600080fd5b80600560003373ffffffffffffffffffffffffffffffffffffffff1673ffffffffffffffffffffffffffffffffffffffff16815260200190815260200160002060008473ffffffffffffffffffffffffffffffffffffffff1673ffffffffffffffffffffffffffffffffffffffff16815260200190815260200160002060006101000a81548160ff0219169083151502179055508173ffffffffffffffffffffffffffffffffffffffff163373ffffffffffffffffffffffffffffffffffffffff167f17307eab39ab6107e8899845ad3d59bd9653f200f220920489ca2b5937696c3183604051610e579190612ce1565b60405180910390a35050565b6000610e6f8383610b95565b905092915050565b610e82848484610973565b610e8e848484846114d3565b610e9757600080fd5b50505050565b6060600c8054610eac906134e0565b80601f0160208091040260200160405190810160405280929190818152602001828054610ed8906134e0565b8015610f255780601f10610efa57610100808354040283529160200191610f25565b820191906000526020600020905b815481529060010190602001808311610f0857829003601f168201915b5050505050905090565b60008060009054906101000a900473ffffffffffffffffffffffffffffffffffffffff16905090565b6000600560008473ffffffffffffffffffffffffffffffffffffffff1673ffffffffffffffffffffffffffffffffffffffff16815260200190815260200160002060008373ffffffffffffffffffffffffffffffffffffffff1673ffffffffffffffffffffffffffffffffffffffff16815260200190815260200160002060009054906101000a900460ff16905092915050565b60008054906101000a900473ffffffffffffffffffffffffffffffffffffffff1673ffffffffffffffffffffffffffffffffffffffff163373ffffffffffffffffffffffffffffffffffffffff161461107a576040517f08c379a00000000000000000000000000000000000000000000000000000000081526004016110719061355d565b60405180910390fd5b600073ffffffffffffffffffffffffffffffffffffffff168173ffffffffffffffffffffffffffffffffffffffff16036110e9576040517f08c379a00000000000000000000000000000000000000000000000000000000081526004016110e090613695565b60405180910390fd5b60008060009054906101000a900473ffffffffffffffffffffffffffffffffffffffff169050816000806101000a81548173ffffffffffffffffffffffffffffffffffffffff021916908373ffffffffffffffffffffffffffffffffffffffff1602179055508173ffffffffffffffffffffffffffffffffffffffff168173ffffffffffffffffffffffffffffffffffffffff167f8934ce4adea8d9ce0d714d2c22b86790e41b7731c84b926fbbdc1d40ff6533c960405160405180910390a35050565b6000806111b983610c9d565b90508073ffffffffffffffffffffffffffffffffffffffff168473ffffffffffffffffffffffffffffffffffffffff16148061122857508373ffffffffffffffffffffffffffffffffffffffff166112108461054b565b73ffffffffffffffffffffffffffffffffffffffff16145b8061123957506112388185610f58565b5b91505092915050565b61124d8383836115db565b6112578382611834565b61126182826119e4565b505050565b60008061127283610c9d565b9050600073ffffffffffffffffffffffffffffffffffffffff168173ffffffffffffffffffffffffffffffffffffffff161415915050919050565b6112b78282611aa8565b6112c182826119e4565b6112ca81611c5f565b5050565b6112d781611266565b6112e057600080fd5b600c6112eb82611ca8565b6040516020016112fc929190613794565b604051602081830303815290604052600d6000838152602001908152602001600020908161132a9190613964565b5050565b6000807f30644e72e131a029b85045b68181585d2833e84879b9709143e1f593f00000019050600061135e611e08565b9050806080015151600186516113749190613a36565b1461137e57600080fd5b60006040518060400160405280600081526020016000815250905060005b865181101561143757838782815181106113b9576113b861357d565b5b6020026020010151106113cb57600080fd5b6114228261141d85608001516001856113e49190613a36565b815181106113f5576113f461357d565b5b60200260200101518a85815181106114105761140f61357d565b5b6020026020010151612283565b612325565b9150808061142f906135db565b91505061139c565b506114618183608001516000815181106114545761145361357d565b5b6020026020010151612325565b90506114a785600001518660200151611479846123ed565b856040015161148b8a604001516123ed565b876060015161149d89600001516123ed565b8960200151612492565b6114b757600193505050506114bf565b600093505050505b92915050565b600081600001549050919050565b60006114f48473ffffffffffffffffffffffffffffffffffffffff1661265f565b61150157600190506115d3565b60008473ffffffffffffffffffffffffffffffffffffffff1663150b7a02338887876040518563ffffffff1660e01b81526004016115429493929190613ad6565b6020604051808303816000875af1158015611561573d6000803e3d6000fd5b505050506040513d601f19601f820116820180604052508101906115859190613b37565b905063150b7a0260e01b7bffffffffffffffffffffffffffffffffffffffffffffffffffffffff1916817bffffffffffffffffffffffffffffffffffffffffffffffffffffffff1916149150505b949350505050565b6002600082815260200190815260200160002060009054906101000a900473ffffffffffffffffffffffffffffffffffffffff1673ffffffffffffffffffffffffffffffffffffffff168373ffffffffffffffffffffffffffffffffffffffff161461167c576040517f08c379a000000000000000000000000000000000000000000000000000000000815260040161167390613bb0565b60405180910390fd5b600073ffffffffffffffffffffffffffffffffffffffff168273ffffffffffffffffffffffffffffffffffffffff16036116eb576040517f08c379a00000000000000000000000000000000000000000000000000000000081526004016116e290613c1c565b60405180910390fd5b6116f481612682565b61173b600460008573ffffffffffffffffffffffffffffffffffffffff1673ffffffffffffffffffffffffffffffffffffffff168152602001908152602001600020612740565b611782600460008473ffffffffffffffffffffffffffffffffffffffff1673ffffffffffffffffffffffffffffffffffffffff16815260200190815260200160002061279c565b816002600083815260200190815260200160002060006101000a81548173ffffffffffffffffffffffffffffffffffffffff021916908373ffffffffffffffffffffffffffffffffffffffff160217905550808273ffffffffffffffffffffffffffffffffffffffff168473ffffffffffffffffffffffffffffffffffffffff167fddf252ad1be2c89b69c2b068fc378daa952ba7f163c4a11628f55a4df523b3ef60405160405180910390a4505050565b600061188c6001600660008673ffffffffffffffffffffffffffffffffffffffff1673ffffffffffffffffffffffffffffffffffffffff168152602001908152602001600020805490506127b290919063ffffffff16565b9050600060076000848152602001908152602001600020549050818114611987576000600660008673ffffffffffffffffffffffffffffffffffffffff1673ffffffffffffffffffffffffffffffffffffffff1681526020019081526020016000208381548110611900576118ff61357d565b5b9060005260206000200154905080600660008773ffffffffffffffffffffffffffffffffffffffff1673ffffffffffffffffffffffffffffffffffffffff168152602001908152602001600020838154811061195f5761195e61357d565b5b9060005260206000200181905550816007600083815260200190815260200160002081905550505b6119dd6001600660008773ffffffffffffffffffffffffffffffffffffffff1673ffffffffffffffffffffffffffffffffffffffff168152602001908152602001600020805490506127b290919063ffffffff16565b5050505050565b600660008373ffffffffffffffffffffffffffffffffffffffff1673ffffffffffffffffffffffffffffffffffffffff168152602001908152602001600020805490506007600083815260200190815260200160002081905550600660008373ffffffffffffffffffffffffffffffffffffffff1673ffffffffffffffffffffffffffffffffffffffff1681526020019081526020016000208190806001815401808255809150506001900390600052602060002001600090919091909150555050565b600073ffffffffffffffffffffffffffffffffffffffff168273ffffffffffffffffffffffffffffffffffffffff1603611b17576040517f08c379a0000000000000000000000000000000000000000000000000000000008152600401611b0e90613c88565b60405180910390fd5b60001515611b2482611266565b151514611b66576040517f08c379a0000000000000000000000000000000000000000000000000000000008152600401611b5d90613cf4565b60405180910390fd5b816002600083815260200190815260200160002060006101000a81548173ffffffffffffffffffffffffffffffffffffffff021916908373ffffffffffffffffffffffffffffffffffffffff160217905550611bff600460008473ffffffffffffffffffffffffffffffffffffffff1673ffffffffffffffffffffffffffffffffffffffff16815260200190815260200160002061279c565b808273ffffffffffffffffffffffffffffffffffffffff16600073ffffffffffffffffffffffffffffffffffffffff167fddf252ad1be2c89b69c2b068fc378daa952ba7f163c4a11628f55a4df523b3ef60405160405180910390a45050565b6008805490506009600083815260200190815260200160002081905550600881908060018154018082558091505060019003906000526020600020016000909190919091505550565b606060008203611cef576040518060400160405280600181526020017f30000000000000000000000000000000000000000000000000000000000000008152509050611e03565b600082905060005b60008214611d21578080611d0a906135db565b915050600a82611d1a9190613d43565b9150611cf7565b60008167ffffffffffffffff811115611d3d57611d3c612fbd565b5b6040519080825280601f01601f191660200182016040528015611d6f5781602001600182028036833780820191505090505b5090505b60008514611dfc57600182611d889190613d74565b9150600a85611d979190613da8565b6030611da39190613a36565b60f81b818381518110611db957611db861357d565b5b60200101907effffffffffffffffffffffffffffffffffffffffffffffffffffffffffffff1916908160001a905350600a85611df59190613d43565b9450611d73565b8093505050505b919050565b611e10612b1e565b60405180604001604052807f2bceacf8a4bf2bce1ed87e5ebc60beaa54cbc0662c2c0670a0c838b88c5db92181526020017f2b8bd1e20a822b7c09d466cb8d6ff3ffea95a6b24e24be236d0ee1cbc71eafcb8152508160000181905250604051806040016040528060405180604001604052807f1dbf063bf33e39ba0cda9402a069bf624022a8d5e4eb982e4f0bae25bf0ef5a181526020017f2184aa834fbaf2a41ca3dba00e0b50cba9b3c1fca1ce191b517516e15b234052815250815260200160405180604001604052807f2ed355fd3e0cd9b59a3526009a69b3258461e9f8bb6117a86f764dcd8a7c610481526020017f225292426ccef7a07992a9ee9a7ba821718b48c0eead4fcbb4023bd9949fca898152508152508160200181905250604051806040016040528060405180604001604052807f28543f8bcb08c45d2cc68b507285aa3ffebed1e1503a0d2f4ed7580be656374c81526020017f302a6b51c807508cf454b796f504cb7a551238d0078c52f093095eb57aa5be56815250815260200160405180604001604052807e547d2583fd2ff14728381ec288342e06cffbe4788a822a53f90fcc09dbae1b81526020017f0421aeb74ddf2aac538fb9a3d253d049caddb8bc5c4fc555c66d61fbb20ee3288152508152508160400181905250604051806040016040528060405180604001604052807f278afd2c13735984132b1cbb4f5c80d07a92925413cc52b8a9b396fd2fadfdbe81526020017f25cb795c320a2dc1e15126fa84d111d6cddc4385ea1d81ca0dc5d8f751db2421815250815260200160405180604001604052807f04a8e3816c8e42f4f32ceff16ec8b1df2ed890fa10f2f8b18b09832c67ce9d6681526020017f1e4ea1b2a965d0a14ec138c71c02b5247cd0d57d70d9b89c2191f9d6af0513d68152508152508160600181905250600367ffffffffffffffff8111156120d6576120d5612fbd565b5b60405190808252806020026020018201604052801561210f57816020015b6120fc612b65565b8152602001906001900390816120f45790505b50816080018190525060405180604001604052807f1190559b7f62f986ee970e813d56938aba790a3fb4f2f979f5adff25bb2ccab181526020017f1738738ada81d2ac9bb292a5bf731b23f695e7961659bb2bf0da16447f45cd3f81525081608001516000815181106121855761218461357d565b5b602002602001018190525060405180604001604052807f19121cd36cdc4a9f90a5c50d71cfa10cebb0020b17e8f0c3bdc37a69b2cd7e0881526020017f26f372a187bc7e8737dc9f89a6c2a4d1c885c24b9a777fe9d40a7380a95b4d1a81525081608001516001815181106121fd576121fc61357d565b5b602002602001018190525060405180604001604052807f2488dac82d2465f6d2ae50d1aeb731c38191b849392bf5f32c4355bcad78dba381526020017f1a47e28923f8899851640deab61396fe029c616a20e29f7d0460bd4c8903129081525081608001516002815181106122755761227461357d565b5b602002602001018190525090565b61228b612b65565b612293612b7f565b8360000151816000600381106122ac576122ab61357d565b5b6020020181815250508360200151816001600381106122ce576122cd61357d565b5b60200201818152505082816002600381106122ec576122eb61357d565b5b602002018181525050600060608360808460076107d05a03fa9050806000810361231257fe5b508061231d57600080fd5b505092915050565b61232d612b65565b612335612ba1565b83600001518160006004811061234e5761234d61357d565b5b6020020181815250508360200151816001600481106123705761236f61357d565b5b6020020181815250508260000151816002600481106123925761239161357d565b5b6020020181815250508260200151816003600481106123b4576123b361357d565b5b602002018181525050600060608360c08460066107d05a03fa905080600081036123da57fe5b50806123e557600080fd5b505092915050565b6123f5612b65565b60007f30644e72e131a029b85045b68181585d97816a916871ca8d3c208c16d87cfd47905060008360000151148015612432575060008360200151145b1561245657604051806040016040528060008152602001600081525091505061248d565b60405180604001604052808460000151815260200182856020015161247b9190613da8565b836124869190613d74565b8152509150505b919050565b600080600467ffffffffffffffff8111156124b0576124af612fbd565b5b6040519080825280602002602001820160405280156124e957816020015b6124d6612b65565b8152602001906001900390816124ce5790505b5090506000600467ffffffffffffffff81111561250957612508612fbd565b5b60405190808252806020026020018201604052801561254257816020015b61252f612bc3565b8152602001906001900390816125275790505b5090508a8260008151811061255a5761255961357d565b5b6020026020010181905250888260018151811061257a5761257961357d565b5b6020026020010181905250868260028151811061259a5761259961357d565b5b602002602001018190525084826003815181106125ba576125b961357d565b5b602002602001018190525089816000815181106125da576125d961357d565b5b602002602001018190525087816001815181106125fa576125f961357d565b5b6020026020010181905250858160028151811061261a5761261961357d565b5b6020026020010181905250838160038151811061263a5761263961357d565b5b602002602001018190525061264f82826127c8565b9250505098975050505050505050565b6000808273ffffffffffffffffffffffffffffffffffffffff163b119050919050565b600073ffffffffffffffffffffffffffffffffffffffff166003600083815260200190815260200160002060009054906101000a900473ffffffffffffffffffffffffffffffffffffffff1673ffffffffffffffffffffffffffffffffffffffff161461273d5760006003600083815260200190815260200160002060006101000a81548173ffffffffffffffffffffffffffffffffffffffff021916908373ffffffffffffffffffffffffffffffffffffffff1602179055505b50565b6000816000015490506000811161278c576040517f08c379a000000000000000000000000000000000000000000000000000000000815260040161278390613e25565b60405180910390fd5b6001810382600001819055505050565b6001816000016000828254019250508190555050565b600081836127c09190613d74565b905092915050565b600081518351146127d857600080fd5b60008351905060006006826127ed9190613e45565b905060008167ffffffffffffffff81111561280b5761280a612fbd565b5b6040519080825280602002602001820160405280156128395781602001602082028036833780820191505090505b50905060005b83811015612abe5786818151811061285a5761285961357d565b5b6020026020010151600001518260006006846128769190613e45565b6128809190613a36565b815181106128915761289061357d565b5b6020026020010181815250508681815181106128b0576128af61357d565b5b6020026020010151602001518260016006846128cc9190613e45565b6128d69190613a36565b815181106128e7576128e661357d565b5b6020026020010181815250508581815181106129065761290561357d565b5b6020026020010151600001516001600281106129255761292461357d565b5b602002015182600260068461293a9190613e45565b6129449190613a36565b815181106129555761295461357d565b5b6020026020010181815250508581815181106129745761297361357d565b5b6020026020010151600001516000600281106129935761299261357d565b5b60200201518260036006846129a89190613e45565b6129b29190613a36565b815181106129c3576129c261357d565b5b6020026020010181815250508581815181106129e2576129e161357d565b5b602002602001015160200151600160028110612a0157612a0061357d565b5b6020020151826004600684612a169190613e45565b612a209190613a36565b81518110612a3157612a3061357d565b5b602002602001018181525050858181518110612a5057612a4f61357d565b5b602002602001015160200151600060028110612a6f57612a6e61357d565b5b6020020151826005600684612a849190613e45565b612a8e9190613a36565b81518110612a9f57612a9e61357d565b5b6020026020010181815250508080612ab6906135db565b91505061283f565b50612ac7612be9565b6000602082602086026020860160086107d05a03fa90508060008103612ae957fe5b5080612af457600080fd5b600082600060018110612b0a57612b0961357d565b5b602002015114159550505050505092915050565b6040518060a00160405280612b31612b65565b8152602001612b3e612bc3565b8152602001612b4b612bc3565b8152602001612b58612bc3565b8152602001606081525090565b604051806040016040528060008152602001600081525090565b6040518060600160405280600390602082028036833780820191505090505090565b6040518060800160405280600490602082028036833780820191505090505090565b6040518060400160405280612bd6612c0b565b8152602001612be3612c0b565b81525090565b6040518060200160405280600190602082028036833780820191505090505090565b6040518060400160405280600290602082028036833780820191505090505090565b6000604051905090565b600080fd5b600080fd5b60007fffffffff0000000000000000000000000000000000000000000000000000000082169050919050565b612c7681612c41565b8114612c8157600080fd5b50565b600081359050612c9381612c6d565b92915050565b600060208284031215612caf57612cae612c37565b5b6000612cbd84828501612c84565b91505092915050565b60008115159050919050565b612cdb81612cc6565b82525050565b6000602082019050612cf66000830184612cd2565b92915050565b6000819050919050565b612d0f81612cfc565b8114612d1a57600080fd5b50565b600081359050612d2c81612d06565b92915050565b600060208284031215612d4857612d47612c37565b5b6000612d5684828501612d1d565b91505092915050565b600073ffffffffffffffffffffffffffffffffffffffff82169050919050565b6000612d8a82612d5f565b9050919050565b612d9a81612d7f565b82525050565b6000602082019050612db56000830184612d91565b92915050565b612dc481612d7f565b8114612dcf57600080fd5b50565b600081359050612de181612dbb565b92915050565b60008060408385031215612dfe57612dfd612c37565b5b6000612e0c85828601612dd2565b9250506020612e1d85828601612d1d565b9150509250929050565b600081519050919050565b600082825260208201905092915050565b60005b83811015612e61578082015181840152602081019050612e46565b83811115612e70576000848401525b50505050565b6000601f19601f8301169050919050565b6000612e9282612e27565b612e9c8185612e32565b9350612eac818560208601612e43565b612eb581612e76565b840191505092915050565b60006020820190508181036000830152612eda8184612e87565b905092915050565b612eeb81612cc6565b8114612ef657600080fd5b50565b600081359050612f0881612ee2565b92915050565b600060208284031215612f2457612f23612c37565b5b6000612f3284828501612ef9565b91505092915050565b612f4481612cfc565b82525050565b6000602082019050612f5f6000830184612f3b565b92915050565b600080600060608486031215612f7e57612f7d612c37565b5b6000612f8c86828701612dd2565b9350506020612f9d86828701612dd2565b9250506040612fae86828701612d1d565b9150509250925092565b600080fd5b7f4e487b7100000000000000000000000000000000000000000000000000000000600052604160045260246000fd5b612ff582612e76565b810181811067ffffffffffffffff8211171561301457613013612fbd565b5b80604052505050565b6000613027612c2d565b90506130338282612fec565b919050565b60006040828403121561304e5761304d612fb8565b5b613058604061301d565b9050600061306884828501612d1d565b600083015250602061307c84828501612d1d565b60208301525092915050565b600080fd5b600067ffffffffffffffff8211156130a8576130a7612fbd565b5b602082029050919050565b600080fd5b60006130cb6130c68461308d565b61301d565b905080602084028301858111156130e5576130e46130b3565b5b835b8181101561310e57806130fa8882612d1d565b8452602084019350506020810190506130e7565b5050509392505050565b600082601f83011261312d5761312c613088565b5b600261313a8482856130b8565b91505092915050565b60006080828403121561315957613158612fb8565b5b613163604061301d565b9050600061317384828501613118565b600083015250604061318784828501613118565b60208301525092915050565b600061010082840312156131aa576131a9612fb8565b5b6131b4606061301d565b905060006131c484828501613038565b60008301525060406131d884828501613143565b60208301525060c06131ec84828501613038565b60408301525092915050565b60008061014083850312156132105761320f612c37565b5b600061321e85828601613193565b92505061010061323085828601613118565b9150509250929050565b6000602082840312156132505761324f612c37565b5b600061325e84828501612dd2565b91505092915050565b6000806040838503121561327e5761327d612c37565b5b600061328c85828601612dd2565b925050602061329d85828601612ef9565b9150509250929050565b600080fd5b600067ffffffffffffffff8211156132c7576132c6612fbd565b5b6132d082612e76565b9050602081019050919050565b82818337600083830152505050565b60006132ff6132fa846132ac565b61301d565b90508281526020810184848401111561331b5761331a6132a7565b5b6133268482856132dd565b509392505050565b600082601f83011261334357613342613088565b5b81356133538482602086016132ec565b91505092915050565b6000806000806080858703121561337657613375612c37565b5b600061338487828801612dd2565b945050602061339587828801612dd2565b93505060406133a687828801612d1d565b925050606085013567ffffffffffffffff8111156133c7576133c6612c3c565b5b6133d38782880161332e565b91505092959194509250565b600080604083850312156133f6576133f5612c37565b5b600061340485828601612dd2565b925050602061341585828601612dd2565b9150509250929050565b7f27546f2720416464726573732073686f756c6420626520646966666572656e7460008201527f2066726f6d20746865206f776e65720000000000000000000000000000000000602082015250565b600061347b602f83612e32565b91506134868261341f565b604082019050919050565b600060208201905081810360008301526134aa8161346e565b9050919050565b7f4e487b7100000000000000000000000000000000000000000000000000000000600052602260045260246000fd5b600060028204905060018216806134f857607f821691505b60208210810361350b5761350a6134b1565b5b50919050565b7f4f6e6c7920636f6e7472616374206f776e65722063616e2063616c6c20697400600082015250565b6000613547601f83612e32565b915061355282613511565b602082019050919050565b600060208201905081810360008301526135768161353a565b9050919050565b7f4e487b7100000000000000000000000000000000000000000000000000000000600052603260045260246000fd5b7f4e487b7100000000000000000000000000000000000000000000000000000000600052601160045260246000fd5b60006135e682612cfc565b91507fffffffffffffffffffffffffffffffffffffffffffffffffffffffffffffffff8203613618576136176135ac565b5b600182019050919050565b7f4e6577206f776e6572206e65656420746f2062652061207265616c206164647260008201527f6573730000000000000000000000000000000000000000000000000000000000602082015250565b600061367f602383612e32565b915061368a82613623565b604082019050919050565b600060208201905081810360008301526136ae81613672565b9050919050565b600081905092915050565b60008190508160005260206000209050919050565b600081546136e2816134e0565b6136ec81866136b5565b94506001821660008114613707576001811461371c5761374f565b60ff198316865281151582028601935061374f565b613725856136c0565b60005b8381101561374757815481890152600182019150602081019050613728565b838801955050505b50505092915050565b600081519050919050565b600061376e82613758565b61377881856136b5565b9350613788818560208601612e43565b80840191505092915050565b60006137a082856136d5565b91506137ac8284613763565b91508190509392505050565b60008190508160005260206000209050919050565b60006020601f8301049050919050565b600082821b905092915050565b60006008830261381a7fffffffffffffffffffffffffffffffffffffffffffffffffffffffffffffffff826137dd565b61382486836137dd565b95508019841693508086168417925050509392505050565b6000819050919050565b600061386161385c61385784612cfc565b61383c565b612cfc565b9050919050565b6000819050919050565b61387b83613846565b61388f61388782613868565b8484546137ea565b825550505050565b600090565b6138a4613897565b6138af818484613872565b505050565b5b818110156138d3576138c860008261389c565b6001810190506138b5565b5050565b601f821115613918576138e9816137b8565b6138f2846137cd565b81016020851015613901578190505b61391561390d856137cd565b8301826138b4565b50505b505050565b600082821c905092915050565b600061393b6000198460080261391d565b1980831691505092915050565b6000613954838361392a565b9150826002028217905092915050565b61396d82612e27565b67ffffffffffffffff81111561398657613985612fbd565b5b61399082546134e0565b61399b8282856138d7565b600060209050601f8311600181146139ce57600084156139bc578287015190505b6139c68582613948565b865550613a2e565b601f1984166139dc866137b8565b60005b82811015613a04578489015182556001820191506020850194506020810190506139df565b86831015613a215784890151613a1d601f89168261392a565b8355505b6001600288020188555050505b505050505050565b6000613a4182612cfc565b9150613a4c83612cfc565b9250827fffffffffffffffffffffffffffffffffffffffffffffffffffffffffffffffff03821115613a8157613a806135ac565b5b828201905092915050565b600082825260208201905092915050565b6000613aa882613758565b613ab28185613a8c565b9350613ac2818560208601612e43565b613acb81612e76565b840191505092915050565b6000608082019050613aeb6000830187612d91565b613af86020830186612d91565b613b056040830185612f3b565b8181036060830152613b178184613a9d565b905095945050505050565b600081519050613b3181612c6d565b92915050565b600060208284031215613b4d57613b4c612c37565b5b6000613b5b84828501613b22565b91505092915050565b7f46726f6d2073686f756c6420626520746f6b656e206f776e6572000000000000600082015250565b6000613b9a601a83612e32565b9150613ba582613b64565b602082019050919050565b60006020820190508181036000830152613bc981613b8d565b9050919050565b7f27546f272073686f756c642062652076616c6964206164647265737300000000600082015250565b6000613c06601c83612e32565b9150613c1182613bd0565b602082019050919050565b60006020820190508181036000830152613c3581613bf9565b9050919050565b7f496e76616c696420616464726573730000000000000000000000000000000000600082015250565b6000613c72600f83612e32565b9150613c7d82613c3c565b602082019050919050565b60006020820190508181036000830152613ca181613c65565b9050919050565b7f546f6b656e20496420616c726561647920657869737473000000000000000000600082015250565b6000613cde601783612e32565b9150613ce982613ca8565b602082019050919050565b60006020820190508181036000830152613d0d81613cd1565b9050919050565b7f4e487b7100000000000000000000000000000000000000000000000000000000600052601260045260246000fd5b6000613d4e82612cfc565b9150613d5983612cfc565b925082613d6957613d68613d14565b5b828204905092915050565b6000613d7f82612cfc565b9150613d8a83612cfc565b925082821015613d9d57613d9c6135ac565b5b828203905092915050565b6000613db382612cfc565b9150613dbe83612cfc565b925082613dce57613dcd613d14565b5b828206905092915050565b7f436f756e7465723a2064656372656d656e74206f766572666c6f770000000000600082015250565b6000613e0f601b83612e32565b9150613e1a82613dd9565b602082019050919050565b60006020820190508181036000830152613e3e81613e02565b9050919050565b6000613e5082612cfc565b9150613e5b83612cfc565b9250817fffffffffffffffffffffffffffffffffffffffffffffffffffffffffffffffff0483118215151615613e9457613e936135ac565b5b82820290509291505056fea2646970667358221220a920354858fd04499af9ad751b6cd8e56e9477eb28dfbfcd46187a20ee70496464736f6c634300080f003368747470733a2f2f73332d75732d776573742d322e616d617a6f6e6177732e636f6d2f756461636974792d626c6f636b636861696e2f63617073746f6e652f",
  "immutableReferences": {},
  "source": "// SPDX-License-Identifier: MIT\npragma solidity >=0.4.21 <0.9.0;\n\nimport \"../zokrates/code/square/verifier.sol\";\nimport \"./ERC721Mintable.sol\";\n\ncontract SolnSquareVerifier is ERC721Mintable, Verifier {\n    struct Solution {\n        uint256 input;\n        address account;\n    }\n\n    /**\n        @dev solution will be hashed (keccak256(input)) and added into the mapping\n     */\n    mapping(uint256 => Solution) solutions;\n\n    event SolutionAdded(uint256 indexed solution);\n\n    /**\n        @dev function to add the solutions to the array\n     */\n\n    function addTheSolutions(uint256 _solution) internal {}\n\n    function mintAfterVerification(address to, uint256 tokenId) public {}\n\n    function zkVerify(Proof memory proof, uint256[2] memory input)\n        public\n        view\n        returns (bool)\n    {\n        return bool(Verifier.verifyTx(proof, input));\n    }\n\n    // TODO define a contract call to the zokrates generated solidity contract <Verifier> or <renamedVerifier>\n    // TODO define another contract named SolnSquareVerifier that inherits from your ERC721Mintable class\n    // TODO define a solutions struct that can hold an index & an address\n    // TODO define an array of the above struct\n    // TODO define a mapping to store unique solutions submitted\n    // TODO Create an event to emit when a solution is added\n    // TODO Create a function to add the solutions to the array and emit the event\n    // TODO Create a function to mint new NFT only after the solution has been verified\n    //  - make sure the solution is unique (has not been used before)\n    //  - make sure you handle metadata as well as tokenSuplly\n}\n",
  "sourcePath": "/home/rafamessias/Documents/udacity/Ethereum/real-estate-marketplace/contracts/SolnSquareVerifier.sol",
  "compiler": {
    "name": "solc",
    "version": "0.8.15+commit.e14f2714.Emscripten.clang"
  },
  "schemaVersion": "3.4.8",
  "updatedAt": "2022-09-25T11:50:44.215Z",
  "devdoc": {
    "kind": "dev",
    "methods": {
      "isApprovedForAll(address,address)": {
        "details": "Tells whether an operator is approved by a given owner",
        "params": {
          "operator": "operator address which you want to query the approval of",
          "owner": "owner address which you want to query the approval of"
        },
        "returns": {
          "_0": "bool whether the given operator is approved by the given owner"
        }
      },
      "setApprovalForAll(address,bool)": {
        "details": "Sets or unsets the approval of a given operator An operator is allowed to transfer all tokens of the sender on their behalf",
        "params": {
          "approved": "representing the status of the approval to be set",
          "to": "operator address to set the approval"
        }
      },
      "supportsInterface(bytes4)": {
        "details": "implement supportsInterface(bytes4) using a lookup table"
      },
      "tokenByIndex(uint256)": {
        "details": "Gets the token ID at a given index of all the tokens in this contract Reverts if the index is greater or equal to the total number of tokens",
        "params": {
          "index": "uint256 representing the index to be accessed of the tokens list"
        },
        "returns": {
          "_0": "uint256 token ID at the given index of the tokens list"
        }
      },
      "tokenOfOwnerByIndex(address,uint256)": {
        "details": "Gets the token ID at a given index of the tokens list of the requested owner",
        "params": {
          "index": "uint256 representing the index to be accessed of the requested tokens list",
          "owner": "address owning the tokens list to be accessed"
        },
        "returns": {
          "_0": "uint256 token ID at the given index of the tokens list owned by the requested address"
        }
      },
      "totalSupply()": {
        "details": "Gets the total amount of tokens stored by the contract",
        "returns": {
          "_0": "uint256 representing the total amount of tokens"
        }
      }
    },
    "stateVariables": {
      "solutions": {
        "details": "solution will be hashed (keccak256(input)) and added into the mapping"
      }
    },
    "version": 1
  },
  "userdoc": {
    "kind": "user",
    "methods": {},
    "version": 1
  }
}