{
  "contractName": "SolnSquareVerifier",
  "abi": [
    {
      "anonymous": false,
      "inputs": [
        {
          "indexed": true,
          "internalType": "address",
          "name": "owner",
          "type": "address"
        },
        {
          "indexed": true,
          "internalType": "address",
          "name": "approved",
          "type": "address"
        },
        {
          "indexed": true,
          "internalType": "uint256",
          "name": "tokenId",
          "type": "uint256"
        }
      ],
      "name": "Approval",
      "type": "event"
    },
    {
      "anonymous": false,
      "inputs": [
        {
          "indexed": true,
          "internalType": "address",
          "name": "owner",
          "type": "address"
        },
        {
          "indexed": true,
          "internalType": "address",
          "name": "operator",
          "type": "address"
        },
        {
          "indexed": false,
          "internalType": "bool",
          "name": "approved",
          "type": "bool"
        }
      ],
      "name": "ApprovalForAll",
      "type": "event"
    },
    {
      "anonymous": false,
      "inputs": [
        {
          "indexed": true,
          "internalType": "address",
          "name": "oldOnwer",
          "type": "address"
        },
        {
          "indexed": true,
          "internalType": "address",
          "name": "newOwner",
          "type": "address"
        }
      ],
      "name": "OwnerTransferred",
      "type": "event"
    },
    {
      "anonymous": false,
      "inputs": [
        {
          "indexed": true,
          "internalType": "address",
          "name": "trigger",
          "type": "address"
        }
      ],
      "name": "Paused",
      "type": "event"
    },
    {
      "anonymous": false,
      "inputs": [
        {
          "indexed": true,
          "internalType": "address",
          "name": "account",
          "type": "address"
        },
        {
          "indexed": false,
          "internalType": "uint256",
          "name": "index",
          "type": "uint256"
        }
      ],
      "name": "SolutionAdded",
      "type": "event"
    },
    {
      "anonymous": false,
      "inputs": [
        {
          "indexed": true,
          "internalType": "address",
          "name": "from",
          "type": "address"
        },
        {
          "indexed": true,
          "internalType": "address",
          "name": "to",
          "type": "address"
        },
        {
          "indexed": true,
          "internalType": "uint256",
          "name": "tokenId",
          "type": "uint256"
        }
      ],
      "name": "Transfer",
      "type": "event"
    },
    {
      "anonymous": false,
      "inputs": [
        {
          "indexed": true,
          "internalType": "address",
          "name": "trigger",
          "type": "address"
        }
      ],
      "name": "Unpaused",
      "type": "event"
    },
    {
      "inputs": [
        {
          "internalType": "address",
          "name": "to",
          "type": "address"
        },
        {
          "internalType": "uint256",
          "name": "tokenId",
          "type": "uint256"
        }
      ],
      "name": "approve",
      "outputs": [],
      "stateMutability": "nonpayable",
      "type": "function"
    },
    {
      "inputs": [
        {
          "internalType": "address",
          "name": "owner",
          "type": "address"
        }
      ],
      "name": "balanceOf",
      "outputs": [
        {
          "internalType": "uint256",
          "name": "",
          "type": "uint256"
        }
      ],
      "stateMutability": "view",
      "type": "function"
    },
    {
      "inputs": [],
      "name": "contractOwner",
      "outputs": [
        {
          "internalType": "address",
          "name": "",
          "type": "address"
        }
      ],
      "stateMutability": "view",
      "type": "function"
    },
    {
      "inputs": [
        {
          "internalType": "uint256",
          "name": "tokenId",
          "type": "uint256"
        }
      ],
      "name": "getApproved",
      "outputs": [
        {
          "internalType": "address",
          "name": "",
          "type": "address"
        }
      ],
      "stateMutability": "view",
      "type": "function"
    },
    {
      "inputs": [],
      "name": "getBaseTokenURI",
      "outputs": [
        {
          "internalType": "string",
          "name": "",
          "type": "string"
        }
      ],
      "stateMutability": "view",
      "type": "function"
    },
    {
      "inputs": [],
      "name": "getName",
      "outputs": [
        {
          "internalType": "string",
          "name": "",
          "type": "string"
        }
      ],
      "stateMutability": "view",
      "type": "function"
    },
    {
      "inputs": [],
      "name": "getSymbol",
      "outputs": [
        {
          "internalType": "string",
          "name": "",
          "type": "string"
        }
      ],
      "stateMutability": "view",
      "type": "function"
    },
    {
      "inputs": [
        {
          "internalType": "uint256",
          "name": "tokenId",
          "type": "uint256"
        }
      ],
      "name": "getTokenURI",
      "outputs": [
        {
          "internalType": "string",
          "name": "",
          "type": "string"
        }
      ],
      "stateMutability": "view",
      "type": "function"
    },
    {
      "inputs": [
        {
          "internalType": "address",
          "name": "owner",
          "type": "address"
        },
        {
          "internalType": "address",
          "name": "operator",
          "type": "address"
        }
      ],
      "name": "isApprovedForAll",
      "outputs": [
        {
          "internalType": "bool",
          "name": "",
          "type": "bool"
        }
      ],
      "stateMutability": "view",
      "type": "function"
    },
    {
      "inputs": [
        {
          "internalType": "address",
          "name": "to",
          "type": "address"
        },
        {
          "internalType": "uint256",
          "name": "tokenId",
          "type": "uint256"
        }
      ],
      "name": "mint",
      "outputs": [
        {
          "internalType": "bool",
          "name": "",
          "type": "bool"
        }
      ],
      "stateMutability": "nonpayable",
      "type": "function"
    },
    {
      "inputs": [
        {
          "internalType": "uint256",
          "name": "tokenId",
          "type": "uint256"
        }
      ],
      "name": "ownerOf",
      "outputs": [
        {
          "internalType": "address",
          "name": "",
          "type": "address"
        }
      ],
      "stateMutability": "view",
      "type": "function"
    },
    {
      "inputs": [
        {
          "internalType": "address",
          "name": "from",
          "type": "address"
        },
        {
          "internalType": "address",
          "name": "to",
          "type": "address"
        },
        {
          "internalType": "uint256",
          "name": "tokenId",
          "type": "uint256"
        }
      ],
      "name": "safeTransferFrom",
      "outputs": [],
      "stateMutability": "nonpayable",
      "type": "function"
    },
    {
      "inputs": [
        {
          "internalType": "address",
          "name": "from",
          "type": "address"
        },
        {
          "internalType": "address",
          "name": "to",
          "type": "address"
        },
        {
          "internalType": "uint256",
          "name": "tokenId",
          "type": "uint256"
        },
        {
          "internalType": "bytes",
          "name": "_data",
          "type": "bytes"
        }
      ],
      "name": "safeTransferFrom",
      "outputs": [],
      "stateMutability": "nonpayable",
      "type": "function"
    },
    {
      "inputs": [
        {
          "internalType": "address",
          "name": "to",
          "type": "address"
        },
        {
          "internalType": "bool",
          "name": "approved",
          "type": "bool"
        }
      ],
      "name": "setApprovalForAll",
      "outputs": [],
      "stateMutability": "nonpayable",
      "type": "function"
    },
    {
      "inputs": [
        {
          "internalType": "bool",
          "name": "_paused",
          "type": "bool"
        }
      ],
      "name": "setPaused",
      "outputs": [],
      "stateMutability": "nonpayable",
      "type": "function"
    },
    {
      "inputs": [
        {
          "internalType": "bytes4",
          "name": "interfaceId",
          "type": "bytes4"
        }
      ],
      "name": "supportsInterface",
      "outputs": [
        {
          "internalType": "bool",
          "name": "",
          "type": "bool"
        }
      ],
      "stateMutability": "view",
      "type": "function"
    },
    {
      "inputs": [
        {
          "internalType": "uint256",
          "name": "index",
          "type": "uint256"
        }
      ],
      "name": "tokenByIndex",
      "outputs": [
        {
          "internalType": "uint256",
          "name": "",
          "type": "uint256"
        }
      ],
      "stateMutability": "view",
      "type": "function"
    },
    {
      "inputs": [
        {
          "internalType": "address",
          "name": "owner",
          "type": "address"
        },
        {
          "internalType": "uint256",
          "name": "index",
          "type": "uint256"
        }
      ],
      "name": "tokenOfOwnerByIndex",
      "outputs": [
        {
          "internalType": "uint256",
          "name": "",
          "type": "uint256"
        }
      ],
      "stateMutability": "view",
      "type": "function"
    },
    {
      "inputs": [],
      "name": "totalSupply",
      "outputs": [
        {
          "internalType": "uint256",
          "name": "",
          "type": "uint256"
        }
      ],
      "stateMutability": "view",
      "type": "function"
    },
    {
      "inputs": [
        {
          "internalType": "address",
          "name": "from",
          "type": "address"
        },
        {
          "internalType": "address",
          "name": "to",
          "type": "address"
        },
        {
          "internalType": "uint256",
          "name": "tokenId",
          "type": "uint256"
        }
      ],
      "name": "transferFrom",
      "outputs": [],
      "stateMutability": "nonpayable",
      "type": "function"
    },
    {
      "inputs": [
        {
          "internalType": "address",
          "name": "newOwner",
          "type": "address"
        }
      ],
      "name": "transferOwnership",
      "outputs": [],
      "stateMutability": "nonpayable",
      "type": "function"
    },
    {
      "inputs": [
        {
          "internalType": "address",
          "name": "to",
          "type": "address"
        },
        {
          "internalType": "uint256",
          "name": "tokenId",
          "type": "uint256"
        }
      ],
      "name": "mintAfterVerification",
      "outputs": [],
      "stateMutability": "nonpayable",
      "type": "function"
    },
    {
      "inputs": [
        {
          "internalType": "uint256[]",
          "name": "input",
          "type": "uint256[]"
        },
        {
          "components": [
            {
              "components": [
                {
                  "internalType": "uint256",
                  "name": "X",
                  "type": "uint256"
                },
                {
                  "internalType": "uint256",
                  "name": "Y",
                  "type": "uint256"
                }
              ],
              "internalType": "struct Pairing.G1Point",
              "name": "a",
              "type": "tuple"
            },
            {
              "components": [
                {
                  "internalType": "uint256[2]",
                  "name": "X",
                  "type": "uint256[2]"
                },
                {
                  "internalType": "uint256[2]",
                  "name": "Y",
                  "type": "uint256[2]"
                }
              ],
              "internalType": "struct Pairing.G2Point",
              "name": "b",
              "type": "tuple"
            },
            {
              "components": [
                {
                  "internalType": "uint256",
                  "name": "X",
                  "type": "uint256"
                },
                {
                  "internalType": "uint256",
                  "name": "Y",
                  "type": "uint256"
                }
              ],
              "internalType": "struct Pairing.G1Point",
              "name": "c",
              "type": "tuple"
            }
          ],
          "internalType": "struct SolnSquareVerifier.Proof",
          "name": "proof",
          "type": "tuple"
        }
      ],
      "name": "zkVerify",
      "outputs": [
        {
          "internalType": "uint256",
          "name": "",
          "type": "uint256"
        }
      ],
      "stateMutability": "nonpayable",
      "type": "function"
    }
  ],
  "bytecode": "0x60806040523480156200001157600080fd5b506040518060400160405280600b81526020017f5265616c204573746174650000000000000000000000000000000000000000008152506040518060400160405280600581526020017f52454e46540000000000000000000000000000000000000000000000000000008152506040518060600160405280603f8152602001620035ee603f9139336000806101000a81548173ffffffffffffffffffffffffffffffffffffffff021916908373ffffffffffffffffffffffffffffffffffffffff1602179055503373ffffffffffffffffffffffffffffffffffffffff16600073ffffffffffffffffffffffffffffffffffffffff167f8934ce4adea8d9ce0d714d2c22b86790e41b7731c84b926fbbdc1d40ff6533c960405160405180910390a360008060146101000a81548160ff021916908315150217905550620001656301ffc9a760e01b620001ec60201b60201c565b6200017d6380ac58cd60e01b620001ec60201b60201c565b6200019563780e9d6360e01b620001ec60201b60201c565b82600a9081620001a6919062000505565b5081600b9081620001b8919062000505565b5080600c9081620001ca919062000505565b50620001e3635b5e139f60e01b620001ec60201b60201c565b505050620005ec565b63ffffffff60e01b817bffffffffffffffffffffffffffffffffffffffffffffffffffffffff1916036200021f57600080fd5b6001806000837bffffffffffffffffffffffffffffffffffffffffffffffffffffffff19167bffffffffffffffffffffffffffffffffffffffffffffffffffffffff1916815260200190815260200160002060006101000a81548160ff02191690831515021790555050565b600081519050919050565b7f4e487b7100000000000000000000000000000000000000000000000000000000600052604160045260246000fd5b7f4e487b7100000000000000000000000000000000000000000000000000000000600052602260045260246000fd5b600060028204905060018216806200030d57607f821691505b602082108103620003235762000322620002c5565b5b50919050565b60008190508160005260206000209050919050565b60006020601f8301049050919050565b600082821b905092915050565b6000600883026200038d7fffffffffffffffffffffffffffffffffffffffffffffffffffffffffffffffff826200034e565b6200039986836200034e565b95508019841693508086168417925050509392505050565b6000819050919050565b6000819050919050565b6000620003e6620003e0620003da84620003b1565b620003bb565b620003b1565b9050919050565b6000819050919050565b6200040283620003c5565b6200041a6200041182620003ed565b8484546200035b565b825550505050565b600090565b6200043162000422565b6200043e818484620003f7565b505050565b5b8181101562000466576200045a60008262000427565b60018101905062000444565b5050565b601f821115620004b5576200047f8162000329565b6200048a846200033e565b810160208510156200049a578190505b620004b2620004a9856200033e565b83018262000443565b50505b505050565b600082821c905092915050565b6000620004da60001984600802620004ba565b1980831691505092915050565b6000620004f58383620004c7565b9150826002028217905092915050565b62000510826200028b565b67ffffffffffffffff8111156200052c576200052b62000296565b5b620005388254620002f4565b620005458282856200046a565b600060209050601f8311600181146200057d576000841562000568578287015190505b620005748582620004e7565b865550620005e4565b601f1984166200058d8662000329565b60005b82811015620005b75784890151825560018201915060208501945060208101905062000590565b86831015620005d75784890151620005d3601f891682620004c7565b8355505b6001600288020188555050505b505050505050565b612ff280620005fc6000396000f3fe608060405234801561001057600080fd5b506004361061014d5760003560e01c806340c10f19116100c3578063a22cb4651161007c578063a22cb465146103e8578063b88d4fde14610404578063bdc32be014610420578063ce606ee01461043e578063e985e9c51461045c578063f2fde38b1461048c5761014d565b806340c10f19146102f057806342842e0e146103205780634f6ccce71461033c5780636352211e1461036c5780636a70177d1461039c57806370a08231146103b85761014d565b806316c38b3c1161011557806316c38b3c1461021c57806317d7de7c1461023857806318160ddd1461025657806323b872dd146102745780632f745c59146102905780633bb3a24d146102c05761014d565b806301ffc9a714610152578063081812fc14610182578063095ea7b3146101b257806312c13ea5146101ce57806315070401146101fe575b600080fd5b61016c60048036038101906101679190611d32565b6104a8565b6040516101799190611d7a565b60405180910390f35b61019c60048036038101906101979190611dcb565b610510565b6040516101a99190611e39565b60405180910390f35b6101cc60048036038101906101c79190611e80565b61054d565b005b6101e860048036038101906101e391906121d4565b6106ca565b6040516101f59190612240565b60405180910390f35b6102066106d2565b60405161021391906122e3565b60405180910390f35b61023660048036038101906102319190612331565b610764565b005b6102406108a1565b60405161024d91906122e3565b60405180910390f35b61025e610933565b60405161026b9190612240565b60405180910390f35b61028e6004803603810190610289919061235e565b610940565b005b6102aa60048036038101906102a59190611e80565b610963565b6040516102b79190612240565b60405180910390f35b6102da60048036038101906102d59190611dcb565b6109dd565b6040516102e791906122e3565b60405180910390f35b61030a60048036038101906103059190611e80565b610a94565b6040516103179190611d7a565b60405180910390f35b61033a6004803603810190610335919061235e565b610b42565b005b61035660048036038101906103519190611dcb565b610b62565b6040516103639190612240565b60405180910390f35b61038660048036038101906103819190611dcb565b610b9d565b6040516103939190611e39565b60405180910390f35b6103b660048036038101906103b19190611e80565b610bda565b005b6103d260048036038101906103cd91906123b1565b610bde565b6040516103df9190612240565b60405180910390f35b61040260048036038101906103fd91906123de565b610c2e565b005b61041e600480360381019061041991906124d3565b610d63565b005b610428610d89565b60405161043591906122e3565b60405180910390f35b610446610e1b565b6040516104539190611e39565b60405180910390f35b61047660048036038101906104719190612556565b610e44565b6040516104839190611d7a565b60405180910390f35b6104a660048036038101906104a191906123b1565b610ed8565b005b600060016000837bffffffffffffffffffffffffffffffffffffffffffffffffffffffff19167bffffffffffffffffffffffffffffffffffffffffffffffffffffffff1916815260200190815260200160002060009054906101000a900460ff169050919050565b60006003600083815260200190815260200160002060009054906101000a900473ffffffffffffffffffffffffffffffffffffffff169050919050565b600061055882610b9d565b90508073ffffffffffffffffffffffffffffffffffffffff168373ffffffffffffffffffffffffffffffffffffffff16036105c8576040517f08c379a00000000000000000000000000000000000000000000000000000000081526004016105bf90612608565b60405180910390fd5b6105d0610e1b565b73ffffffffffffffffffffffffffffffffffffffff163373ffffffffffffffffffffffffffffffffffffffff16148061060f575061060e8133610e44565b5b61061857600080fd5b336003600084815260200190815260200160002060006101000a81548173ffffffffffffffffffffffffffffffffffffffff021916908373ffffffffffffffffffffffffffffffffffffffff160217905550813373ffffffffffffffffffffffffffffffffffffffff168273ffffffffffffffffffffffffffffffffffffffff167f8c5be1e5ebec7d5bd14f71427d1e84f3dd0314c0f7b2291e5b200ac8c7c3b92560405160405180910390a4505050565b600092915050565b6060600b80546106e190612657565b80601f016020809104026020016040519081016040528092919081815260200182805461070d90612657565b801561075a5780601f1061072f5761010080835404028352916020019161075a565b820191906000526020600020905b81548152906001019060200180831161073d57829003601f168201915b5050505050905090565b60008054906101000a900473ffffffffffffffffffffffffffffffffffffffff1673ffffffffffffffffffffffffffffffffffffffff163373ffffffffffffffffffffffffffffffffffffffff16146107f2576040517f08c379a00000000000000000000000000000000000000000000000000000000081526004016107e9906126d4565b60405180910390fd5b80600060146101000a81548160ff021916908315150217905550801561085a573373ffffffffffffffffffffffffffffffffffffffff167f62e78cea01bee320cd4e420270b5ea74000d11b0c9f74754ebdbfc544b05a25860405160405180910390a261089e565b3373ffffffffffffffffffffffffffffffffffffffff167f5db9ee0a495bf2e6ff9c91a7834c1ba4fdd244a5e8aa4e537bd38aeae4b073aa60405160405180910390a25b50565b6060600a80546108b090612657565b80601f01602080910402602001604051908101604052809291908181526020018280546108dc90612657565b80156109295780601f106108fe57610100808354040283529160200191610929565b820191906000526020600020905b81548152906001019060200180831161090c57829003601f168201915b5050505050905090565b6000600880549050905090565b61094a3382611099565b61095357600080fd5b61095e83838361112e565b505050565b600061096e83610bde565b821061097957600080fd5b600660008473ffffffffffffffffffffffffffffffffffffffff1673ffffffffffffffffffffffffffffffffffffffff16815260200190815260200160002082815481106109ca576109c96126f4565b5b9060005260206000200154905092915050565b60606109e882611152565b6109f157600080fd5b600d60008381526020019081526020016000208054610a0f90612657565b80601f0160208091040260200160405190810160405280929190818152602001828054610a3b90612657565b8015610a885780601f10610a5d57610100808354040283529160200191610a88565b820191906000526020600020905b815481529060010190602001808311610a6b57829003601f168201915b50505050509050919050565b60008060009054906101000a900473ffffffffffffffffffffffffffffffffffffffff1673ffffffffffffffffffffffffffffffffffffffff163373ffffffffffffffffffffffffffffffffffffffff1614610b25576040517f08c379a0000000000000000000000000000000000000000000000000000000008152600401610b1c906126d4565b60405180910390fd5b610b2f8383611199565b610b38826111ba565b6001905092915050565b610b5d83838360405180602001604052806000815250610d63565b505050565b6000610b6c610933565b8210610b7757600080fd5b60088281548110610b8b57610b8a6126f4565b5b90600052602060002001549050919050565b60006002600083815260200190815260200160002060009054906101000a900473ffffffffffffffffffffffffffffffffffffffff169050919050565b5050565b6000610c27600460008473ffffffffffffffffffffffffffffffffffffffff1673ffffffffffffffffffffffffffffffffffffffff16815260200190815260200160002061121a565b9050919050565b3373ffffffffffffffffffffffffffffffffffffffff168273ffffffffffffffffffffffffffffffffffffffff1603610c6657600080fd5b80600560003373ffffffffffffffffffffffffffffffffffffffff1673ffffffffffffffffffffffffffffffffffffffff16815260200190815260200160002060008473ffffffffffffffffffffffffffffffffffffffff1673ffffffffffffffffffffffffffffffffffffffff16815260200190815260200160002060006101000a81548160ff0219169083151502179055508173ffffffffffffffffffffffffffffffffffffffff163373ffffffffffffffffffffffffffffffffffffffff167f17307eab39ab6107e8899845ad3d59bd9653f200f220920489ca2b5937696c3183604051610d579190611d7a565b60405180910390a35050565b610d6e848484610940565b610d7a84848484611228565b610d8357600080fd5b50505050565b6060600c8054610d9890612657565b80601f0160208091040260200160405190810160405280929190818152602001828054610dc490612657565b8015610e115780601f10610de657610100808354040283529160200191610e11565b820191906000526020600020905b815481529060010190602001808311610df457829003601f168201915b5050505050905090565b60008060009054906101000a900473ffffffffffffffffffffffffffffffffffffffff16905090565b6000600560008473ffffffffffffffffffffffffffffffffffffffff1673ffffffffffffffffffffffffffffffffffffffff16815260200190815260200160002060008373ffffffffffffffffffffffffffffffffffffffff1673ffffffffffffffffffffffffffffffffffffffff16815260200190815260200160002060009054906101000a900460ff16905092915050565b60008054906101000a900473ffffffffffffffffffffffffffffffffffffffff1673ffffffffffffffffffffffffffffffffffffffff163373ffffffffffffffffffffffffffffffffffffffff1614610f66576040517f08c379a0000000000000000000000000000000000000000000000000000000008152600401610f5d906126d4565b60405180910390fd5b600073ffffffffffffffffffffffffffffffffffffffff168173ffffffffffffffffffffffffffffffffffffffff1603610fd5576040517f08c379a0000000000000000000000000000000000000000000000000000000008152600401610fcc90612795565b60405180910390fd5b60008060009054906101000a900473ffffffffffffffffffffffffffffffffffffffff169050816000806101000a81548173ffffffffffffffffffffffffffffffffffffffff021916908373ffffffffffffffffffffffffffffffffffffffff1602179055508173ffffffffffffffffffffffffffffffffffffffff168173ffffffffffffffffffffffffffffffffffffffff167f8934ce4adea8d9ce0d714d2c22b86790e41b7731c84b926fbbdc1d40ff6533c960405160405180910390a35050565b6000806110a583610b9d565b90508073ffffffffffffffffffffffffffffffffffffffff168473ffffffffffffffffffffffffffffffffffffffff16148061111457508373ffffffffffffffffffffffffffffffffffffffff166110fc84610510565b73ffffffffffffffffffffffffffffffffffffffff16145b8061112557506111248185610e44565b5b91505092915050565b611139838383611330565b6111438382611589565b61114d8282611739565b505050565b60008061115e83610b9d565b9050600073ffffffffffffffffffffffffffffffffffffffff168173ffffffffffffffffffffffffffffffffffffffff161415915050919050565b6111a382826117fd565b6111ad8282611739565b6111b6816119b4565b5050565b6111c381611152565b6111cc57600080fd5b600c6111d7826119fd565b6040516020016111e8929190612894565b604051602081830303815290604052600d600083815260200190815260200160002090816112169190612a64565b5050565b600081600001549050919050565b60006112498473ffffffffffffffffffffffffffffffffffffffff16611b5d565b6112565760019050611328565b60008473ffffffffffffffffffffffffffffffffffffffff1663150b7a02338887876040518563ffffffff1660e01b81526004016112979493929190612b80565b6020604051808303816000875af11580156112b6573d6000803e3d6000fd5b505050506040513d601f19601f820116820180604052508101906112da9190612be1565b905063150b7a0260e01b7bffffffffffffffffffffffffffffffffffffffffffffffffffffffff1916817bffffffffffffffffffffffffffffffffffffffffffffffffffffffff1916149150505b949350505050565b6002600082815260200190815260200160002060009054906101000a900473ffffffffffffffffffffffffffffffffffffffff1673ffffffffffffffffffffffffffffffffffffffff168373ffffffffffffffffffffffffffffffffffffffff16146113d1576040517f08c379a00000000000000000000000000000000000000000000000000000000081526004016113c890612c5a565b60405180910390fd5b600073ffffffffffffffffffffffffffffffffffffffff168273ffffffffffffffffffffffffffffffffffffffff1603611440576040517f08c379a000000000000000000000000000000000000000000000000000000000815260040161143790612cc6565b60405180910390fd5b61144981611b80565b611490600460008573ffffffffffffffffffffffffffffffffffffffff1673ffffffffffffffffffffffffffffffffffffffff168152602001908152602001600020611c3e565b6114d7600460008473ffffffffffffffffffffffffffffffffffffffff1673ffffffffffffffffffffffffffffffffffffffff168152602001908152602001600020611c9a565b816002600083815260200190815260200160002060006101000a81548173ffffffffffffffffffffffffffffffffffffffff021916908373ffffffffffffffffffffffffffffffffffffffff160217905550808273ffffffffffffffffffffffffffffffffffffffff168473ffffffffffffffffffffffffffffffffffffffff167fddf252ad1be2c89b69c2b068fc378daa952ba7f163c4a11628f55a4df523b3ef60405160405180910390a4505050565b60006115e16001600660008673ffffffffffffffffffffffffffffffffffffffff1673ffffffffffffffffffffffffffffffffffffffff16815260200190815260200160002080549050611cb090919063ffffffff16565b90506000600760008481526020019081526020016000205490508181146116dc576000600660008673ffffffffffffffffffffffffffffffffffffffff1673ffffffffffffffffffffffffffffffffffffffff1681526020019081526020016000208381548110611655576116546126f4565b5b9060005260206000200154905080600660008773ffffffffffffffffffffffffffffffffffffffff1673ffffffffffffffffffffffffffffffffffffffff16815260200190815260200160002083815481106116b4576116b36126f4565b5b9060005260206000200181905550816007600083815260200190815260200160002081905550505b6117326001600660008773ffffffffffffffffffffffffffffffffffffffff1673ffffffffffffffffffffffffffffffffffffffff16815260200190815260200160002080549050611cb090919063ffffffff16565b5050505050565b600660008373ffffffffffffffffffffffffffffffffffffffff1673ffffffffffffffffffffffffffffffffffffffff168152602001908152602001600020805490506007600083815260200190815260200160002081905550600660008373ffffffffffffffffffffffffffffffffffffffff1673ffffffffffffffffffffffffffffffffffffffff1681526020019081526020016000208190806001815401808255809150506001900390600052602060002001600090919091909150555050565b600073ffffffffffffffffffffffffffffffffffffffff168273ffffffffffffffffffffffffffffffffffffffff160361186c576040517f08c379a000000000000000000000000000000000000000000000000000000000815260040161186390612d32565b60405180910390fd5b6000151561187982611152565b1515146118bb576040517f08c379a00000000000000000000000000000000000000000000000000000000081526004016118b290612d9e565b60405180910390fd5b816002600083815260200190815260200160002060006101000a81548173ffffffffffffffffffffffffffffffffffffffff021916908373ffffffffffffffffffffffffffffffffffffffff160217905550611954600460008473ffffffffffffffffffffffffffffffffffffffff1673ffffffffffffffffffffffffffffffffffffffff168152602001908152602001600020611c9a565b808273ffffffffffffffffffffffffffffffffffffffff16600073ffffffffffffffffffffffffffffffffffffffff167fddf252ad1be2c89b69c2b068fc378daa952ba7f163c4a11628f55a4df523b3ef60405160405180910390a45050565b6008805490506009600083815260200190815260200160002081905550600881908060018154018082558091505060019003906000526020600020016000909190919091505550565b606060008203611a44576040518060400160405280600181526020017f30000000000000000000000000000000000000000000000000000000000000008152509050611b58565b600082905060005b60008214611a76578080611a5f90612ded565b915050600a82611a6f9190612e64565b9150611a4c565b60008167ffffffffffffffff811115611a9257611a91611ed6565b5b6040519080825280601f01601f191660200182016040528015611ac45781602001600182028036833780820191505090505b5090505b60008514611b5157600182611add9190612e95565b9150600a85611aec9190612ec9565b6030611af89190612efa565b60f81b818381518110611b0e57611b0d6126f4565b5b60200101907effffffffffffffffffffffffffffffffffffffffffffffffffffffffffffff1916908160001a905350600a85611b4a9190612e64565b9450611ac8565b8093505050505b919050565b6000808273ffffffffffffffffffffffffffffffffffffffff163b119050919050565b600073ffffffffffffffffffffffffffffffffffffffff166003600083815260200190815260200160002060009054906101000a900473ffffffffffffffffffffffffffffffffffffffff1673ffffffffffffffffffffffffffffffffffffffff1614611c3b5760006003600083815260200190815260200160002060006101000a81548173ffffffffffffffffffffffffffffffffffffffff021916908373ffffffffffffffffffffffffffffffffffffffff1602179055505b50565b60008160000154905060008111611c8a576040517f08c379a0000000000000000000000000000000000000000000000000000000008152600401611c8190612f9c565b60405180910390fd5b6001810382600001819055505050565b6001816000016000828254019250508190555050565b60008183611cbe9190612e95565b905092915050565b6000604051905090565b600080fd5b600080fd5b60007fffffffff0000000000000000000000000000000000000000000000000000000082169050919050565b611d0f81611cda565b8114611d1a57600080fd5b50565b600081359050611d2c81611d06565b92915050565b600060208284031215611d4857611d47611cd0565b5b6000611d5684828501611d1d565b91505092915050565b60008115159050919050565b611d7481611d5f565b82525050565b6000602082019050611d8f6000830184611d6b565b92915050565b6000819050919050565b611da881611d95565b8114611db357600080fd5b50565b600081359050611dc581611d9f565b92915050565b600060208284031215611de157611de0611cd0565b5b6000611def84828501611db6565b91505092915050565b600073ffffffffffffffffffffffffffffffffffffffff82169050919050565b6000611e2382611df8565b9050919050565b611e3381611e18565b82525050565b6000602082019050611e4e6000830184611e2a565b92915050565b611e5d81611e18565b8114611e6857600080fd5b50565b600081359050611e7a81611e54565b92915050565b60008060408385031215611e9757611e96611cd0565b5b6000611ea585828601611e6b565b9250506020611eb685828601611db6565b9150509250929050565b600080fd5b6000601f19601f8301169050919050565b7f4e487b7100000000000000000000000000000000000000000000000000000000600052604160045260246000fd5b611f0e82611ec5565b810181811067ffffffffffffffff82111715611f2d57611f2c611ed6565b5b80604052505050565b6000611f40611cc6565b9050611f4c8282611f05565b919050565b600067ffffffffffffffff821115611f6c57611f6b611ed6565b5b602082029050602081019050919050565b600080fd5b6000611f95611f9084611f51565b611f36565b90508083825260208201905060208402830185811115611fb857611fb7611f7d565b5b835b81811015611fe15780611fcd8882611db6565b845260208401935050602081019050611fba565b5050509392505050565b600082601f83011261200057611fff611ec0565b5b8135612010848260208601611f82565b91505092915050565b600080fd5b60006040828403121561203457612033612019565b5b61203e6040611f36565b9050600061204e84828501611db6565b600083015250602061206284828501611db6565b60208301525092915050565b600067ffffffffffffffff82111561208957612088611ed6565b5b602082029050919050565b60006120a76120a28461206e565b611f36565b905080602084028301858111156120c1576120c0611f7d565b5b835b818110156120ea57806120d68882611db6565b8452602084019350506020810190506120c3565b5050509392505050565b600082601f83011261210957612108611ec0565b5b6002612116848285612094565b91505092915050565b60006080828403121561213557612134612019565b5b61213f6040611f36565b9050600061214f848285016120f4565b6000830152506040612163848285016120f4565b60208301525092915050565b6000610100828403121561218657612185612019565b5b6121906060611f36565b905060006121a08482850161201e565b60008301525060406121b48482850161211f565b60208301525060c06121c88482850161201e565b60408301525092915050565b60008061012083850312156121ec576121eb611cd0565b5b600083013567ffffffffffffffff81111561220a57612209611cd5565b5b61221685828601611feb565b92505060206122278582860161216f565b9150509250929050565b61223a81611d95565b82525050565b60006020820190506122556000830184612231565b92915050565b600081519050919050565b600082825260208201905092915050565b60005b8381101561229557808201518184015260208101905061227a565b838111156122a4576000848401525b50505050565b60006122b58261225b565b6122bf8185612266565b93506122cf818560208601612277565b6122d881611ec5565b840191505092915050565b600060208201905081810360008301526122fd81846122aa565b905092915050565b61230e81611d5f565b811461231957600080fd5b50565b60008135905061232b81612305565b92915050565b60006020828403121561234757612346611cd0565b5b60006123558482850161231c565b91505092915050565b60008060006060848603121561237757612376611cd0565b5b600061238586828701611e6b565b935050602061239686828701611e6b565b92505060406123a786828701611db6565b9150509250925092565b6000602082840312156123c7576123c6611cd0565b5b60006123d584828501611e6b565b91505092915050565b600080604083850312156123f5576123f4611cd0565b5b600061240385828601611e6b565b92505060206124148582860161231c565b9150509250929050565b600080fd5b600067ffffffffffffffff82111561243e5761243d611ed6565b5b61244782611ec5565b9050602081019050919050565b82818337600083830152505050565b600061247661247184612423565b611f36565b9050828152602081018484840111156124925761249161241e565b5b61249d848285612454565b509392505050565b600082601f8301126124ba576124b9611ec0565b5b81356124ca848260208601612463565b91505092915050565b600080600080608085870312156124ed576124ec611cd0565b5b60006124fb87828801611e6b565b945050602061250c87828801611e6b565b935050604061251d87828801611db6565b925050606085013567ffffffffffffffff81111561253e5761253d611cd5565b5b61254a878288016124a5565b91505092959194509250565b6000806040838503121561256d5761256c611cd0565b5b600061257b85828601611e6b565b925050602061258c85828601611e6b565b9150509250929050565b7f27546f2720416464726573732073686f756c6420626520646966666572656e7460008201527f2066726f6d20746865206f776e65720000000000000000000000000000000000602082015250565b60006125f2602f83612266565b91506125fd82612596565b604082019050919050565b60006020820190508181036000830152612621816125e5565b9050919050565b7f4e487b7100000000000000000000000000000000000000000000000000000000600052602260045260246000fd5b6000600282049050600182168061266f57607f821691505b60208210810361268257612681612628565b5b50919050565b7f4f6e6c7920636f6e7472616374206f776e65722063616e2063616c6c20697400600082015250565b60006126be601f83612266565b91506126c982612688565b602082019050919050565b600060208201905081810360008301526126ed816126b1565b9050919050565b7f4e487b7100000000000000000000000000000000000000000000000000000000600052603260045260246000fd5b7f4e6577206f776e6572206e65656420746f2062652061207265616c206164647260008201527f6573730000000000000000000000000000000000000000000000000000000000602082015250565b600061277f602383612266565b915061278a82612723565b604082019050919050565b600060208201905081810360008301526127ae81612772565b9050919050565b600081905092915050565b60008190508160005260206000209050919050565b600081546127e281612657565b6127ec81866127b5565b94506001821660008114612807576001811461281c5761284f565b60ff198316865281151582028601935061284f565b612825856127c0565b60005b8381101561284757815481890152600182019150602081019050612828565b838801955050505b50505092915050565b600081519050919050565b600061286e82612858565b61287881856127b5565b9350612888818560208601612277565b80840191505092915050565b60006128a082856127d5565b91506128ac8284612863565b91508190509392505050565b60008190508160005260206000209050919050565b60006020601f8301049050919050565b600082821b905092915050565b60006008830261291a7fffffffffffffffffffffffffffffffffffffffffffffffffffffffffffffffff826128dd565b61292486836128dd565b95508019841693508086168417925050509392505050565b6000819050919050565b600061296161295c61295784611d95565b61293c565b611d95565b9050919050565b6000819050919050565b61297b83612946565b61298f61298782612968565b8484546128ea565b825550505050565b600090565b6129a4612997565b6129af818484612972565b505050565b5b818110156129d3576129c860008261299c565b6001810190506129b5565b5050565b601f821115612a18576129e9816128b8565b6129f2846128cd565b81016020851015612a01578190505b612a15612a0d856128cd565b8301826129b4565b50505b505050565b600082821c905092915050565b6000612a3b60001984600802612a1d565b1980831691505092915050565b6000612a548383612a2a565b9150826002028217905092915050565b612a6d8261225b565b67ffffffffffffffff811115612a8657612a85611ed6565b5b612a908254612657565b612a9b8282856129d7565b600060209050601f831160018114612ace5760008415612abc578287015190505b612ac68582612a48565b865550612b2e565b601f198416612adc866128b8565b60005b82811015612b0457848901518255600182019150602085019450602081019050612adf565b86831015612b215784890151612b1d601f891682612a2a565b8355505b6001600288020188555050505b505050505050565b600082825260208201905092915050565b6000612b5282612858565b612b5c8185612b36565b9350612b6c818560208601612277565b612b7581611ec5565b840191505092915050565b6000608082019050612b956000830187611e2a565b612ba26020830186611e2a565b612baf6040830185612231565b8181036060830152612bc18184612b47565b905095945050505050565b600081519050612bdb81611d06565b92915050565b600060208284031215612bf757612bf6611cd0565b5b6000612c0584828501612bcc565b91505092915050565b7f46726f6d2073686f756c6420626520746f6b656e206f776e6572000000000000600082015250565b6000612c44601a83612266565b9150612c4f82612c0e565b602082019050919050565b60006020820190508181036000830152612c7381612c37565b9050919050565b7f27546f272073686f756c642062652076616c6964206164647265737300000000600082015250565b6000612cb0601c83612266565b9150612cbb82612c7a565b602082019050919050565b60006020820190508181036000830152612cdf81612ca3565b9050919050565b7f496e76616c696420616464726573730000000000000000000000000000000000600082015250565b6000612d1c600f83612266565b9150612d2782612ce6565b602082019050919050565b60006020820190508181036000830152612d4b81612d0f565b9050919050565b7f546f6b656e20496420616c726561647920657869737473000000000000000000600082015250565b6000612d88601783612266565b9150612d9382612d52565b602082019050919050565b60006020820190508181036000830152612db781612d7b565b9050919050565b7f4e487b7100000000000000000000000000000000000000000000000000000000600052601160045260246000fd5b6000612df882611d95565b91507fffffffffffffffffffffffffffffffffffffffffffffffffffffffffffffffff8203612e2a57612e29612dbe565b5b600182019050919050565b7f4e487b7100000000000000000000000000000000000000000000000000000000600052601260045260246000fd5b6000612e6f82611d95565b9150612e7a83611d95565b925082612e8a57612e89612e35565b5b828204905092915050565b6000612ea082611d95565b9150612eab83611d95565b925082821015612ebe57612ebd612dbe565b5b828203905092915050565b6000612ed482611d95565b9150612edf83611d95565b925082612eef57612eee612e35565b5b828206905092915050565b6000612f0582611d95565b9150612f1083611d95565b9250827fffffffffffffffffffffffffffffffffffffffffffffffffffffffffffffffff03821115612f4557612f44612dbe565b5b828201905092915050565b7f436f756e7465723a2064656372656d656e74206f766572666c6f770000000000600082015250565b6000612f86601b83612266565b9150612f9182612f50565b602082019050919050565b60006020820190508181036000830152612fb581612f79565b905091905056fea264697066735822122028eec13a68c6c6453b269f27cfc2cba19f6fe2efd1c3b2436de13f930bb4cbb364736f6c634300080f003368747470733a2f2f73332d75732d776573742d322e616d617a6f6e6177732e636f6d2f756461636974792d626c6f636b636861696e2f63617073746f6e652f",
  "immutableReferences": {},
  "source": "// SPDX-License-Identifier: MIT\npragma solidity >=0.4.21 <0.9.0;\n\nimport \"../zokrates/code/square/verifier.sol\";\nimport \"./ERC721Mintable.sol\";\n\ncontract SolnSquareVerifier is ERC721Mintable {\n    using Pairing for *;\n\n    struct Proof {\n        Pairing.G1Point a;\n        Pairing.G2Point b;\n        Pairing.G1Point c;\n    }\n\n    struct Solution {\n        uint256 index;\n        address account;\n    }\n\n    Solution[] solutions;\n\n    event SolutionAdded(address indexed account, uint256 index);\n\n    /**\n        @dev function to add the solutions to the array\n     */\n\n    function addTheSolutions(uint256 _solution) internal {}\n\n    function mintAfterVerification(address to, uint256 tokenId) public {}\n\n    function zkVerify(uint256[] memory input, Proof memory proof)\n        public\n        returns (uint256)\n    {}\n\n    // TODO define a contract call to the zokrates generated solidity contract <Verifier> or <renamedVerifier>\n    // TODO define another contract named SolnSquareVerifier that inherits from your ERC721Mintable class\n    // TODO define a solutions struct that can hold an index & an address\n    // TODO define an array of the above struct\n    // TODO define a mapping to store unique solutions submitted\n    // TODO Create an event to emit when a solution is added\n    // TODO Create a function to add the solutions to the array and emit the event\n    // TODO Create a function to mint new NFT only after the solution has been verified\n    //  - make sure the solution is unique (has not been used before)\n    //  - make sure you handle metadata as well as tokenSuplly\n}\n",
  "sourcePath": "/home/rafamessias/Documents/udacity/Ethereum/real-estate-marketplace/contracts/SolnSquareVerifier.sol",
  "compiler": {
    "name": "solc",
    "version": "0.8.15+commit.e14f2714.Emscripten.clang"
  },
  "schemaVersion": "3.4.8",
  "updatedAt": "2022-09-24T13:49:28.595Z",
  "devdoc": {
    "kind": "dev",
    "methods": {
      "isApprovedForAll(address,address)": {
        "details": "Tells whether an operator is approved by a given owner",
        "params": {
          "operator": "operator address which you want to query the approval of",
          "owner": "owner address which you want to query the approval of"
        },
        "returns": {
          "_0": "bool whether the given operator is approved by the given owner"
        }
      },
      "setApprovalForAll(address,bool)": {
        "details": "Sets or unsets the approval of a given operator An operator is allowed to transfer all tokens of the sender on their behalf",
        "params": {
          "approved": "representing the status of the approval to be set",
          "to": "operator address to set the approval"
        }
      },
      "supportsInterface(bytes4)": {
        "details": "implement supportsInterface(bytes4) using a lookup table"
      },
      "tokenByIndex(uint256)": {
        "details": "Gets the token ID at a given index of all the tokens in this contract Reverts if the index is greater or equal to the total number of tokens",
        "params": {
          "index": "uint256 representing the index to be accessed of the tokens list"
        },
        "returns": {
          "_0": "uint256 token ID at the given index of the tokens list"
        }
      },
      "tokenOfOwnerByIndex(address,uint256)": {
        "details": "Gets the token ID at a given index of the tokens list of the requested owner",
        "params": {
          "index": "uint256 representing the index to be accessed of the requested tokens list",
          "owner": "address owning the tokens list to be accessed"
        },
        "returns": {
          "_0": "uint256 token ID at the given index of the tokens list owned by the requested address"
        }
      },
      "totalSupply()": {
        "details": "Gets the total amount of tokens stored by the contract",
        "returns": {
          "_0": "uint256 representing the total amount of tokens"
        }
      }
    },
    "version": 1
  },
  "userdoc": {
    "kind": "user",
    "methods": {},
    "version": 1
  }
}