{
  "contractName": "SolnSquareVerifier",
  "abi": [
    {
      "anonymous": false,
      "inputs": [
        {
          "indexed": true,
          "internalType": "address",
          "name": "owner",
          "type": "address"
        },
        {
          "indexed": true,
          "internalType": "address",
          "name": "approved",
          "type": "address"
        },
        {
          "indexed": true,
          "internalType": "uint256",
          "name": "tokenId",
          "type": "uint256"
        }
      ],
      "name": "Approval",
      "type": "event"
    },
    {
      "anonymous": false,
      "inputs": [
        {
          "indexed": true,
          "internalType": "address",
          "name": "owner",
          "type": "address"
        },
        {
          "indexed": true,
          "internalType": "address",
          "name": "operator",
          "type": "address"
        },
        {
          "indexed": false,
          "internalType": "bool",
          "name": "approved",
          "type": "bool"
        }
      ],
      "name": "ApprovalForAll",
      "type": "event"
    },
    {
      "anonymous": false,
      "inputs": [
        {
          "indexed": true,
          "internalType": "address",
          "name": "oldOnwer",
          "type": "address"
        },
        {
          "indexed": true,
          "internalType": "address",
          "name": "newOwner",
          "type": "address"
        }
      ],
      "name": "OwnerTransferred",
      "type": "event"
    },
    {
      "anonymous": false,
      "inputs": [
        {
          "indexed": true,
          "internalType": "address",
          "name": "trigger",
          "type": "address"
        }
      ],
      "name": "Paused",
      "type": "event"
    },
    {
      "anonymous": false,
      "inputs": [
        {
          "indexed": true,
          "internalType": "bytes32",
          "name": "solution",
          "type": "bytes32"
        },
        {
          "indexed": true,
          "internalType": "address",
          "name": "account",
          "type": "address"
        },
        {
          "indexed": false,
          "internalType": "uint256",
          "name": "tokenId",
          "type": "uint256"
        }
      ],
      "name": "SolutionAdded",
      "type": "event"
    },
    {
      "anonymous": false,
      "inputs": [
        {
          "indexed": true,
          "internalType": "address",
          "name": "from",
          "type": "address"
        },
        {
          "indexed": true,
          "internalType": "address",
          "name": "to",
          "type": "address"
        },
        {
          "indexed": true,
          "internalType": "uint256",
          "name": "tokenId",
          "type": "uint256"
        }
      ],
      "name": "Transfer",
      "type": "event"
    },
    {
      "anonymous": false,
      "inputs": [
        {
          "indexed": true,
          "internalType": "address",
          "name": "trigger",
          "type": "address"
        }
      ],
      "name": "Unpaused",
      "type": "event"
    },
    {
      "inputs": [
        {
          "internalType": "address",
          "name": "to",
          "type": "address"
        },
        {
          "internalType": "uint256",
          "name": "tokenId",
          "type": "uint256"
        }
      ],
      "name": "approve",
      "outputs": [],
      "stateMutability": "nonpayable",
      "type": "function"
    },
    {
      "inputs": [
        {
          "internalType": "address",
          "name": "owner",
          "type": "address"
        }
      ],
      "name": "balanceOf",
      "outputs": [
        {
          "internalType": "uint256",
          "name": "",
          "type": "uint256"
        }
      ],
      "stateMutability": "view",
      "type": "function",
      "constant": true
    },
    {
      "inputs": [],
      "name": "baseTokenURI",
      "outputs": [
        {
          "internalType": "string",
          "name": "",
          "type": "string"
        }
      ],
      "stateMutability": "view",
      "type": "function",
      "constant": true
    },
    {
      "inputs": [],
      "name": "contractOwner",
      "outputs": [
        {
          "internalType": "address",
          "name": "",
          "type": "address"
        }
      ],
      "stateMutability": "view",
      "type": "function",
      "constant": true
    },
    {
      "inputs": [
        {
          "internalType": "uint256",
          "name": "tokenId",
          "type": "uint256"
        }
      ],
      "name": "getApproved",
      "outputs": [
        {
          "internalType": "address",
          "name": "",
          "type": "address"
        }
      ],
      "stateMutability": "view",
      "type": "function",
      "constant": true
    },
    {
      "inputs": [
        {
          "internalType": "address",
          "name": "owner",
          "type": "address"
        },
        {
          "internalType": "address",
          "name": "operator",
          "type": "address"
        }
      ],
      "name": "isApprovedForAll",
      "outputs": [
        {
          "internalType": "bool",
          "name": "",
          "type": "bool"
        }
      ],
      "stateMutability": "view",
      "type": "function",
      "constant": true
    },
    {
      "inputs": [
        {
          "internalType": "address",
          "name": "to",
          "type": "address"
        },
        {
          "internalType": "uint256",
          "name": "tokenId",
          "type": "uint256"
        }
      ],
      "name": "mint",
      "outputs": [
        {
          "internalType": "bool",
          "name": "",
          "type": "bool"
        }
      ],
      "stateMutability": "nonpayable",
      "type": "function"
    },
    {
      "inputs": [],
      "name": "name",
      "outputs": [
        {
          "internalType": "string",
          "name": "",
          "type": "string"
        }
      ],
      "stateMutability": "view",
      "type": "function",
      "constant": true
    },
    {
      "inputs": [
        {
          "internalType": "uint256",
          "name": "tokenId",
          "type": "uint256"
        }
      ],
      "name": "ownerOf",
      "outputs": [
        {
          "internalType": "address",
          "name": "",
          "type": "address"
        }
      ],
      "stateMutability": "view",
      "type": "function",
      "constant": true
    },
    {
      "inputs": [
        {
          "internalType": "address",
          "name": "from",
          "type": "address"
        },
        {
          "internalType": "address",
          "name": "to",
          "type": "address"
        },
        {
          "internalType": "uint256",
          "name": "tokenId",
          "type": "uint256"
        }
      ],
      "name": "safeTransferFrom",
      "outputs": [],
      "stateMutability": "nonpayable",
      "type": "function"
    },
    {
      "inputs": [
        {
          "internalType": "address",
          "name": "from",
          "type": "address"
        },
        {
          "internalType": "address",
          "name": "to",
          "type": "address"
        },
        {
          "internalType": "uint256",
          "name": "tokenId",
          "type": "uint256"
        },
        {
          "internalType": "bytes",
          "name": "_data",
          "type": "bytes"
        }
      ],
      "name": "safeTransferFrom",
      "outputs": [],
      "stateMutability": "nonpayable",
      "type": "function"
    },
    {
      "inputs": [
        {
          "internalType": "address",
          "name": "to",
          "type": "address"
        },
        {
          "internalType": "bool",
          "name": "approved",
          "type": "bool"
        }
      ],
      "name": "setApprovalForAll",
      "outputs": [],
      "stateMutability": "nonpayable",
      "type": "function"
    },
    {
      "inputs": [
        {
          "internalType": "bool",
          "name": "_paused",
          "type": "bool"
        }
      ],
      "name": "setPaused",
      "outputs": [],
      "stateMutability": "nonpayable",
      "type": "function"
    },
    {
      "inputs": [
        {
          "internalType": "bytes4",
          "name": "interfaceId",
          "type": "bytes4"
        }
      ],
      "name": "supportsInterface",
      "outputs": [
        {
          "internalType": "bool",
          "name": "",
          "type": "bool"
        }
      ],
      "stateMutability": "view",
      "type": "function",
      "constant": true
    },
    {
      "inputs": [],
      "name": "symbol",
      "outputs": [
        {
          "internalType": "string",
          "name": "",
          "type": "string"
        }
      ],
      "stateMutability": "view",
      "type": "function",
      "constant": true
    },
    {
      "inputs": [
        {
          "internalType": "uint256",
          "name": "index",
          "type": "uint256"
        }
      ],
      "name": "tokenByIndex",
      "outputs": [
        {
          "internalType": "uint256",
          "name": "",
          "type": "uint256"
        }
      ],
      "stateMutability": "view",
      "type": "function",
      "constant": true
    },
    {
      "inputs": [
        {
          "internalType": "address",
          "name": "owner",
          "type": "address"
        },
        {
          "internalType": "uint256",
          "name": "index",
          "type": "uint256"
        }
      ],
      "name": "tokenOfOwnerByIndex",
      "outputs": [
        {
          "internalType": "uint256",
          "name": "",
          "type": "uint256"
        }
      ],
      "stateMutability": "view",
      "type": "function",
      "constant": true
    },
    {
      "inputs": [
        {
          "internalType": "uint256",
          "name": "tokenId",
          "type": "uint256"
        }
      ],
      "name": "tokenURI",
      "outputs": [
        {
          "internalType": "string",
          "name": "",
          "type": "string"
        }
      ],
      "stateMutability": "view",
      "type": "function",
      "constant": true
    },
    {
      "inputs": [],
      "name": "totalSupply",
      "outputs": [
        {
          "internalType": "uint256",
          "name": "",
          "type": "uint256"
        }
      ],
      "stateMutability": "view",
      "type": "function",
      "constant": true
    },
    {
      "inputs": [
        {
          "internalType": "address",
          "name": "from",
          "type": "address"
        },
        {
          "internalType": "address",
          "name": "to",
          "type": "address"
        },
        {
          "internalType": "uint256",
          "name": "tokenId",
          "type": "uint256"
        }
      ],
      "name": "transferFrom",
      "outputs": [],
      "stateMutability": "nonpayable",
      "type": "function"
    },
    {
      "inputs": [
        {
          "internalType": "address",
          "name": "newOwner",
          "type": "address"
        }
      ],
      "name": "transferOwnership",
      "outputs": [],
      "stateMutability": "nonpayable",
      "type": "function"
    },
    {
      "inputs": [
        {
          "components": [
            {
              "components": [
                {
                  "internalType": "uint256",
                  "name": "X",
                  "type": "uint256"
                },
                {
                  "internalType": "uint256",
                  "name": "Y",
                  "type": "uint256"
                }
              ],
              "internalType": "struct Pairing.G1Point",
              "name": "a",
              "type": "tuple"
            },
            {
              "components": [
                {
                  "internalType": "uint256[2]",
                  "name": "X",
                  "type": "uint256[2]"
                },
                {
                  "internalType": "uint256[2]",
                  "name": "Y",
                  "type": "uint256[2]"
                }
              ],
              "internalType": "struct Pairing.G2Point",
              "name": "b",
              "type": "tuple"
            },
            {
              "components": [
                {
                  "internalType": "uint256",
                  "name": "X",
                  "type": "uint256"
                },
                {
                  "internalType": "uint256",
                  "name": "Y",
                  "type": "uint256"
                }
              ],
              "internalType": "struct Pairing.G1Point",
              "name": "c",
              "type": "tuple"
            }
          ],
          "internalType": "struct Verifier.Proof",
          "name": "proof",
          "type": "tuple"
        },
        {
          "internalType": "uint256[2]",
          "name": "input",
          "type": "uint256[2]"
        }
      ],
      "name": "verifyTx",
      "outputs": [
        {
          "internalType": "bool",
          "name": "r",
          "type": "bool"
        }
      ],
      "stateMutability": "view",
      "type": "function",
      "constant": true
    },
    {
      "inputs": [
        {
          "internalType": "address",
          "name": "to",
          "type": "address"
        },
        {
          "internalType": "uint256",
          "name": "tokenId",
          "type": "uint256"
        },
        {
          "components": [
            {
              "components": [
                {
                  "internalType": "uint256",
                  "name": "X",
                  "type": "uint256"
                },
                {
                  "internalType": "uint256",
                  "name": "Y",
                  "type": "uint256"
                }
              ],
              "internalType": "struct Pairing.G1Point",
              "name": "a",
              "type": "tuple"
            },
            {
              "components": [
                {
                  "internalType": "uint256[2]",
                  "name": "X",
                  "type": "uint256[2]"
                },
                {
                  "internalType": "uint256[2]",
                  "name": "Y",
                  "type": "uint256[2]"
                }
              ],
              "internalType": "struct Pairing.G2Point",
              "name": "b",
              "type": "tuple"
            },
            {
              "components": [
                {
                  "internalType": "uint256",
                  "name": "X",
                  "type": "uint256"
                },
                {
                  "internalType": "uint256",
                  "name": "Y",
                  "type": "uint256"
                }
              ],
              "internalType": "struct Pairing.G1Point",
              "name": "c",
              "type": "tuple"
            }
          ],
          "internalType": "struct Verifier.Proof",
          "name": "proof",
          "type": "tuple"
        },
        {
          "internalType": "uint256[2]",
          "name": "input",
          "type": "uint256[2]"
        }
      ],
      "name": "mintAfterVerification",
      "outputs": [],
      "stateMutability": "nonpayable",
      "type": "function"
    },
    {
      "inputs": [
        {
          "components": [
            {
              "components": [
                {
                  "internalType": "uint256",
                  "name": "X",
                  "type": "uint256"
                },
                {
                  "internalType": "uint256",
                  "name": "Y",
                  "type": "uint256"
                }
              ],
              "internalType": "struct Pairing.G1Point",
              "name": "a",
              "type": "tuple"
            },
            {
              "components": [
                {
                  "internalType": "uint256[2]",
                  "name": "X",
                  "type": "uint256[2]"
                },
                {
                  "internalType": "uint256[2]",
                  "name": "Y",
                  "type": "uint256[2]"
                }
              ],
              "internalType": "struct Pairing.G2Point",
              "name": "b",
              "type": "tuple"
            },
            {
              "components": [
                {
                  "internalType": "uint256",
                  "name": "X",
                  "type": "uint256"
                },
                {
                  "internalType": "uint256",
                  "name": "Y",
                  "type": "uint256"
                }
              ],
              "internalType": "struct Pairing.G1Point",
              "name": "c",
              "type": "tuple"
            }
          ],
          "internalType": "struct Verifier.Proof",
          "name": "proof",
          "type": "tuple"
        },
        {
          "internalType": "uint256[2]",
          "name": "input",
          "type": "uint256[2]"
        }
      ],
      "name": "zkVerify",
      "outputs": [
        {
          "internalType": "bool",
          "name": "",
          "type": "bool"
        }
      ],
      "stateMutability": "view",
      "type": "function",
      "constant": true
    }
  ],
  "bytecode": "0x60806040523480156200001157600080fd5b506040518060400160405280600b81526020017f5265616c204573746174650000000000000000000000000000000000000000008152506040518060400160405280600581526020017f52454e46540000000000000000000000000000000000000000000000000000008152506040518060600160405280603f815260200162004e1b603f9139336000806101000a81548173ffffffffffffffffffffffffffffffffffffffff021916908373ffffffffffffffffffffffffffffffffffffffff1602179055503373ffffffffffffffffffffffffffffffffffffffff16600073ffffffffffffffffffffffffffffffffffffffff167f8934ce4adea8d9ce0d714d2c22b86790e41b7731c84b926fbbdc1d40ff6533c960405160405180910390a360008060146101000a81548160ff021916908315150217905550620001656301ffc9a760e01b620001ec60201b60201c565b6200017d6380ac58cd60e01b620001ec60201b60201c565b6200019563780e9d6360e01b620001ec60201b60201c565b82600a9081620001a6919062000505565b5081600b9081620001b8919062000505565b5080600c9081620001ca919062000505565b50620001e3635b5e139f60e01b620001ec60201b60201c565b505050620005ec565b63ffffffff60e01b817bffffffffffffffffffffffffffffffffffffffffffffffffffffffff1916036200021f57600080fd5b6001806000837bffffffffffffffffffffffffffffffffffffffffffffffffffffffff19167bffffffffffffffffffffffffffffffffffffffffffffffffffffffff1916815260200190815260200160002060006101000a81548160ff02191690831515021790555050565b600081519050919050565b7f4e487b7100000000000000000000000000000000000000000000000000000000600052604160045260246000fd5b7f4e487b7100000000000000000000000000000000000000000000000000000000600052602260045260246000fd5b600060028204905060018216806200030d57607f821691505b602082108103620003235762000322620002c5565b5b50919050565b60008190508160005260206000209050919050565b60006020601f8301049050919050565b600082821b905092915050565b6000600883026200038d7fffffffffffffffffffffffffffffffffffffffffffffffffffffffffffffffff826200034e565b6200039986836200034e565b95508019841693508086168417925050509392505050565b6000819050919050565b6000819050919050565b6000620003e6620003e0620003da84620003b1565b620003bb565b620003b1565b9050919050565b6000819050919050565b6200040283620003c5565b6200041a6200041182620003ed565b8484546200035b565b825550505050565b600090565b6200043162000422565b6200043e818484620003f7565b505050565b5b8181101562000466576200045a60008262000427565b60018101905062000444565b5050565b601f821115620004b5576200047f8162000329565b6200048a846200033e565b810160208510156200049a578190505b620004b2620004a9856200033e565b83018262000443565b50505b505050565b600082821c905092915050565b6000620004da60001984600802620004ba565b1980831691505092915050565b6000620004f58383620004c7565b9150826002028217905092915050565b62000510826200028b565b67ffffffffffffffff8111156200052c576200052b62000296565b5b620005388254620002f4565b620005458282856200046a565b600060209050601f8311600181146200057d576000841562000568578287015190505b620005748582620004e7565b865550620005e4565b601f1984166200058d8662000329565b60005b82811015620005b75784890151825560018201915060208501945060208101905062000590565b86831015620005d75784890151620005d3601f891682620004c7565b8355505b6001600288020188555050505b505050505050565b61481f80620005fc6000396000f3fe608060405234801561001057600080fd5b50600436106101585760003560e01c80636352211e116100c3578063b88d4fde1161007c578063b88d4fde1461040f578063c87b56dd1461042b578063ce606ee01461045b578063d547cfb714610479578063e985e9c514610497578063f2fde38b146104c757610158565b80636352211e1461032957806370a0823114610359578063959eb0c31461038957806395d89b41146103a5578063a22cb465146103c3578063b02ac800146103df57610158565b806323b872dd1161011557806323b872dd146102315780632f745c591461024d57806340c10f191461027d57806342842e0e146102ad57806343cd76fc146102c95780634f6ccce7146102f957610158565b806301ffc9a71461015d57806306fdde031461018d578063081812fc146101ab578063095ea7b3146101db57806316c38b3c146101f757806318160ddd14610213575b600080fd5b6101776004803603810190610172919061334a565b6104e3565b6040516101849190613392565b60405180910390f35b61019561054b565b6040516101a29190613446565b60405180910390f35b6101c560048036038101906101c0919061349e565b6105dd565b6040516101d2919061350c565b60405180910390f35b6101f560048036038101906101f09190613553565b61061a565b005b610211600480360381019061020c91906135bf565b6107ed565b005b61021b61092a565b60405161022891906135fb565b60405180910390f35b61024b60048036038101906102469190613616565b610937565b005b61026760048036038101906102629190613553565b6109b0565b60405161027491906135fb565b60405180910390f35b61029760048036038101906102929190613553565b610a2a565b6040516102a49190613392565b60405180910390f35b6102c760048036038101906102c29190613616565b610b2e565b005b6102e360048036038101906102de91906138a9565b610ba4565b6040516102f09190613392565b60405180910390f35b610313600480360381019061030e919061349e565b610c71565b60405161032091906135fb565b60405180910390f35b610343600480360381019061033e919061349e565b610cac565b604051610350919061350c565b60405180910390f35b610373600480360381019061036e91906138eb565b610ce9565b60405161038091906135fb565b60405180910390f35b6103a3600480360381019061039e9190613918565b610d39565b005b6103ad610e77565b6040516103ba9190613446565b60405180910390f35b6103dd60048036038101906103d89190613981565b610f09565b005b6103f960048036038101906103f491906138a9565b611094565b6040516104069190613392565b60405180910390f35b61042960048036038101906104249190613a76565b6110a8565b005b6104456004803603810190610440919061349e565b611124565b6040516104529190613446565b60405180910390f35b6104636111db565b604051610470919061350c565b60405180910390f35b610481611204565b60405161048e9190613446565b60405180910390f35b6104b160048036038101906104ac9190613af9565b611296565b6040516104be9190613392565b60405180910390f35b6104e160048036038101906104dc91906138eb565b61132a565b005b600060016000837bffffffffffffffffffffffffffffffffffffffffffffffffffffffff19167bffffffffffffffffffffffffffffffffffffffffffffffffffffffff1916815260200190815260200160002060009054906101000a900460ff169050919050565b6060600a805461055a90613b68565b80601f016020809104026020016040519081016040528092919081815260200182805461058690613b68565b80156105d35780601f106105a8576101008083540402835291602001916105d3565b820191906000526020600020905b8154815290600101906020018083116105b657829003601f168201915b5050505050905090565b60006003600083815260200190815260200160002060009054906101000a900473ffffffffffffffffffffffffffffffffffffffff169050919050565b60001515600060149054906101000a900460ff16151514610670576040517f08c379a000000000000000000000000000000000000000000000000000000000815260040161066790613be5565b60405180910390fd5b600061067b82610cac565b90508073ffffffffffffffffffffffffffffffffffffffff168373ffffffffffffffffffffffffffffffffffffffff16036106eb576040517f08c379a00000000000000000000000000000000000000000000000000000000081526004016106e290613c77565b60405180910390fd5b6106f36111db565b73ffffffffffffffffffffffffffffffffffffffff163373ffffffffffffffffffffffffffffffffffffffff16148061073257506107318133611296565b5b61073b57600080fd5b336003600084815260200190815260200160002060006101000a81548173ffffffffffffffffffffffffffffffffffffffff021916908373ffffffffffffffffffffffffffffffffffffffff160217905550813373ffffffffffffffffffffffffffffffffffffffff168273ffffffffffffffffffffffffffffffffffffffff167f8c5be1e5ebec7d5bd14f71427d1e84f3dd0314c0f7b2291e5b200ac8c7c3b92560405160405180910390a4505050565b60008054906101000a900473ffffffffffffffffffffffffffffffffffffffff1673ffffffffffffffffffffffffffffffffffffffff163373ffffffffffffffffffffffffffffffffffffffff161461087b576040517f08c379a000000000000000000000000000000000000000000000000000000000815260040161087290613ce3565b60405180910390fd5b80600060146101000a81548160ff02191690831515021790555080156108e3573373ffffffffffffffffffffffffffffffffffffffff167f62e78cea01bee320cd4e420270b5ea74000d11b0c9f74754ebdbfc544b05a25860405160405180910390a2610927565b3373ffffffffffffffffffffffffffffffffffffffff167f5db9ee0a495bf2e6ff9c91a7834c1ba4fdd244a5e8aa4e537bd38aeae4b073aa60405160405180910390a25b50565b6000600880549050905090565b60001515600060149054906101000a900460ff1615151461098d576040517f08c379a000000000000000000000000000000000000000000000000000000000815260040161098490613be5565b60405180910390fd5b61099733826114eb565b6109a057600080fd5b6109ab838383611580565b505050565b60006109bb83610ce9565b82106109c657600080fd5b600660008473ffffffffffffffffffffffffffffffffffffffff1673ffffffffffffffffffffffffffffffffffffffff1681526020019081526020016000208281548110610a1757610a16613d03565b5b9060005260206000200154905092915050565b60008060009054906101000a900473ffffffffffffffffffffffffffffffffffffffff1673ffffffffffffffffffffffffffffffffffffffff163373ffffffffffffffffffffffffffffffffffffffff1614610abb576040517f08c379a0000000000000000000000000000000000000000000000000000000008152600401610ab290613ce3565b60405180910390fd5b60001515600060149054906101000a900460ff16151514610b11576040517f08c379a0000000000000000000000000000000000000000000000000000000008152600401610b0890613be5565b60405180910390fd5b610b1b83836115fa565b610b2482611671565b6001905092915050565b60001515600060149054906101000a900460ff16151514610b84576040517f08c379a0000000000000000000000000000000000000000000000000000000008152600401610b7b90613be5565b60405180910390fd5b610b9f838383604051806020016040528060008152506110a8565b505050565b600080600267ffffffffffffffff811115610bc257610bc161366e565b5b604051908082528060200260200182016040528015610bf05781602001602082028036833780820191505090505b50905060005b6002811015610c4957838160028110610c1257610c11613d03565b5b6020020151828281518110610c2a57610c29613d03565b5b6020026020010181815250508080610c4190613d61565b915050610bf6565b506000610c568286611727565b03610c65576001915050610c6b565b60009150505b92915050565b6000610c7b61092a565b8210610c8657600080fd5b60088281548110610c9a57610c99613d03565b5b90600052602060002001549050919050565b60006002600083815260200190815260200160002060009054906101000a900473ffffffffffffffffffffffffffffffffffffffff169050919050565b6000610d32600460008473ffffffffffffffffffffffffffffffffffffffff1673ffffffffffffffffffffffffffffffffffffffff1681526020019081526020016000206118be565b9050919050565b60001515600060149054906101000a900460ff16151514610d8f576040517f08c379a0000000000000000000000000000000000000000000000000000000008152600401610d8690613be5565b60405180910390fd5b6000610d9b8383611094565b90506001151581151514610de4576040517f08c379a0000000000000000000000000000000000000000000000000000000008152600401610ddb90613e1b565b60405180910390fd5b6000610df08686610a2a565b90506001151581151514610e39576040517f08c379a0000000000000000000000000000000000000000000000000000000008152600401610e3090613e87565b60405180910390fd5b600083604051602001610e4c9190613f52565b604051602081830303815290604052805190602001209050610e6e81876118cc565b50505050505050565b6060600b8054610e8690613b68565b80601f0160208091040260200160405190810160405280929190818152602001828054610eb290613b68565b8015610eff5780601f10610ed457610100808354040283529160200191610eff565b820191906000526020600020905b815481529060010190602001808311610ee257829003601f168201915b5050505050905090565b60001515600060149054906101000a900460ff16151514610f5f576040517f08c379a0000000000000000000000000000000000000000000000000000000008152600401610f5690613be5565b60405180910390fd5b3373ffffffffffffffffffffffffffffffffffffffff168273ffffffffffffffffffffffffffffffffffffffff1603610f9757600080fd5b80600560003373ffffffffffffffffffffffffffffffffffffffff1673ffffffffffffffffffffffffffffffffffffffff16815260200190815260200160002060008473ffffffffffffffffffffffffffffffffffffffff1673ffffffffffffffffffffffffffffffffffffffff16815260200190815260200160002060006101000a81548160ff0219169083151502179055508173ffffffffffffffffffffffffffffffffffffffff163373ffffffffffffffffffffffffffffffffffffffff167f17307eab39ab6107e8899845ad3d59bd9653f200f220920489ca2b5937696c31836040516110889190613392565b60405180910390a35050565b60006110a08383610ba4565b905092915050565b60001515600060149054906101000a900460ff161515146110fe576040517f08c379a00000000000000000000000000000000000000000000000000000000081526004016110f590613be5565b60405180910390fd5b611109848484610937565b6111158484848461198f565b61111e57600080fd5b50505050565b606061112f82611a97565b61113857600080fd5b600d6000838152602001908152602001600020805461115690613b68565b80601f016020809104026020016040519081016040528092919081815260200182805461118290613b68565b80156111cf5780601f106111a4576101008083540402835291602001916111cf565b820191906000526020600020905b8154815290600101906020018083116111b257829003601f168201915b50505050509050919050565b60008060009054906101000a900473ffffffffffffffffffffffffffffffffffffffff16905090565b6060600c805461121390613b68565b80601f016020809104026020016040519081016040528092919081815260200182805461123f90613b68565b801561128c5780601f106112615761010080835404028352916020019161128c565b820191906000526020600020905b81548152906001019060200180831161126f57829003601f168201915b5050505050905090565b6000600560008473ffffffffffffffffffffffffffffffffffffffff1673ffffffffffffffffffffffffffffffffffffffff16815260200190815260200160002060008373ffffffffffffffffffffffffffffffffffffffff1673ffffffffffffffffffffffffffffffffffffffff16815260200190815260200160002060009054906101000a900460ff16905092915050565b60008054906101000a900473ffffffffffffffffffffffffffffffffffffffff1673ffffffffffffffffffffffffffffffffffffffff163373ffffffffffffffffffffffffffffffffffffffff16146113b8576040517f08c379a00000000000000000000000000000000000000000000000000000000081526004016113af90613ce3565b60405180910390fd5b600073ffffffffffffffffffffffffffffffffffffffff168173ffffffffffffffffffffffffffffffffffffffff1603611427576040517f08c379a000000000000000000000000000000000000000000000000000000000815260040161141e90613fdf565b60405180910390fd5b60008060009054906101000a900473ffffffffffffffffffffffffffffffffffffffff169050816000806101000a81548173ffffffffffffffffffffffffffffffffffffffff021916908373ffffffffffffffffffffffffffffffffffffffff1602179055508173ffffffffffffffffffffffffffffffffffffffff168173ffffffffffffffffffffffffffffffffffffffff167f8934ce4adea8d9ce0d714d2c22b86790e41b7731c84b926fbbdc1d40ff6533c960405160405180910390a35050565b6000806114f783610cac565b90508073ffffffffffffffffffffffffffffffffffffffff168473ffffffffffffffffffffffffffffffffffffffff16148061156657508373ffffffffffffffffffffffffffffffffffffffff1661154e846105dd565b73ffffffffffffffffffffffffffffffffffffffff16145b8061157757506115768185611296565b5b91505092915050565b60001515600060149054906101000a900460ff161515146115d6576040517f08c379a00000000000000000000000000000000000000000000000000000000081526004016115cd90613be5565b60405180910390fd5b6115e1838383611ade565b6115eb8382611d8d565b6115f58282611f93565b505050565b60001515600060149054906101000a900460ff16151514611650576040517f08c379a000000000000000000000000000000000000000000000000000000000815260040161164790613be5565b60405180910390fd5b61165a82826120ad565b6116648282611f93565b61166d816122ba565b5050565b60001515600060149054906101000a900460ff161515146116c7576040517f08c379a00000000000000000000000000000000000000000000000000000000081526004016116be90613be5565b60405180910390fd5b6116d081611a97565b6116d957600080fd5b600c6116e482612359565b6040516020016116f59291906140de565b604051602081830303815290604052600d6000838152602001908152602001600020908161172391906142ae565b5050565b6000807f30644e72e131a029b85045b68181585d2833e84879b9709143e1f593f0000001905060006117576124b9565b90508060800151516001865161176d9190614380565b1461177757600080fd5b60006040518060400160405280600081526020016000815250905060005b865181101561183057838782815181106117b2576117b1613d03565b5b6020026020010151106117c457600080fd5b61181b8261181685608001516001856117dd9190614380565b815181106117ee576117ed613d03565b5b60200260200101518a858151811061180957611808613d03565b5b6020026020010151612934565b6129d6565b9150808061182890613d61565b915050611795565b5061185a81836080015160008151811061184d5761184c613d03565b5b60200260200101516129d6565b90506118a08560000151866020015161187284612a9e565b85604001516118848a60400151612a9e565b87606001516118968960000151612a9e565b8960200151612b43565b6118b057600193505050506118b8565b600093505050505b92915050565b600081600001549050919050565b80600e60008481526020019081526020016000206000018190555033600e600084815260200190815260200160002060010160006101000a81548173ffffffffffffffffffffffffffffffffffffffff021916908373ffffffffffffffffffffffffffffffffffffffff1602179055503373ffffffffffffffffffffffffffffffffffffffff16827fd54d9ef5d3801dc9b4c79ac9cb0d5ed3b9c83d168bd86bb6e937ca7df70392da8360405161198391906135fb565b60405180910390a35050565b60006119b08473ffffffffffffffffffffffffffffffffffffffff16612d10565b6119bd5760019050611a8f565b60008473ffffffffffffffffffffffffffffffffffffffff1663150b7a02338887876040518563ffffffff1660e01b81526004016119fe9493929190614420565b6020604051808303816000875af1158015611a1d573d6000803e3d6000fd5b505050506040513d601f19601f82011682018060405250810190611a419190614481565b905063150b7a0260e01b7bffffffffffffffffffffffffffffffffffffffffffffffffffffffff1916817bffffffffffffffffffffffffffffffffffffffffffffffffffffffff1916149150505b949350505050565b600080611aa383610cac565b9050600073ffffffffffffffffffffffffffffffffffffffff168173ffffffffffffffffffffffffffffffffffffffff161415915050919050565b60001515600060149054906101000a900460ff16151514611b34576040517f08c379a0000000000000000000000000000000000000000000000000000000008152600401611b2b90613be5565b60405180910390fd5b6002600082815260200190815260200160002060009054906101000a900473ffffffffffffffffffffffffffffffffffffffff1673ffffffffffffffffffffffffffffffffffffffff168373ffffffffffffffffffffffffffffffffffffffff1614611bd5576040517f08c379a0000000000000000000000000000000000000000000000000000000008152600401611bcc906144fa565b60405180910390fd5b600073ffffffffffffffffffffffffffffffffffffffff168273ffffffffffffffffffffffffffffffffffffffff1603611c44576040517f08c379a0000000000000000000000000000000000000000000000000000000008152600401611c3b90614566565b60405180910390fd5b611c4d81612d33565b611c94600460008573ffffffffffffffffffffffffffffffffffffffff1673ffffffffffffffffffffffffffffffffffffffff168152602001908152602001600020612df1565b611cdb600460008473ffffffffffffffffffffffffffffffffffffffff1673ffffffffffffffffffffffffffffffffffffffff168152602001908152602001600020612e4d565b816002600083815260200190815260200160002060006101000a81548173ffffffffffffffffffffffffffffffffffffffff021916908373ffffffffffffffffffffffffffffffffffffffff160217905550808273ffffffffffffffffffffffffffffffffffffffff168473ffffffffffffffffffffffffffffffffffffffff167fddf252ad1be2c89b69c2b068fc378daa952ba7f163c4a11628f55a4df523b3ef60405160405180910390a4505050565b60001515600060149054906101000a900460ff16151514611de3576040517f08c379a0000000000000000000000000000000000000000000000000000000008152600401611dda90613be5565b60405180910390fd5b6000611e3b6001600660008673ffffffffffffffffffffffffffffffffffffffff1673ffffffffffffffffffffffffffffffffffffffff16815260200190815260200160002080549050612e6390919063ffffffff16565b9050600060076000848152602001908152602001600020549050818114611f36576000600660008673ffffffffffffffffffffffffffffffffffffffff1673ffffffffffffffffffffffffffffffffffffffff1681526020019081526020016000208381548110611eaf57611eae613d03565b5b9060005260206000200154905080600660008773ffffffffffffffffffffffffffffffffffffffff1673ffffffffffffffffffffffffffffffffffffffff1681526020019081526020016000208381548110611f0e57611f0d613d03565b5b9060005260206000200181905550816007600083815260200190815260200160002081905550505b611f8c6001600660008773ffffffffffffffffffffffffffffffffffffffff1673ffffffffffffffffffffffffffffffffffffffff16815260200190815260200160002080549050612e6390919063ffffffff16565b5050505050565b60001515600060149054906101000a900460ff16151514611fe9576040517f08c379a0000000000000000000000000000000000000000000000000000000008152600401611fe090613be5565b60405180910390fd5b600660008373ffffffffffffffffffffffffffffffffffffffff1673ffffffffffffffffffffffffffffffffffffffff168152602001908152602001600020805490506007600083815260200190815260200160002081905550600660008373ffffffffffffffffffffffffffffffffffffffff1673ffffffffffffffffffffffffffffffffffffffff1681526020019081526020016000208190806001815401808255809150506001900390600052602060002001600090919091909150555050565b60001515600060149054906101000a900460ff16151514612103576040517f08c379a00000000000000000000000000000000000000000000000000000000081526004016120fa90613be5565b60405180910390fd5b600073ffffffffffffffffffffffffffffffffffffffff168273ffffffffffffffffffffffffffffffffffffffff1603612172576040517f08c379a0000000000000000000000000000000000000000000000000000000008152600401612169906145d2565b60405180910390fd5b6000151561217f82611a97565b1515146121c1576040517f08c379a00000000000000000000000000000000000000000000000000000000081526004016121b89061463e565b60405180910390fd5b816002600083815260200190815260200160002060006101000a81548173ffffffffffffffffffffffffffffffffffffffff021916908373ffffffffffffffffffffffffffffffffffffffff16021790555061225a600460008473ffffffffffffffffffffffffffffffffffffffff1673ffffffffffffffffffffffffffffffffffffffff168152602001908152602001600020612e4d565b808273ffffffffffffffffffffffffffffffffffffffff16600073ffffffffffffffffffffffffffffffffffffffff167fddf252ad1be2c89b69c2b068fc378daa952ba7f163c4a11628f55a4df523b3ef60405160405180910390a45050565b60001515600060149054906101000a900460ff16151514612310576040517f08c379a000000000000000000000000000000000000000000000000000000000815260040161230790613be5565b60405180910390fd5b6008805490506009600083815260200190815260200160002081905550600881908060018154018082558091505060019003906000526020600020016000909190919091505550565b6060600082036123a0576040518060400160405280600181526020017f300000000000000000000000000000000000000000000000000000000000000081525090506124b4565b600082905060005b600082146123d25780806123bb90613d61565b915050600a826123cb919061468d565b91506123a8565b60008167ffffffffffffffff8111156123ee576123ed61366e565b5b6040519080825280601f01601f1916602001820160405280156124205781602001600182028036833780820191505090505b5090505b600085146124ad5760018261243991906146be565b9150600a8561244891906146f2565b60306124549190614380565b60f81b81838151811061246a57612469613d03565b5b60200101907effffffffffffffffffffffffffffffffffffffffffffffffffffffffffffff1916908160001a905350600a856124a6919061468d565b9450612424565b8093505050505b919050565b6124c16131cf565b60405180604001604052807f2bceacf8a4bf2bce1ed87e5ebc60beaa54cbc0662c2c0670a0c838b88c5db92181526020017f2b8bd1e20a822b7c09d466cb8d6ff3ffea95a6b24e24be236d0ee1cbc71eafcb8152508160000181905250604051806040016040528060405180604001604052807f1dbf063bf33e39ba0cda9402a069bf624022a8d5e4eb982e4f0bae25bf0ef5a181526020017f2184aa834fbaf2a41ca3dba00e0b50cba9b3c1fca1ce191b517516e15b234052815250815260200160405180604001604052807f2ed355fd3e0cd9b59a3526009a69b3258461e9f8bb6117a86f764dcd8a7c610481526020017f225292426ccef7a07992a9ee9a7ba821718b48c0eead4fcbb4023bd9949fca898152508152508160200181905250604051806040016040528060405180604001604052807f28543f8bcb08c45d2cc68b507285aa3ffebed1e1503a0d2f4ed7580be656374c81526020017f302a6b51c807508cf454b796f504cb7a551238d0078c52f093095eb57aa5be56815250815260200160405180604001604052807e547d2583fd2ff14728381ec288342e06cffbe4788a822a53f90fcc09dbae1b81526020017f0421aeb74ddf2aac538fb9a3d253d049caddb8bc5c4fc555c66d61fbb20ee3288152508152508160400181905250604051806040016040528060405180604001604052807f278afd2c13735984132b1cbb4f5c80d07a92925413cc52b8a9b396fd2fadfdbe81526020017f25cb795c320a2dc1e15126fa84d111d6cddc4385ea1d81ca0dc5d8f751db2421815250815260200160405180604001604052807f04a8e3816c8e42f4f32ceff16ec8b1df2ed890fa10f2f8b18b09832c67ce9d6681526020017f1e4ea1b2a965d0a14ec138c71c02b5247cd0d57d70d9b89c2191f9d6af0513d68152508152508160600181905250600367ffffffffffffffff8111156127875761278661366e565b5b6040519080825280602002602001820160405280156127c057816020015b6127ad613216565b8152602001906001900390816127a55790505b50816080018190525060405180604001604052807f1190559b7f62f986ee970e813d56938aba790a3fb4f2f979f5adff25bb2ccab181526020017f1738738ada81d2ac9bb292a5bf731b23f695e7961659bb2bf0da16447f45cd3f815250816080015160008151811061283657612835613d03565b5b602002602001018190525060405180604001604052807f19121cd36cdc4a9f90a5c50d71cfa10cebb0020b17e8f0c3bdc37a69b2cd7e0881526020017f26f372a187bc7e8737dc9f89a6c2a4d1c885c24b9a777fe9d40a7380a95b4d1a81525081608001516001815181106128ae576128ad613d03565b5b602002602001018190525060405180604001604052807f2488dac82d2465f6d2ae50d1aeb731c38191b849392bf5f32c4355bcad78dba381526020017f1a47e28923f8899851640deab61396fe029c616a20e29f7d0460bd4c89031290815250816080015160028151811061292657612925613d03565b5b602002602001018190525090565b61293c613216565b612944613230565b83600001518160006003811061295d5761295c613d03565b5b60200201818152505083602001518160016003811061297f5761297e613d03565b5b602002018181525050828160026003811061299d5761299c613d03565b5b602002018181525050600060608360808460076107d05a03fa905080600081036129c357fe5b50806129ce57600080fd5b505092915050565b6129de613216565b6129e6613252565b8360000151816000600481106129ff576129fe613d03565b5b602002018181525050836020015181600160048110612a2157612a20613d03565b5b602002018181525050826000015181600260048110612a4357612a42613d03565b5b602002018181525050826020015181600360048110612a6557612a64613d03565b5b602002018181525050600060608360c08460066107d05a03fa90508060008103612a8b57fe5b5080612a9657600080fd5b505092915050565b612aa6613216565b60007f30644e72e131a029b85045b68181585d97816a916871ca8d3c208c16d87cfd47905060008360000151148015612ae3575060008360200151145b15612b07576040518060400160405280600081526020016000815250915050612b3e565b604051806040016040528084600001518152602001828560200151612b2c91906146f2565b83612b3791906146be565b8152509150505b919050565b600080600467ffffffffffffffff811115612b6157612b6061366e565b5b604051908082528060200260200182016040528015612b9a57816020015b612b87613216565b815260200190600190039081612b7f5790505b5090506000600467ffffffffffffffff811115612bba57612bb961366e565b5b604051908082528060200260200182016040528015612bf357816020015b612be0613274565b815260200190600190039081612bd85790505b5090508a82600081518110612c0b57612c0a613d03565b5b60200260200101819052508882600181518110612c2b57612c2a613d03565b5b60200260200101819052508682600281518110612c4b57612c4a613d03565b5b60200260200101819052508482600381518110612c6b57612c6a613d03565b5b60200260200101819052508981600081518110612c8b57612c8a613d03565b5b60200260200101819052508781600181518110612cab57612caa613d03565b5b60200260200101819052508581600281518110612ccb57612cca613d03565b5b60200260200101819052508381600381518110612ceb57612cea613d03565b5b6020026020010181905250612d008282612e79565b9250505098975050505050505050565b6000808273ffffffffffffffffffffffffffffffffffffffff163b119050919050565b600073ffffffffffffffffffffffffffffffffffffffff166003600083815260200190815260200160002060009054906101000a900473ffffffffffffffffffffffffffffffffffffffff1673ffffffffffffffffffffffffffffffffffffffff1614612dee5760006003600083815260200190815260200160002060006101000a81548173ffffffffffffffffffffffffffffffffffffffff021916908373ffffffffffffffffffffffffffffffffffffffff1602179055505b50565b60008160000154905060008111612e3d576040517f08c379a0000000000000000000000000000000000000000000000000000000008152600401612e349061476f565b60405180910390fd5b6001810382600001819055505050565b6001816000016000828254019250508190555050565b60008183612e7191906146be565b905092915050565b60008151835114612e8957600080fd5b6000835190506000600682612e9e919061478f565b905060008167ffffffffffffffff811115612ebc57612ebb61366e565b5b604051908082528060200260200182016040528015612eea5781602001602082028036833780820191505090505b50905060005b8381101561316f57868181518110612f0b57612f0a613d03565b5b602002602001015160000151826000600684612f27919061478f565b612f319190614380565b81518110612f4257612f41613d03565b5b602002602001018181525050868181518110612f6157612f60613d03565b5b602002602001015160200151826001600684612f7d919061478f565b612f879190614380565b81518110612f9857612f97613d03565b5b602002602001018181525050858181518110612fb757612fb6613d03565b5b602002602001015160000151600160028110612fd657612fd5613d03565b5b6020020151826002600684612feb919061478f565b612ff59190614380565b8151811061300657613005613d03565b5b60200260200101818152505085818151811061302557613024613d03565b5b60200260200101516000015160006002811061304457613043613d03565b5b6020020151826003600684613059919061478f565b6130639190614380565b8151811061307457613073613d03565b5b60200260200101818152505085818151811061309357613092613d03565b5b6020026020010151602001516001600281106130b2576130b1613d03565b5b60200201518260046006846130c7919061478f565b6130d19190614380565b815181106130e2576130e1613d03565b5b60200260200101818152505085818151811061310157613100613d03565b5b6020026020010151602001516000600281106131205761311f613d03565b5b6020020151826005600684613135919061478f565b61313f9190614380565b815181106131505761314f613d03565b5b602002602001018181525050808061316790613d61565b915050612ef0565b5061317861329a565b6000602082602086026020860160086107d05a03fa9050806000810361319a57fe5b50806131a557600080fd5b6000826000600181106131bb576131ba613d03565b5b602002015114159550505050505092915050565b6040518060a001604052806131e2613216565b81526020016131ef613274565b81526020016131fc613274565b8152602001613209613274565b8152602001606081525090565b604051806040016040528060008152602001600081525090565b6040518060600160405280600390602082028036833780820191505090505090565b6040518060800160405280600490602082028036833780820191505090505090565b60405180604001604052806132876132bc565b81526020016132946132bc565b81525090565b6040518060200160405280600190602082028036833780820191505090505090565b6040518060400160405280600290602082028036833780820191505090505090565b6000604051905090565b600080fd5b600080fd5b60007fffffffff0000000000000000000000000000000000000000000000000000000082169050919050565b613327816132f2565b811461333257600080fd5b50565b6000813590506133448161331e565b92915050565b6000602082840312156133605761335f6132e8565b5b600061336e84828501613335565b91505092915050565b60008115159050919050565b61338c81613377565b82525050565b60006020820190506133a76000830184613383565b92915050565b600081519050919050565b600082825260208201905092915050565b60005b838110156133e75780820151818401526020810190506133cc565b838111156133f6576000848401525b50505050565b6000601f19601f8301169050919050565b6000613418826133ad565b61342281856133b8565b93506134328185602086016133c9565b61343b816133fc565b840191505092915050565b60006020820190508181036000830152613460818461340d565b905092915050565b6000819050919050565b61347b81613468565b811461348657600080fd5b50565b60008135905061349881613472565b92915050565b6000602082840312156134b4576134b36132e8565b5b60006134c284828501613489565b91505092915050565b600073ffffffffffffffffffffffffffffffffffffffff82169050919050565b60006134f6826134cb565b9050919050565b613506816134eb565b82525050565b600060208201905061352160008301846134fd565b92915050565b613530816134eb565b811461353b57600080fd5b50565b60008135905061354d81613527565b92915050565b6000806040838503121561356a576135696132e8565b5b60006135788582860161353e565b925050602061358985828601613489565b9150509250929050565b61359c81613377565b81146135a757600080fd5b50565b6000813590506135b981613593565b92915050565b6000602082840312156135d5576135d46132e8565b5b60006135e3848285016135aa565b91505092915050565b6135f581613468565b82525050565b600060208201905061361060008301846135ec565b92915050565b60008060006060848603121561362f5761362e6132e8565b5b600061363d8682870161353e565b935050602061364e8682870161353e565b925050604061365f86828701613489565b9150509250925092565b600080fd5b7f4e487b7100000000000000000000000000000000000000000000000000000000600052604160045260246000fd5b6136a6826133fc565b810181811067ffffffffffffffff821117156136c5576136c461366e565b5b80604052505050565b60006136d86132de565b90506136e4828261369d565b919050565b6000604082840312156136ff576136fe613669565b5b61370960406136ce565b9050600061371984828501613489565b600083015250602061372d84828501613489565b60208301525092915050565b600080fd5b600067ffffffffffffffff8211156137595761375861366e565b5b602082029050919050565b600080fd5b600061377c6137778461373e565b6136ce565b9050806020840283018581111561379657613795613764565b5b835b818110156137bf57806137ab8882613489565b845260208401935050602081019050613798565b5050509392505050565b600082601f8301126137de576137dd613739565b5b60026137eb848285613769565b91505092915050565b60006080828403121561380a57613809613669565b5b61381460406136ce565b90506000613824848285016137c9565b6000830152506040613838848285016137c9565b60208301525092915050565b6000610100828403121561385b5761385a613669565b5b61386560606136ce565b90506000613875848285016136e9565b6000830152506040613889848285016137f4565b60208301525060c061389d848285016136e9565b60408301525092915050565b60008061014083850312156138c1576138c06132e8565b5b60006138cf85828601613844565b9250506101006138e1858286016137c9565b9150509250929050565b600060208284031215613901576139006132e8565b5b600061390f8482850161353e565b91505092915050565b6000806000806101808587031215613933576139326132e8565b5b60006139418782880161353e565b945050602061395287828801613489565b935050604061396387828801613844565b925050610140613975878288016137c9565b91505092959194509250565b60008060408385031215613998576139976132e8565b5b60006139a68582860161353e565b92505060206139b7858286016135aa565b9150509250929050565b600080fd5b600067ffffffffffffffff8211156139e1576139e061366e565b5b6139ea826133fc565b9050602081019050919050565b82818337600083830152505050565b6000613a19613a14846139c6565b6136ce565b905082815260208101848484011115613a3557613a346139c1565b5b613a408482856139f7565b509392505050565b600082601f830112613a5d57613a5c613739565b5b8135613a6d848260208601613a06565b91505092915050565b60008060008060808587031215613a9057613a8f6132e8565b5b6000613a9e8782880161353e565b9450506020613aaf8782880161353e565b9350506040613ac087828801613489565b925050606085013567ffffffffffffffff811115613ae157613ae06132ed565b5b613aed87828801613a48565b91505092959194509250565b60008060408385031215613b1057613b0f6132e8565b5b6000613b1e8582860161353e565b9250506020613b2f8582860161353e565b9150509250929050565b7f4e487b7100000000000000000000000000000000000000000000000000000000600052602260045260246000fd5b60006002820490506001821680613b8057607f821691505b602082108103613b9357613b92613b39565b5b50919050565b7f436f6e7472616374206973204e4f542070617573656400000000000000000000600082015250565b6000613bcf6016836133b8565b9150613bda82613b99565b602082019050919050565b60006020820190508181036000830152613bfe81613bc2565b9050919050565b7f27546f2720416464726573732073686f756c6420626520646966666572656e7460008201527f2066726f6d20746865206f776e65720000000000000000000000000000000000602082015250565b6000613c61602f836133b8565b9150613c6c82613c05565b604082019050919050565b60006020820190508181036000830152613c9081613c54565b9050919050565b7f4f6e6c7920636f6e7472616374206f776e65722063616e2063616c6c20697400600082015250565b6000613ccd601f836133b8565b9150613cd882613c97565b602082019050919050565b60006020820190508181036000830152613cfc81613cc0565b9050919050565b7f4e487b7100000000000000000000000000000000000000000000000000000000600052603260045260246000fd5b7f4e487b7100000000000000000000000000000000000000000000000000000000600052601160045260246000fd5b6000613d6c82613468565b91507fffffffffffffffffffffffffffffffffffffffffffffffffffffffffffffffff8203613d9e57613d9d613d32565b5b600182019050919050565b7f5a4b20766572696669636174696f6e206973206e6f742073617469736669656460008201527f2e00000000000000000000000000000000000000000000000000000000000000602082015250565b6000613e056021836133b8565b9150613e1082613da9565b604082019050919050565b60006020820190508181036000830152613e3481613df8565b9050919050565b7f4d696e742073686f756c6420626520646f6e65207375636365737366756c6c79600082015250565b6000613e716020836133b8565b9150613e7c82613e3b565b602082019050919050565b60006020820190508181036000830152613ea081613e64565b9050919050565b600060029050919050565b600081905092915050565b6000819050919050565b613ed081613468565b82525050565b6000613ee28383613ec7565b60208301905092915050565b6000602082019050919050565b613f0481613ea7565b613f0e8184613eb2565b9250613f1982613ebd565b8060005b83811015613f4a578151613f318782613ed6565b9650613f3c83613eee565b925050600181019050613f1d565b505050505050565b6000613f5e8284613efb565b60408201915081905092915050565b7f4e6577206f776e6572206e65656420746f2062652061207265616c206164647260008201527f6573730000000000000000000000000000000000000000000000000000000000602082015250565b6000613fc96023836133b8565b9150613fd482613f6d565b604082019050919050565b60006020820190508181036000830152613ff881613fbc565b9050919050565b600081905092915050565b60008190508160005260206000209050919050565b6000815461402c81613b68565b6140368186613fff565b94506001821660008114614051576001811461406657614099565b60ff1983168652811515820286019350614099565b61406f8561400a565b60005b8381101561409157815481890152600182019150602081019050614072565b838801955050505b50505092915050565b600081519050919050565b60006140b8826140a2565b6140c28185613fff565b93506140d28185602086016133c9565b80840191505092915050565b60006140ea828561401f565b91506140f682846140ad565b91508190509392505050565b60008190508160005260206000209050919050565b60006020601f8301049050919050565b600082821b905092915050565b6000600883026141647fffffffffffffffffffffffffffffffffffffffffffffffffffffffffffffffff82614127565b61416e8683614127565b95508019841693508086168417925050509392505050565b6000819050919050565b60006141ab6141a66141a184613468565b614186565b613468565b9050919050565b6000819050919050565b6141c583614190565b6141d96141d1826141b2565b848454614134565b825550505050565b600090565b6141ee6141e1565b6141f98184846141bc565b505050565b5b8181101561421d576142126000826141e6565b6001810190506141ff565b5050565b601f8211156142625761423381614102565b61423c84614117565b8101602085101561424b578190505b61425f61425785614117565b8301826141fe565b50505b505050565b600082821c905092915050565b600061428560001984600802614267565b1980831691505092915050565b600061429e8383614274565b9150826002028217905092915050565b6142b7826133ad565b67ffffffffffffffff8111156142d0576142cf61366e565b5b6142da8254613b68565b6142e5828285614221565b600060209050601f8311600181146143185760008415614306578287015190505b6143108582614292565b865550614378565b601f19841661432686614102565b60005b8281101561434e57848901518255600182019150602085019450602081019050614329565b8683101561436b5784890151614367601f891682614274565b8355505b6001600288020188555050505b505050505050565b600061438b82613468565b915061439683613468565b9250827fffffffffffffffffffffffffffffffffffffffffffffffffffffffffffffffff038211156143cb576143ca613d32565b5b828201905092915050565b600082825260208201905092915050565b60006143f2826140a2565b6143fc81856143d6565b935061440c8185602086016133c9565b614415816133fc565b840191505092915050565b600060808201905061443560008301876134fd565b61444260208301866134fd565b61444f60408301856135ec565b818103606083015261446181846143e7565b905095945050505050565b60008151905061447b8161331e565b92915050565b600060208284031215614497576144966132e8565b5b60006144a58482850161446c565b91505092915050565b7f46726f6d2073686f756c6420626520746f6b656e206f776e6572000000000000600082015250565b60006144e4601a836133b8565b91506144ef826144ae565b602082019050919050565b60006020820190508181036000830152614513816144d7565b9050919050565b7f27546f272073686f756c642062652076616c6964206164647265737300000000600082015250565b6000614550601c836133b8565b915061455b8261451a565b602082019050919050565b6000602082019050818103600083015261457f81614543565b9050919050565b7f496e76616c696420616464726573730000000000000000000000000000000000600082015250565b60006145bc600f836133b8565b91506145c782614586565b602082019050919050565b600060208201905081810360008301526145eb816145af565b9050919050565b7f546f6b656e20496420616c726561647920657869737473000000000000000000600082015250565b60006146286017836133b8565b9150614633826145f2565b602082019050919050565b600060208201905081810360008301526146578161461b565b9050919050565b7f4e487b7100000000000000000000000000000000000000000000000000000000600052601260045260246000fd5b600061469882613468565b91506146a383613468565b9250826146b3576146b261465e565b5b828204905092915050565b60006146c982613468565b91506146d483613468565b9250828210156146e7576146e6613d32565b5b828203905092915050565b60006146fd82613468565b915061470883613468565b9250826147185761471761465e565b5b828206905092915050565b7f436f756e7465723a2064656372656d656e74206f766572666c6f770000000000600082015250565b6000614759601b836133b8565b915061476482614723565b602082019050919050565b600060208201905081810360008301526147888161474c565b9050919050565b600061479a82613468565b91506147a583613468565b9250817fffffffffffffffffffffffffffffffffffffffffffffffffffffffffffffffff04831182151516156147de576147dd613d32565b5b82820290509291505056fea26469706673582212203f64b205598d2c640f25aa2157a40203b8688fe96c73c258e1b54ae8cca8b47964736f6c634300080f003368747470733a2f2f73332d75732d776573742d322e616d617a6f6e6177732e636f6d2f756461636974792d626c6f636b636861696e2f63617073746f6e652f",
  "immutableReferences": {},
  "source": "// SPDX-License-Identifier: MIT\npragma solidity >=0.4.21 <0.9.0;\n\nimport \"../zokrates/code/square/verifier.sol\";\nimport \"./ERC721Mintable.sol\";\n\ncontract SolnSquareVerifier is ERC721Mintable, Verifier {\n    struct Solution {\n        uint256 tokenId;\n        address account;\n    }\n\n    /**\n        @dev solution will be hashed (keccak256(input)) and added into the mapping\n     */\n    mapping(bytes32 => Solution) solutions;\n\n    event SolutionAdded(\n        bytes32 indexed solution,\n        address indexed account,\n        uint256 tokenId\n    );\n\n    /**\n        @dev function to add the solutions to the array\n     */\n\n    function addTheSolutions(bytes32 _solution, uint256 tokenId) internal {\n        solutions[_solution].tokenId = tokenId;\n        solutions[_solution].account = msg.sender;\n\n        emit SolutionAdded(_solution, msg.sender, tokenId);\n    }\n\n    function mintAfterVerification(\n        address to,\n        uint256 tokenId,\n        Proof memory proof,\n        uint256[2] memory input\n    ) public whenNotPaused {\n        bool zkVerfiedOK = zkVerify(proof, input);\n        require(zkVerfiedOK == true, \"ZK verification is not satisfied.\");\n\n        // if ZK OK, go ahead and mint\n        bool mintOK = mint(to, tokenId);\n        require(mintOK == true, \"Mint should be done successfully\");\n\n        // if mint OK, go ahead and save the ZK solution\n        bytes32 solution = keccak256(abi.encodePacked(input));\n        addTheSolutions(solution, tokenId);\n    }\n\n    function zkVerify(Proof memory proof, uint256[2] memory input)\n        public\n        view\n        returns (bool)\n    {\n        return bool(Verifier.verifyTx(proof, input));\n    }\n\n    // TODO define a contract call to the zokrates generated solidity contract <Verifier> or <renamedVerifier>\n    // TODO define another contract named SolnSquareVerifier that inherits from your ERC721Mintable class\n    // TODO define a solutions struct that can hold an index & an address\n    // TODO define an array of the above struct\n    // TODO define a mapping to store unique solutions submitted\n    // TODO Create an event to emit when a solution is added\n    // TODO Create a function to add the solutions to the array and emit the event\n    // TODO Create a function to mint new NFT only after the solution has been verified\n    //  - make sure the solution is unique (has not been used before)\n    //  - make sure you handle metadata as well as tokenSuplly\n}\n",
  "sourcePath": "/home/rafamessias/Documents/udacity/Ethereum/real-estate-marketplace/contracts/SolnSquareVerifier.sol",
  "compiler": {
    "name": "solc",
    "version": "0.8.15+commit.e14f2714.Emscripten.clang"
  },
  "schemaVersion": "3.4.8",
  "updatedAt": "2022-09-25T15:01:14.813Z",
  "networkType": "ethereum",
  "devdoc": {
    "kind": "dev",
    "methods": {
      "isApprovedForAll(address,address)": {
        "details": "Tells whether an operator is approved by a given owner",
        "params": {
          "operator": "operator address which you want to query the approval of",
          "owner": "owner address which you want to query the approval of"
        },
        "returns": {
          "_0": "bool whether the given operator is approved by the given owner"
        }
      },
      "setApprovalForAll(address,bool)": {
        "details": "Sets or unsets the approval of a given operator An operator is allowed to transfer all tokens of the sender on their behalf",
        "params": {
          "approved": "representing the status of the approval to be set",
          "to": "operator address to set the approval"
        }
      },
      "supportsInterface(bytes4)": {
        "details": "implement supportsInterface(bytes4) using a lookup table"
      },
      "tokenByIndex(uint256)": {
        "details": "Gets the token ID at a given index of all the tokens in this contract Reverts if the index is greater or equal to the total number of tokens",
        "params": {
          "index": "uint256 representing the index to be accessed of the tokens list"
        },
        "returns": {
          "_0": "uint256 token ID at the given index of the tokens list"
        }
      },
      "tokenOfOwnerByIndex(address,uint256)": {
        "details": "Gets the token ID at a given index of the tokens list of the requested owner",
        "params": {
          "index": "uint256 representing the index to be accessed of the requested tokens list",
          "owner": "address owning the tokens list to be accessed"
        },
        "returns": {
          "_0": "uint256 token ID at the given index of the tokens list owned by the requested address"
        }
      },
      "totalSupply()": {
        "details": "Gets the total amount of tokens stored by the contract",
        "returns": {
          "_0": "uint256 representing the total amount of tokens"
        }
      }
    },
    "stateVariables": {
      "solutions": {
        "details": "solution will be hashed (keccak256(input)) and added into the mapping"
      }
    },
    "version": 1
  },
  "userdoc": {
    "kind": "user",
    "methods": {},
    "version": 1
  }
}