{
  "contractName": "SolnSquareVerifier",
  "abi": [
    {
      "inputs": [
        {
          "internalType": "uint256",
          "name": "_tokenSupply",
          "type": "uint256"
        }
      ],
      "stateMutability": "nonpayable",
      "type": "constructor"
    },
    {
      "anonymous": false,
      "inputs": [
        {
          "indexed": true,
          "internalType": "address",
          "name": "owner",
          "type": "address"
        },
        {
          "indexed": true,
          "internalType": "address",
          "name": "approved",
          "type": "address"
        },
        {
          "indexed": true,
          "internalType": "uint256",
          "name": "tokenId",
          "type": "uint256"
        }
      ],
      "name": "Approval",
      "type": "event"
    },
    {
      "anonymous": false,
      "inputs": [
        {
          "indexed": true,
          "internalType": "address",
          "name": "owner",
          "type": "address"
        },
        {
          "indexed": true,
          "internalType": "address",
          "name": "operator",
          "type": "address"
        },
        {
          "indexed": false,
          "internalType": "bool",
          "name": "approved",
          "type": "bool"
        }
      ],
      "name": "ApprovalForAll",
      "type": "event"
    },
    {
      "anonymous": false,
      "inputs": [
        {
          "indexed": true,
          "internalType": "address",
          "name": "oldOnwer",
          "type": "address"
        },
        {
          "indexed": true,
          "internalType": "address",
          "name": "newOwner",
          "type": "address"
        }
      ],
      "name": "OwnerTransferred",
      "type": "event"
    },
    {
      "anonymous": false,
      "inputs": [
        {
          "indexed": true,
          "internalType": "address",
          "name": "trigger",
          "type": "address"
        }
      ],
      "name": "Paused",
      "type": "event"
    },
    {
      "anonymous": false,
      "inputs": [
        {
          "indexed": true,
          "internalType": "bytes32",
          "name": "solution",
          "type": "bytes32"
        },
        {
          "indexed": true,
          "internalType": "address",
          "name": "account",
          "type": "address"
        },
        {
          "indexed": false,
          "internalType": "uint256",
          "name": "tokenId",
          "type": "uint256"
        }
      ],
      "name": "SolutionAdded",
      "type": "event"
    },
    {
      "anonymous": false,
      "inputs": [
        {
          "indexed": true,
          "internalType": "address",
          "name": "from",
          "type": "address"
        },
        {
          "indexed": true,
          "internalType": "address",
          "name": "to",
          "type": "address"
        },
        {
          "indexed": true,
          "internalType": "uint256",
          "name": "tokenId",
          "type": "uint256"
        }
      ],
      "name": "Transfer",
      "type": "event"
    },
    {
      "anonymous": false,
      "inputs": [
        {
          "indexed": true,
          "internalType": "address",
          "name": "trigger",
          "type": "address"
        }
      ],
      "name": "Unpaused",
      "type": "event"
    },
    {
      "inputs": [
        {
          "internalType": "address",
          "name": "to",
          "type": "address"
        },
        {
          "internalType": "uint256",
          "name": "tokenId",
          "type": "uint256"
        }
      ],
      "name": "approve",
      "outputs": [],
      "stateMutability": "nonpayable",
      "type": "function"
    },
    {
      "inputs": [
        {
          "internalType": "address",
          "name": "owner",
          "type": "address"
        }
      ],
      "name": "balanceOf",
      "outputs": [
        {
          "internalType": "uint256",
          "name": "",
          "type": "uint256"
        }
      ],
      "stateMutability": "view",
      "type": "function",
      "constant": true
    },
    {
      "inputs": [],
      "name": "baseTokenURI",
      "outputs": [
        {
          "internalType": "string",
          "name": "",
          "type": "string"
        }
      ],
      "stateMutability": "view",
      "type": "function",
      "constant": true
    },
    {
      "inputs": [],
      "name": "contractOwner",
      "outputs": [
        {
          "internalType": "address",
          "name": "",
          "type": "address"
        }
      ],
      "stateMutability": "view",
      "type": "function",
      "constant": true
    },
    {
      "inputs": [
        {
          "internalType": "uint256",
          "name": "tokenId",
          "type": "uint256"
        }
      ],
      "name": "getApproved",
      "outputs": [
        {
          "internalType": "address",
          "name": "",
          "type": "address"
        }
      ],
      "stateMutability": "view",
      "type": "function",
      "constant": true
    },
    {
      "inputs": [
        {
          "internalType": "address",
          "name": "owner",
          "type": "address"
        },
        {
          "internalType": "address",
          "name": "operator",
          "type": "address"
        }
      ],
      "name": "isApprovedForAll",
      "outputs": [
        {
          "internalType": "bool",
          "name": "",
          "type": "bool"
        }
      ],
      "stateMutability": "view",
      "type": "function",
      "constant": true
    },
    {
      "inputs": [
        {
          "internalType": "address",
          "name": "to",
          "type": "address"
        },
        {
          "internalType": "uint256",
          "name": "tokenId",
          "type": "uint256"
        }
      ],
      "name": "mint",
      "outputs": [
        {
          "internalType": "bool",
          "name": "",
          "type": "bool"
        }
      ],
      "stateMutability": "nonpayable",
      "type": "function"
    },
    {
      "inputs": [],
      "name": "name",
      "outputs": [
        {
          "internalType": "string",
          "name": "",
          "type": "string"
        }
      ],
      "stateMutability": "view",
      "type": "function",
      "constant": true
    },
    {
      "inputs": [
        {
          "internalType": "uint256",
          "name": "tokenId",
          "type": "uint256"
        }
      ],
      "name": "ownerOf",
      "outputs": [
        {
          "internalType": "address",
          "name": "",
          "type": "address"
        }
      ],
      "stateMutability": "view",
      "type": "function",
      "constant": true
    },
    {
      "inputs": [
        {
          "internalType": "address",
          "name": "from",
          "type": "address"
        },
        {
          "internalType": "address",
          "name": "to",
          "type": "address"
        },
        {
          "internalType": "uint256",
          "name": "tokenId",
          "type": "uint256"
        }
      ],
      "name": "safeTransferFrom",
      "outputs": [],
      "stateMutability": "nonpayable",
      "type": "function"
    },
    {
      "inputs": [
        {
          "internalType": "address",
          "name": "from",
          "type": "address"
        },
        {
          "internalType": "address",
          "name": "to",
          "type": "address"
        },
        {
          "internalType": "uint256",
          "name": "tokenId",
          "type": "uint256"
        },
        {
          "internalType": "bytes",
          "name": "_data",
          "type": "bytes"
        }
      ],
      "name": "safeTransferFrom",
      "outputs": [],
      "stateMutability": "nonpayable",
      "type": "function"
    },
    {
      "inputs": [
        {
          "internalType": "address",
          "name": "to",
          "type": "address"
        },
        {
          "internalType": "bool",
          "name": "approved",
          "type": "bool"
        }
      ],
      "name": "setApprovalForAll",
      "outputs": [],
      "stateMutability": "nonpayable",
      "type": "function"
    },
    {
      "inputs": [
        {
          "internalType": "bool",
          "name": "_paused",
          "type": "bool"
        }
      ],
      "name": "setPaused",
      "outputs": [],
      "stateMutability": "nonpayable",
      "type": "function"
    },
    {
      "inputs": [
        {
          "internalType": "bytes4",
          "name": "interfaceId",
          "type": "bytes4"
        }
      ],
      "name": "supportsInterface",
      "outputs": [
        {
          "internalType": "bool",
          "name": "",
          "type": "bool"
        }
      ],
      "stateMutability": "view",
      "type": "function",
      "constant": true
    },
    {
      "inputs": [],
      "name": "symbol",
      "outputs": [
        {
          "internalType": "string",
          "name": "",
          "type": "string"
        }
      ],
      "stateMutability": "view",
      "type": "function",
      "constant": true
    },
    {
      "inputs": [
        {
          "internalType": "uint256",
          "name": "index",
          "type": "uint256"
        }
      ],
      "name": "tokenByIndex",
      "outputs": [
        {
          "internalType": "uint256",
          "name": "",
          "type": "uint256"
        }
      ],
      "stateMutability": "view",
      "type": "function",
      "constant": true
    },
    {
      "inputs": [
        {
          "internalType": "address",
          "name": "owner",
          "type": "address"
        },
        {
          "internalType": "uint256",
          "name": "index",
          "type": "uint256"
        }
      ],
      "name": "tokenOfOwnerByIndex",
      "outputs": [
        {
          "internalType": "uint256",
          "name": "",
          "type": "uint256"
        }
      ],
      "stateMutability": "view",
      "type": "function",
      "constant": true
    },
    {
      "inputs": [
        {
          "internalType": "uint256",
          "name": "tokenId",
          "type": "uint256"
        }
      ],
      "name": "tokenURI",
      "outputs": [
        {
          "internalType": "string",
          "name": "",
          "type": "string"
        }
      ],
      "stateMutability": "view",
      "type": "function",
      "constant": true
    },
    {
      "inputs": [],
      "name": "totalSupply",
      "outputs": [
        {
          "internalType": "uint256",
          "name": "",
          "type": "uint256"
        }
      ],
      "stateMutability": "view",
      "type": "function",
      "constant": true
    },
    {
      "inputs": [
        {
          "internalType": "address",
          "name": "from",
          "type": "address"
        },
        {
          "internalType": "address",
          "name": "to",
          "type": "address"
        },
        {
          "internalType": "uint256",
          "name": "tokenId",
          "type": "uint256"
        }
      ],
      "name": "transferFrom",
      "outputs": [],
      "stateMutability": "nonpayable",
      "type": "function"
    },
    {
      "inputs": [
        {
          "internalType": "address",
          "name": "newOwner",
          "type": "address"
        }
      ],
      "name": "transferOwnership",
      "outputs": [],
      "stateMutability": "nonpayable",
      "type": "function"
    },
    {
      "inputs": [
        {
          "components": [
            {
              "components": [
                {
                  "internalType": "uint256",
                  "name": "X",
                  "type": "uint256"
                },
                {
                  "internalType": "uint256",
                  "name": "Y",
                  "type": "uint256"
                }
              ],
              "internalType": "struct Pairing.G1Point",
              "name": "a",
              "type": "tuple"
            },
            {
              "components": [
                {
                  "internalType": "uint256[2]",
                  "name": "X",
                  "type": "uint256[2]"
                },
                {
                  "internalType": "uint256[2]",
                  "name": "Y",
                  "type": "uint256[2]"
                }
              ],
              "internalType": "struct Pairing.G2Point",
              "name": "b",
              "type": "tuple"
            },
            {
              "components": [
                {
                  "internalType": "uint256",
                  "name": "X",
                  "type": "uint256"
                },
                {
                  "internalType": "uint256",
                  "name": "Y",
                  "type": "uint256"
                }
              ],
              "internalType": "struct Pairing.G1Point",
              "name": "c",
              "type": "tuple"
            }
          ],
          "internalType": "struct Verifier.Proof",
          "name": "proof",
          "type": "tuple"
        },
        {
          "internalType": "uint256[2]",
          "name": "input",
          "type": "uint256[2]"
        }
      ],
      "name": "verifyTx",
      "outputs": [
        {
          "internalType": "bool",
          "name": "r",
          "type": "bool"
        }
      ],
      "stateMutability": "view",
      "type": "function",
      "constant": true
    },
    {
      "inputs": [
        {
          "internalType": "address",
          "name": "to",
          "type": "address"
        },
        {
          "internalType": "uint256",
          "name": "tokenId",
          "type": "uint256"
        },
        {
          "components": [
            {
              "components": [
                {
                  "internalType": "uint256",
                  "name": "X",
                  "type": "uint256"
                },
                {
                  "internalType": "uint256",
                  "name": "Y",
                  "type": "uint256"
                }
              ],
              "internalType": "struct Pairing.G1Point",
              "name": "a",
              "type": "tuple"
            },
            {
              "components": [
                {
                  "internalType": "uint256[2]",
                  "name": "X",
                  "type": "uint256[2]"
                },
                {
                  "internalType": "uint256[2]",
                  "name": "Y",
                  "type": "uint256[2]"
                }
              ],
              "internalType": "struct Pairing.G2Point",
              "name": "b",
              "type": "tuple"
            },
            {
              "components": [
                {
                  "internalType": "uint256",
                  "name": "X",
                  "type": "uint256"
                },
                {
                  "internalType": "uint256",
                  "name": "Y",
                  "type": "uint256"
                }
              ],
              "internalType": "struct Pairing.G1Point",
              "name": "c",
              "type": "tuple"
            }
          ],
          "internalType": "struct Verifier.Proof",
          "name": "proof",
          "type": "tuple"
        },
        {
          "internalType": "uint256[2]",
          "name": "input",
          "type": "uint256[2]"
        }
      ],
      "name": "mintAfterVerification",
      "outputs": [],
      "stateMutability": "nonpayable",
      "type": "function"
    },
    {
      "inputs": [
        {
          "components": [
            {
              "components": [
                {
                  "internalType": "uint256",
                  "name": "X",
                  "type": "uint256"
                },
                {
                  "internalType": "uint256",
                  "name": "Y",
                  "type": "uint256"
                }
              ],
              "internalType": "struct Pairing.G1Point",
              "name": "a",
              "type": "tuple"
            },
            {
              "components": [
                {
                  "internalType": "uint256[2]",
                  "name": "X",
                  "type": "uint256[2]"
                },
                {
                  "internalType": "uint256[2]",
                  "name": "Y",
                  "type": "uint256[2]"
                }
              ],
              "internalType": "struct Pairing.G2Point",
              "name": "b",
              "type": "tuple"
            },
            {
              "components": [
                {
                  "internalType": "uint256",
                  "name": "X",
                  "type": "uint256"
                },
                {
                  "internalType": "uint256",
                  "name": "Y",
                  "type": "uint256"
                }
              ],
              "internalType": "struct Pairing.G1Point",
              "name": "c",
              "type": "tuple"
            }
          ],
          "internalType": "struct Verifier.Proof",
          "name": "proof",
          "type": "tuple"
        },
        {
          "internalType": "uint256[2]",
          "name": "input",
          "type": "uint256[2]"
        }
      ],
      "name": "zkVerify",
      "outputs": [
        {
          "internalType": "bool",
          "name": "",
          "type": "bool"
        }
      ],
      "stateMutability": "view",
      "type": "function",
      "constant": true
    }
  ],
  "bytecode": "0x60806040523480156200001157600080fd5b506040516200575638038062005756833981810160405281019062000037919062000330565b6040518060400160405280600b81526020017f5265616c204573746174650000000000000000000000000000000000000000008152506040518060400160405280600581526020017f52454e46540000000000000000000000000000000000000000000000000000008152506040518060600160405280603f815260200162005717603f9139336000806101000a81548173ffffffffffffffffffffffffffffffffffffffff021916908373ffffffffffffffffffffffffffffffffffffffff1602179055503373ffffffffffffffffffffffffffffffffffffffff16600073ffffffffffffffffffffffffffffffffffffffff167f8934ce4adea8d9ce0d714d2c22b86790e41b7731c84b926fbbdc1d40ff6533c960405160405180910390a360008060146101000a81548160ff0219169083151502179055506200018a6301ffc9a760e01b6200021960201b60201c565b620001a26380ac58cd60e01b6200021960201b60201c565b620001ba63780e9d6360e01b6200021960201b60201c565b82600a9081620001cb9190620005d2565b5081600b9081620001dd9190620005d2565b5080600c9081620001ef9190620005d2565b5062000208635b5e139f60e01b6200021960201b60201c565b50505080601081905550506200073c565b63ffffffff60e01b817bffffffffffffffffffffffffffffffffffffffffffffffffffffffff19160362000284576040517f08c379a00000000000000000000000000000000000000000000000000000000081526004016200027b906200071a565b60405180910390fd5b6001806000837bffffffffffffffffffffffffffffffffffffffffffffffffffffffff19167bffffffffffffffffffffffffffffffffffffffffffffffffffffffff1916815260200190815260200160002060006101000a81548160ff02191690831515021790555050565b600080fd5b6000819050919050565b6200030a81620002f5565b81146200031657600080fd5b50565b6000815190506200032a81620002ff565b92915050565b600060208284031215620003495762000348620002f0565b5b6000620003598482850162000319565b91505092915050565b600081519050919050565b7f4e487b7100000000000000000000000000000000000000000000000000000000600052604160045260246000fd5b7f4e487b7100000000000000000000000000000000000000000000000000000000600052602260045260246000fd5b60006002820490506001821680620003e457607f821691505b602082108103620003fa57620003f96200039c565b5b50919050565b60008190508160005260206000209050919050565b60006020601f8301049050919050565b600082821b905092915050565b600060088302620004647fffffffffffffffffffffffffffffffffffffffffffffffffffffffffffffffff8262000425565b62000470868362000425565b95508019841693508086168417925050509392505050565b6000819050919050565b6000620004b3620004ad620004a784620002f5565b62000488565b620002f5565b9050919050565b6000819050919050565b620004cf8362000492565b620004e7620004de82620004ba565b84845462000432565b825550505050565b600090565b620004fe620004ef565b6200050b818484620004c4565b505050565b5b81811015620005335762000527600082620004f4565b60018101905062000511565b5050565b601f82111562000582576200054c8162000400565b620005578462000415565b8101602085101562000567578190505b6200057f620005768562000415565b83018262000510565b50505b505050565b600082821c905092915050565b6000620005a76000198460080262000587565b1980831691505092915050565b6000620005c2838362000594565b9150826002028217905092915050565b620005dd8262000362565b67ffffffffffffffff811115620005f957620005f86200036d565b5b620006058254620003cb565b6200061282828562000537565b600060209050601f8311600181146200064a576000841562000635578287015190505b620006418582620005b4565b865550620006b1565b601f1984166200065a8662000400565b60005b8281101562000684578489015182556001820191506020850194506020810190506200065d565b86831015620006a45784890151620006a0601f89168262000594565b8355505b6001600288020188555050505b505050505050565b600082825260208201905092915050565b7f496e74657266616365206964206973206e6f7420307866660000000000000000600082015250565b600062000702601883620006b9565b91506200070f82620006ca565b602082019050919050565b600060208201905081810360008301526200073581620006f3565b9050919050565b614fcb806200074c6000396000f3fe608060405234801561001057600080fd5b50600436106101585760003560e01c80636352211e116100c3578063b88d4fde1161007c578063b88d4fde1461040f578063c87b56dd1461042b578063ce606ee01461045b578063d547cfb714610479578063e985e9c514610497578063f2fde38b146104c757610158565b80636352211e1461032957806370a0823114610359578063959eb0c31461038957806395d89b41146103a5578063a22cb465146103c3578063b02ac800146103df57610158565b806323b872dd1161011557806323b872dd146102315780632f745c591461024d57806340c10f191461027d57806342842e0e146102ad57806343cd76fc146102c95780634f6ccce7146102f957610158565b806301ffc9a71461015d57806306fdde031461018d578063081812fc146101ab578063095ea7b3146101db57806316c38b3c146101f757806318160ddd14610213575b600080fd5b61017760048036038101906101729190613692565b6104e3565b60405161018491906136da565b60405180910390f35b61019561054b565b6040516101a2919061378e565b60405180910390f35b6101c560048036038101906101c091906137e6565b6105dd565b6040516101d29190613854565b60405180910390f35b6101f560048036038101906101f0919061389b565b61061a565b005b610211600480360381019061020c9190613907565b610823565b005b61021b610960565b6040516102289190613943565b60405180910390f35b61024b6004803603810190610246919061395e565b61096d565b005b6102676004803603810190610262919061389b565b610a1c565b6040516102749190613943565b60405180910390f35b6102976004803603810190610292919061389b565b610acc565b6040516102a491906136da565b60405180910390f35b6102c760048036038101906102c2919061395e565b610bd0565b005b6102e360048036038101906102de9190613bf1565b610c46565b6040516102f091906136da565b60405180910390f35b610313600480360381019061030e91906137e6565b610d13565b6040516103209190613943565b60405180910390f35b610343600480360381019061033e91906137e6565b610d84565b6040516103509190613854565b60405180910390f35b610373600480360381019061036e9190613c33565b610dc1565b6040516103809190613943565b60405180910390f35b6103a3600480360381019061039e9190613c60565b610e11565b005b6103ad61103e565b6040516103ba919061378e565b60405180910390f35b6103dd60048036038101906103d89190613cc9565b6110d0565b005b6103f960048036038101906103f49190613bf1565b611291565b60405161040691906136da565b60405180910390f35b61042960048036038101906104249190613dbe565b6112a5565b005b610445600480360381019061044091906137e6565b611357565b604051610452919061378e565b60405180910390f35b610463611444565b6040516104709190613854565b60405180910390f35b61048161146d565b60405161048e919061378e565b60405180910390f35b6104b160048036038101906104ac9190613e41565b6114ff565b6040516104be91906136da565b60405180910390f35b6104e160048036038101906104dc9190613c33565b611593565b005b600060016000837bffffffffffffffffffffffffffffffffffffffffffffffffffffffff19167bffffffffffffffffffffffffffffffffffffffffffffffffffffffff1916815260200190815260200160002060009054906101000a900460ff169050919050565b6060600a805461055a90613eb0565b80601f016020809104026020016040519081016040528092919081815260200182805461058690613eb0565b80156105d35780601f106105a8576101008083540402835291602001916105d3565b820191906000526020600020905b8154815290600101906020018083116105b657829003601f168201915b5050505050905090565b60006003600083815260200190815260200160002060009054906101000a900473ffffffffffffffffffffffffffffffffffffffff169050919050565b60001515600060149054906101000a900460ff16151514610670576040517f08c379a000000000000000000000000000000000000000000000000000000000815260040161066790613f2d565b60405180910390fd5b600061067b82610d84565b90508073ffffffffffffffffffffffffffffffffffffffff168373ffffffffffffffffffffffffffffffffffffffff16036106eb576040517f08c379a00000000000000000000000000000000000000000000000000000000081526004016106e290613fbf565b60405180910390fd5b6106f3611444565b73ffffffffffffffffffffffffffffffffffffffff163373ffffffffffffffffffffffffffffffffffffffff161480610732575061073181336114ff565b5b610771576040517f08c379a000000000000000000000000000000000000000000000000000000000815260040161076890614051565b60405180910390fd5b336003600084815260200190815260200160002060006101000a81548173ffffffffffffffffffffffffffffffffffffffff021916908373ffffffffffffffffffffffffffffffffffffffff160217905550813373ffffffffffffffffffffffffffffffffffffffff168273ffffffffffffffffffffffffffffffffffffffff167f8c5be1e5ebec7d5bd14f71427d1e84f3dd0314c0f7b2291e5b200ac8c7c3b92560405160405180910390a4505050565b60008054906101000a900473ffffffffffffffffffffffffffffffffffffffff1673ffffffffffffffffffffffffffffffffffffffff163373ffffffffffffffffffffffffffffffffffffffff16146108b1576040517f08c379a00000000000000000000000000000000000000000000000000000000081526004016108a8906140bd565b60405180910390fd5b80600060146101000a81548160ff0219169083151502179055508015610919573373ffffffffffffffffffffffffffffffffffffffff167f62e78cea01bee320cd4e420270b5ea74000d11b0c9f74754ebdbfc544b05a25860405160405180910390a261095d565b3373ffffffffffffffffffffffffffffffffffffffff167f5db9ee0a495bf2e6ff9c91a7834c1ba4fdd244a5e8aa4e537bd38aeae4b073aa60405160405180910390a25b50565b6000600880549050905090565b60001515600060149054906101000a900460ff161515146109c3576040517f08c379a00000000000000000000000000000000000000000000000000000000081526004016109ba90613f2d565b60405180910390fd5b6109cd3382611754565b610a0c576040517f08c379a0000000000000000000000000000000000000000000000000000000008152600401610a039061414f565b60405180910390fd5b610a178383836117e9565b505050565b6000610a2783610dc1565b8210610a68576040517f08c379a0000000000000000000000000000000000000000000000000000000008152600401610a5f906141e1565b60405180910390fd5b600660008473ffffffffffffffffffffffffffffffffffffffff1673ffffffffffffffffffffffffffffffffffffffff1681526020019081526020016000208281548110610ab957610ab8614201565b5b9060005260206000200154905092915050565b60008060009054906101000a900473ffffffffffffffffffffffffffffffffffffffff1673ffffffffffffffffffffffffffffffffffffffff163373ffffffffffffffffffffffffffffffffffffffff1614610b5d576040517f08c379a0000000000000000000000000000000000000000000000000000000008152600401610b54906140bd565b60405180910390fd5b60001515600060149054906101000a900460ff16151514610bb3576040517f08c379a0000000000000000000000000000000000000000000000000000000008152600401610baa90613f2d565b60405180910390fd5b610bbd8383611863565b610bc6826118da565b6001905092915050565b60001515600060149054906101000a900460ff16151514610c26576040517f08c379a0000000000000000000000000000000000000000000000000000000008152600401610c1d90613f2d565b60405180910390fd5b610c41838383604051806020016040528060008152506112a5565b505050565b600080600267ffffffffffffffff811115610c6457610c636139b6565b5b604051908082528060200260200182016040528015610c925781602001602082028036833780820191505090505b50905060005b6002811015610ceb57838160028110610cb457610cb3614201565b5b6020020151828281518110610ccc57610ccb614201565b5b6020026020010181815250508080610ce39061425f565b915050610c98565b506000610cf882866119c6565b03610d07576001915050610d0d565b60009150505b92915050565b6000610d1d610960565b8210610d5e576040517f08c379a0000000000000000000000000000000000000000000000000000000008152600401610d5590614319565b60405180910390fd5b60088281548110610d7257610d71614201565b5b90600052602060002001549050919050565b60006002600083815260200190815260200160002060009054906101000a900473ffffffffffffffffffffffffffffffffffffffff169050919050565b6000610e0a600460008473ffffffffffffffffffffffffffffffffffffffff1673ffffffffffffffffffffffffffffffffffffffff168152602001908152602001600020611b5d565b9050919050565b60001515600060149054906101000a900460ff16151514610e67576040517f08c379a0000000000000000000000000000000000000000000000000000000008152600401610e5e90613f2d565b60405180910390fd5b601054600f805490501115610eb1576040517f08c379a0000000000000000000000000000000000000000000000000000000008152600401610ea890614385565b60405180910390fd5b6000610ebd8383611291565b90506001151581151514610f06576040517f08c379a0000000000000000000000000000000000000000000000000000000008152600401610efd90614417565b60405180910390fd5b600082604051602001610f1991906144e2565b604051602081830303815290604052805190602001209050600073ffffffffffffffffffffffffffffffffffffffff16600e600083815260200190815260200160002060010160009054906101000a900473ffffffffffffffffffffffffffffffffffffffff1673ffffffffffffffffffffffffffffffffffffffff1614610fd6576040517f08c379a0000000000000000000000000000000000000000000000000000000008152600401610fcd90614549565b60405180910390fd5b6000610fe28787610acc565b9050600115158115151461102b576040517f08c379a0000000000000000000000000000000000000000000000000000000008152600401611022906145b5565b60405180910390fd5b6110358287611b6b565b50505050505050565b6060600b805461104d90613eb0565b80601f016020809104026020016040519081016040528092919081815260200182805461107990613eb0565b80156110c65780601f1061109b576101008083540402835291602001916110c6565b820191906000526020600020905b8154815290600101906020018083116110a957829003601f168201915b5050505050905090565b60001515600060149054906101000a900460ff16151514611126576040517f08c379a000000000000000000000000000000000000000000000000000000000815260040161111d90613f2d565b60405180910390fd5b3373ffffffffffffffffffffffffffffffffffffffff168273ffffffffffffffffffffffffffffffffffffffff1603611194576040517f08c379a000000000000000000000000000000000000000000000000000000000815260040161118b90614621565b60405180910390fd5b80600560003373ffffffffffffffffffffffffffffffffffffffff1673ffffffffffffffffffffffffffffffffffffffff16815260200190815260200160002060008473ffffffffffffffffffffffffffffffffffffffff1673ffffffffffffffffffffffffffffffffffffffff16815260200190815260200160002060006101000a81548160ff0219169083151502179055508173ffffffffffffffffffffffffffffffffffffffff163373ffffffffffffffffffffffffffffffffffffffff167f17307eab39ab6107e8899845ad3d59bd9653f200f220920489ca2b5937696c318360405161128591906136da565b60405180910390a35050565b600061129d8383610c46565b905092915050565b60001515600060149054906101000a900460ff161515146112fb576040517f08c379a00000000000000000000000000000000000000000000000000000000081526004016112f290613f2d565b60405180910390fd5b61130684848461096d565b61131284848484611cd7565b611351576040517f08c379a00000000000000000000000000000000000000000000000000000000081526004016113489061468d565b60405180910390fd5b50505050565b606061136282611ddf565b6113a1576040517f08c379a0000000000000000000000000000000000000000000000000000000008152600401611398906146f9565b60405180910390fd5b600d600083815260200190815260200160002080546113bf90613eb0565b80601f01602080910402602001604051908101604052809291908181526020018280546113eb90613eb0565b80156114385780601f1061140d57610100808354040283529160200191611438565b820191906000526020600020905b81548152906001019060200180831161141b57829003601f168201915b50505050509050919050565b60008060009054906101000a900473ffffffffffffffffffffffffffffffffffffffff16905090565b6060600c805461147c90613eb0565b80601f01602080910402602001604051908101604052809291908181526020018280546114a890613eb0565b80156114f55780601f106114ca576101008083540402835291602001916114f5565b820191906000526020600020905b8154815290600101906020018083116114d857829003601f168201915b5050505050905090565b6000600560008473ffffffffffffffffffffffffffffffffffffffff1673ffffffffffffffffffffffffffffffffffffffff16815260200190815260200160002060008373ffffffffffffffffffffffffffffffffffffffff1673ffffffffffffffffffffffffffffffffffffffff16815260200190815260200160002060009054906101000a900460ff16905092915050565b60008054906101000a900473ffffffffffffffffffffffffffffffffffffffff1673ffffffffffffffffffffffffffffffffffffffff163373ffffffffffffffffffffffffffffffffffffffff1614611621576040517f08c379a0000000000000000000000000000000000000000000000000000000008152600401611618906140bd565b60405180910390fd5b600073ffffffffffffffffffffffffffffffffffffffff168173ffffffffffffffffffffffffffffffffffffffff1603611690576040517f08c379a00000000000000000000000000000000000000000000000000000000081526004016116879061478b565b60405180910390fd5b60008060009054906101000a900473ffffffffffffffffffffffffffffffffffffffff169050816000806101000a81548173ffffffffffffffffffffffffffffffffffffffff021916908373ffffffffffffffffffffffffffffffffffffffff1602179055508173ffffffffffffffffffffffffffffffffffffffff168173ffffffffffffffffffffffffffffffffffffffff167f8934ce4adea8d9ce0d714d2c22b86790e41b7731c84b926fbbdc1d40ff6533c960405160405180910390a35050565b60008061176083610d84565b90508073ffffffffffffffffffffffffffffffffffffffff168473ffffffffffffffffffffffffffffffffffffffff1614806117cf57508373ffffffffffffffffffffffffffffffffffffffff166117b7846105dd565b73ffffffffffffffffffffffffffffffffffffffff16145b806117e057506117df81856114ff565b5b91505092915050565b60001515600060149054906101000a900460ff1615151461183f576040517f08c379a000000000000000000000000000000000000000000000000000000000815260040161183690613f2d565b60405180910390fd5b61184a838383611e26565b61185483826120d5565b61185e82826122db565b505050565b60001515600060149054906101000a900460ff161515146118b9576040517f08c379a00000000000000000000000000000000000000000000000000000000081526004016118b090613f2d565b60405180910390fd5b6118c382826123f5565b6118cd82826122db565b6118d681612602565b5050565b60001515600060149054906101000a900460ff16151514611930576040517f08c379a000000000000000000000000000000000000000000000000000000000815260040161192790613f2d565b60405180910390fd5b61193981611ddf565b611978576040517f08c379a000000000000000000000000000000000000000000000000000000000815260040161196f906146f9565b60405180910390fd5b600c611983826126a1565b60405160200161199492919061488a565b604051602081830303815290604052600d600083815260200190815260200160002090816119c29190614a5a565b5050565b6000807f30644e72e131a029b85045b68181585d2833e84879b9709143e1f593f0000001905060006119f6612801565b905080608001515160018651611a0c9190614b2c565b14611a1657600080fd5b60006040518060400160405280600081526020016000815250905060005b8651811015611acf5783878281518110611a5157611a50614201565b5b602002602001015110611a6357600080fd5b611aba82611ab58560800151600185611a7c9190614b2c565b81518110611a8d57611a8c614201565b5b60200260200101518a8581518110611aa857611aa7614201565b5b6020026020010151612c7c565b612d1e565b91508080611ac79061425f565b915050611a34565b50611af9818360800151600081518110611aec57611aeb614201565b5b6020026020010151612d1e565b9050611b3f85600001518660200151611b1184612de6565b8560400151611b238a60400151612de6565b8760600151611b358960000151612de6565b8960200151612e8b565b611b4f5760019350505050611b57565b600093505050505b92915050565b600081600001549050919050565b80600e60008481526020019081526020016000206000018190555033600e600084815260200190815260200160002060010160006101000a81548173ffffffffffffffffffffffffffffffffffffffff021916908373ffffffffffffffffffffffffffffffffffffffff160217905550600f60405180604001604052808381526020013373ffffffffffffffffffffffffffffffffffffffff1681525090806001815401808255809150506001900390600052602060002090600202016000909190919091506000820151816000015560208201518160010160006101000a81548173ffffffffffffffffffffffffffffffffffffffff021916908373ffffffffffffffffffffffffffffffffffffffff16021790555050503373ffffffffffffffffffffffffffffffffffffffff16827fd54d9ef5d3801dc9b4c79ac9cb0d5ed3b9c83d168bd86bb6e937ca7df70392da83604051611ccb9190613943565b60405180910390a35050565b6000611cf88473ffffffffffffffffffffffffffffffffffffffff16613058565b611d055760019050611dd7565b60008473ffffffffffffffffffffffffffffffffffffffff1663150b7a02338887876040518563ffffffff1660e01b8152600401611d469493929190614bcc565b6020604051808303816000875af1158015611d65573d6000803e3d6000fd5b505050506040513d601f19601f82011682018060405250810190611d899190614c2d565b905063150b7a0260e01b7bffffffffffffffffffffffffffffffffffffffffffffffffffffffff1916817bffffffffffffffffffffffffffffffffffffffffffffffffffffffff1916149150505b949350505050565b600080611deb83610d84565b9050600073ffffffffffffffffffffffffffffffffffffffff168173ffffffffffffffffffffffffffffffffffffffff161415915050919050565b60001515600060149054906101000a900460ff16151514611e7c576040517f08c379a0000000000000000000000000000000000000000000000000000000008152600401611e7390613f2d565b60405180910390fd5b6002600082815260200190815260200160002060009054906101000a900473ffffffffffffffffffffffffffffffffffffffff1673ffffffffffffffffffffffffffffffffffffffff168373ffffffffffffffffffffffffffffffffffffffff1614611f1d576040517f08c379a0000000000000000000000000000000000000000000000000000000008152600401611f1490614ca6565b60405180910390fd5b600073ffffffffffffffffffffffffffffffffffffffff168273ffffffffffffffffffffffffffffffffffffffff1603611f8c576040517f08c379a0000000000000000000000000000000000000000000000000000000008152600401611f8390614d12565b60405180910390fd5b611f958161307b565b611fdc600460008573ffffffffffffffffffffffffffffffffffffffff1673ffffffffffffffffffffffffffffffffffffffff168152602001908152602001600020613139565b612023600460008473ffffffffffffffffffffffffffffffffffffffff1673ffffffffffffffffffffffffffffffffffffffff168152602001908152602001600020613195565b816002600083815260200190815260200160002060006101000a81548173ffffffffffffffffffffffffffffffffffffffff021916908373ffffffffffffffffffffffffffffffffffffffff160217905550808273ffffffffffffffffffffffffffffffffffffffff168473ffffffffffffffffffffffffffffffffffffffff167fddf252ad1be2c89b69c2b068fc378daa952ba7f163c4a11628f55a4df523b3ef60405160405180910390a4505050565b60001515600060149054906101000a900460ff1615151461212b576040517f08c379a000000000000000000000000000000000000000000000000000000000815260040161212290613f2d565b60405180910390fd5b60006121836001600660008673ffffffffffffffffffffffffffffffffffffffff1673ffffffffffffffffffffffffffffffffffffffff168152602001908152602001600020805490506131ab90919063ffffffff16565b905060006007600084815260200190815260200160002054905081811461227e576000600660008673ffffffffffffffffffffffffffffffffffffffff1673ffffffffffffffffffffffffffffffffffffffff16815260200190815260200160002083815481106121f7576121f6614201565b5b9060005260206000200154905080600660008773ffffffffffffffffffffffffffffffffffffffff1673ffffffffffffffffffffffffffffffffffffffff168152602001908152602001600020838154811061225657612255614201565b5b9060005260206000200181905550816007600083815260200190815260200160002081905550505b6122d46001600660008773ffffffffffffffffffffffffffffffffffffffff1673ffffffffffffffffffffffffffffffffffffffff168152602001908152602001600020805490506131ab90919063ffffffff16565b5050505050565b60001515600060149054906101000a900460ff16151514612331576040517f08c379a000000000000000000000000000000000000000000000000000000000815260040161232890613f2d565b60405180910390fd5b600660008373ffffffffffffffffffffffffffffffffffffffff1673ffffffffffffffffffffffffffffffffffffffff168152602001908152602001600020805490506007600083815260200190815260200160002081905550600660008373ffffffffffffffffffffffffffffffffffffffff1673ffffffffffffffffffffffffffffffffffffffff1681526020019081526020016000208190806001815401808255809150506001900390600052602060002001600090919091909150555050565b60001515600060149054906101000a900460ff1615151461244b576040517f08c379a000000000000000000000000000000000000000000000000000000000815260040161244290613f2d565b60405180910390fd5b600073ffffffffffffffffffffffffffffffffffffffff168273ffffffffffffffffffffffffffffffffffffffff16036124ba576040517f08c379a00000000000000000000000000000000000000000000000000000000081526004016124b190614d7e565b60405180910390fd5b600015156124c782611ddf565b151514612509576040517f08c379a000000000000000000000000000000000000000000000000000000000815260040161250090614dea565b60405180910390fd5b816002600083815260200190815260200160002060006101000a81548173ffffffffffffffffffffffffffffffffffffffff021916908373ffffffffffffffffffffffffffffffffffffffff1602179055506125a2600460008473ffffffffffffffffffffffffffffffffffffffff1673ffffffffffffffffffffffffffffffffffffffff168152602001908152602001600020613195565b808273ffffffffffffffffffffffffffffffffffffffff16600073ffffffffffffffffffffffffffffffffffffffff167fddf252ad1be2c89b69c2b068fc378daa952ba7f163c4a11628f55a4df523b3ef60405160405180910390a45050565b60001515600060149054906101000a900460ff16151514612658576040517f08c379a000000000000000000000000000000000000000000000000000000000815260040161264f90613f2d565b60405180910390fd5b6008805490506009600083815260200190815260200160002081905550600881908060018154018082558091505060019003906000526020600020016000909190919091505550565b6060600082036126e8576040518060400160405280600181526020017f300000000000000000000000000000000000000000000000000000000000000081525090506127fc565b600082905060005b6000821461271a5780806127039061425f565b915050600a826127139190614e39565b91506126f0565b60008167ffffffffffffffff811115612736576127356139b6565b5b6040519080825280601f01601f1916602001820160405280156127685781602001600182028036833780820191505090505b5090505b600085146127f5576001826127819190614e6a565b9150600a856127909190614e9e565b603061279c9190614b2c565b60f81b8183815181106127b2576127b1614201565b5b60200101907effffffffffffffffffffffffffffffffffffffffffffffffffffffffffffff1916908160001a905350600a856127ee9190614e39565b945061276c565b8093505050505b919050565b612809613517565b60405180604001604052807f2bceacf8a4bf2bce1ed87e5ebc60beaa54cbc0662c2c0670a0c838b88c5db92181526020017f2b8bd1e20a822b7c09d466cb8d6ff3ffea95a6b24e24be236d0ee1cbc71eafcb8152508160000181905250604051806040016040528060405180604001604052807f1dbf063bf33e39ba0cda9402a069bf624022a8d5e4eb982e4f0bae25bf0ef5a181526020017f2184aa834fbaf2a41ca3dba00e0b50cba9b3c1fca1ce191b517516e15b234052815250815260200160405180604001604052807f2ed355fd3e0cd9b59a3526009a69b3258461e9f8bb6117a86f764dcd8a7c610481526020017f225292426ccef7a07992a9ee9a7ba821718b48c0eead4fcbb4023bd9949fca898152508152508160200181905250604051806040016040528060405180604001604052807f28543f8bcb08c45d2cc68b507285aa3ffebed1e1503a0d2f4ed7580be656374c81526020017f302a6b51c807508cf454b796f504cb7a551238d0078c52f093095eb57aa5be56815250815260200160405180604001604052807e547d2583fd2ff14728381ec288342e06cffbe4788a822a53f90fcc09dbae1b81526020017f0421aeb74ddf2aac538fb9a3d253d049caddb8bc5c4fc555c66d61fbb20ee3288152508152508160400181905250604051806040016040528060405180604001604052807f278afd2c13735984132b1cbb4f5c80d07a92925413cc52b8a9b396fd2fadfdbe81526020017f25cb795c320a2dc1e15126fa84d111d6cddc4385ea1d81ca0dc5d8f751db2421815250815260200160405180604001604052807f04a8e3816c8e42f4f32ceff16ec8b1df2ed890fa10f2f8b18b09832c67ce9d6681526020017f1e4ea1b2a965d0a14ec138c71c02b5247cd0d57d70d9b89c2191f9d6af0513d68152508152508160600181905250600367ffffffffffffffff811115612acf57612ace6139b6565b5b604051908082528060200260200182016040528015612b0857816020015b612af561355e565b815260200190600190039081612aed5790505b50816080018190525060405180604001604052807f1190559b7f62f986ee970e813d56938aba790a3fb4f2f979f5adff25bb2ccab181526020017f1738738ada81d2ac9bb292a5bf731b23f695e7961659bb2bf0da16447f45cd3f8152508160800151600081518110612b7e57612b7d614201565b5b602002602001018190525060405180604001604052807f19121cd36cdc4a9f90a5c50d71cfa10cebb0020b17e8f0c3bdc37a69b2cd7e0881526020017f26f372a187bc7e8737dc9f89a6c2a4d1c885c24b9a777fe9d40a7380a95b4d1a8152508160800151600181518110612bf657612bf5614201565b5b602002602001018190525060405180604001604052807f2488dac82d2465f6d2ae50d1aeb731c38191b849392bf5f32c4355bcad78dba381526020017f1a47e28923f8899851640deab61396fe029c616a20e29f7d0460bd4c890312908152508160800151600281518110612c6e57612c6d614201565b5b602002602001018190525090565b612c8461355e565b612c8c613578565b836000015181600060038110612ca557612ca4614201565b5b602002018181525050836020015181600160038110612cc757612cc6614201565b5b6020020181815250508281600260038110612ce557612ce4614201565b5b602002018181525050600060608360808460076107d05a03fa90508060008103612d0b57fe5b5080612d1657600080fd5b505092915050565b612d2661355e565b612d2e61359a565b836000015181600060048110612d4757612d46614201565b5b602002018181525050836020015181600160048110612d6957612d68614201565b5b602002018181525050826000015181600260048110612d8b57612d8a614201565b5b602002018181525050826020015181600360048110612dad57612dac614201565b5b602002018181525050600060608360c08460066107d05a03fa90508060008103612dd357fe5b5080612dde57600080fd5b505092915050565b612dee61355e565b60007f30644e72e131a029b85045b68181585d97816a916871ca8d3c208c16d87cfd47905060008360000151148015612e2b575060008360200151145b15612e4f576040518060400160405280600081526020016000815250915050612e86565b604051806040016040528084600001518152602001828560200151612e749190614e9e565b83612e7f9190614e6a565b8152509150505b919050565b600080600467ffffffffffffffff811115612ea957612ea86139b6565b5b604051908082528060200260200182016040528015612ee257816020015b612ecf61355e565b815260200190600190039081612ec75790505b5090506000600467ffffffffffffffff811115612f0257612f016139b6565b5b604051908082528060200260200182016040528015612f3b57816020015b612f286135bc565b815260200190600190039081612f205790505b5090508a82600081518110612f5357612f52614201565b5b60200260200101819052508882600181518110612f7357612f72614201565b5b60200260200101819052508682600281518110612f9357612f92614201565b5b60200260200101819052508482600381518110612fb357612fb2614201565b5b60200260200101819052508981600081518110612fd357612fd2614201565b5b60200260200101819052508781600181518110612ff357612ff2614201565b5b6020026020010181905250858160028151811061301357613012614201565b5b6020026020010181905250838160038151811061303357613032614201565b5b602002602001018190525061304882826131c1565b9250505098975050505050505050565b6000808273ffffffffffffffffffffffffffffffffffffffff163b119050919050565b600073ffffffffffffffffffffffffffffffffffffffff166003600083815260200190815260200160002060009054906101000a900473ffffffffffffffffffffffffffffffffffffffff1673ffffffffffffffffffffffffffffffffffffffff16146131365760006003600083815260200190815260200160002060006101000a81548173ffffffffffffffffffffffffffffffffffffffff021916908373ffffffffffffffffffffffffffffffffffffffff1602179055505b50565b60008160000154905060008111613185576040517f08c379a000000000000000000000000000000000000000000000000000000000815260040161317c90614f1b565b60405180910390fd5b6001810382600001819055505050565b6001816000016000828254019250508190555050565b600081836131b99190614e6a565b905092915050565b600081518351146131d157600080fd5b60008351905060006006826131e69190614f3b565b905060008167ffffffffffffffff811115613204576132036139b6565b5b6040519080825280602002602001820160405280156132325781602001602082028036833780820191505090505b50905060005b838110156134b75786818151811061325357613252614201565b5b60200260200101516000015182600060068461326f9190614f3b565b6132799190614b2c565b8151811061328a57613289614201565b5b6020026020010181815250508681815181106132a9576132a8614201565b5b6020026020010151602001518260016006846132c59190614f3b565b6132cf9190614b2c565b815181106132e0576132df614201565b5b6020026020010181815250508581815181106132ff576132fe614201565b5b60200260200101516000015160016002811061331e5761331d614201565b5b60200201518260026006846133339190614f3b565b61333d9190614b2c565b8151811061334e5761334d614201565b5b60200260200101818152505085818151811061336d5761336c614201565b5b60200260200101516000015160006002811061338c5761338b614201565b5b60200201518260036006846133a19190614f3b565b6133ab9190614b2c565b815181106133bc576133bb614201565b5b6020026020010181815250508581815181106133db576133da614201565b5b6020026020010151602001516001600281106133fa576133f9614201565b5b602002015182600460068461340f9190614f3b565b6134199190614b2c565b8151811061342a57613429614201565b5b60200260200101818152505085818151811061344957613448614201565b5b60200260200101516020015160006002811061346857613467614201565b5b602002015182600560068461347d9190614f3b565b6134879190614b2c565b8151811061349857613497614201565b5b60200260200101818152505080806134af9061425f565b915050613238565b506134c06135e2565b6000602082602086026020860160086107d05a03fa905080600081036134e257fe5b50806134ed57600080fd5b60008260006001811061350357613502614201565b5b602002015114159550505050505092915050565b6040518060a0016040528061352a61355e565b81526020016135376135bc565b81526020016135446135bc565b81526020016135516135bc565b8152602001606081525090565b604051806040016040528060008152602001600081525090565b6040518060600160405280600390602082028036833780820191505090505090565b6040518060800160405280600490602082028036833780820191505090505090565b60405180604001604052806135cf613604565b81526020016135dc613604565b81525090565b6040518060200160405280600190602082028036833780820191505090505090565b6040518060400160405280600290602082028036833780820191505090505090565b6000604051905090565b600080fd5b600080fd5b60007fffffffff0000000000000000000000000000000000000000000000000000000082169050919050565b61366f8161363a565b811461367a57600080fd5b50565b60008135905061368c81613666565b92915050565b6000602082840312156136a8576136a7613630565b5b60006136b68482850161367d565b91505092915050565b60008115159050919050565b6136d4816136bf565b82525050565b60006020820190506136ef60008301846136cb565b92915050565b600081519050919050565b600082825260208201905092915050565b60005b8381101561372f578082015181840152602081019050613714565b8381111561373e576000848401525b50505050565b6000601f19601f8301169050919050565b6000613760826136f5565b61376a8185613700565b935061377a818560208601613711565b61378381613744565b840191505092915050565b600060208201905081810360008301526137a88184613755565b905092915050565b6000819050919050565b6137c3816137b0565b81146137ce57600080fd5b50565b6000813590506137e0816137ba565b92915050565b6000602082840312156137fc576137fb613630565b5b600061380a848285016137d1565b91505092915050565b600073ffffffffffffffffffffffffffffffffffffffff82169050919050565b600061383e82613813565b9050919050565b61384e81613833565b82525050565b60006020820190506138696000830184613845565b92915050565b61387881613833565b811461388357600080fd5b50565b6000813590506138958161386f565b92915050565b600080604083850312156138b2576138b1613630565b5b60006138c085828601613886565b92505060206138d1858286016137d1565b9150509250929050565b6138e4816136bf565b81146138ef57600080fd5b50565b600081359050613901816138db565b92915050565b60006020828403121561391d5761391c613630565b5b600061392b848285016138f2565b91505092915050565b61393d816137b0565b82525050565b60006020820190506139586000830184613934565b92915050565b60008060006060848603121561397757613976613630565b5b600061398586828701613886565b935050602061399686828701613886565b92505060406139a7868287016137d1565b9150509250925092565b600080fd5b7f4e487b7100000000000000000000000000000000000000000000000000000000600052604160045260246000fd5b6139ee82613744565b810181811067ffffffffffffffff82111715613a0d57613a0c6139b6565b5b80604052505050565b6000613a20613626565b9050613a2c82826139e5565b919050565b600060408284031215613a4757613a466139b1565b5b613a516040613a16565b90506000613a61848285016137d1565b6000830152506020613a75848285016137d1565b60208301525092915050565b600080fd5b600067ffffffffffffffff821115613aa157613aa06139b6565b5b602082029050919050565b600080fd5b6000613ac4613abf84613a86565b613a16565b90508060208402830185811115613ade57613add613aac565b5b835b81811015613b075780613af388826137d1565b845260208401935050602081019050613ae0565b5050509392505050565b600082601f830112613b2657613b25613a81565b5b6002613b33848285613ab1565b91505092915050565b600060808284031215613b5257613b516139b1565b5b613b5c6040613a16565b90506000613b6c84828501613b11565b6000830152506040613b8084828501613b11565b60208301525092915050565b60006101008284031215613ba357613ba26139b1565b5b613bad6060613a16565b90506000613bbd84828501613a31565b6000830152506040613bd184828501613b3c565b60208301525060c0613be584828501613a31565b60408301525092915050565b6000806101408385031215613c0957613c08613630565b5b6000613c1785828601613b8c565b925050610100613c2985828601613b11565b9150509250929050565b600060208284031215613c4957613c48613630565b5b6000613c5784828501613886565b91505092915050565b6000806000806101808587031215613c7b57613c7a613630565b5b6000613c8987828801613886565b9450506020613c9a878288016137d1565b9350506040613cab87828801613b8c565b925050610140613cbd87828801613b11565b91505092959194509250565b60008060408385031215613ce057613cdf613630565b5b6000613cee85828601613886565b9250506020613cff858286016138f2565b9150509250929050565b600080fd5b600067ffffffffffffffff821115613d2957613d286139b6565b5b613d3282613744565b9050602081019050919050565b82818337600083830152505050565b6000613d61613d5c84613d0e565b613a16565b905082815260208101848484011115613d7d57613d7c613d09565b5b613d88848285613d3f565b509392505050565b600082601f830112613da557613da4613a81565b5b8135613db5848260208601613d4e565b91505092915050565b60008060008060808587031215613dd857613dd7613630565b5b6000613de687828801613886565b9450506020613df787828801613886565b9350506040613e08878288016137d1565b925050606085013567ffffffffffffffff811115613e2957613e28613635565b5b613e3587828801613d90565b91505092959194509250565b60008060408385031215613e5857613e57613630565b5b6000613e6685828601613886565b9250506020613e7785828601613886565b9150509250929050565b7f4e487b7100000000000000000000000000000000000000000000000000000000600052602260045260246000fd5b60006002820490506001821680613ec857607f821691505b602082108103613edb57613eda613e81565b5b50919050565b7f436f6e7472616374206973204e4f542070617573656400000000000000000000600082015250565b6000613f17601683613700565b9150613f2282613ee1565b602082019050919050565b60006020820190508181036000830152613f4681613f0a565b9050919050565b7f27546f2720416464726573732073686f756c6420626520646966666572656e7460008201527f2066726f6d20746865206f776e65720000000000000000000000000000000000602082015250565b6000613fa9602f83613700565b9150613fb482613f4d565b604082019050919050565b60006020820190508181036000830152613fd881613f9c565b9050919050565b7f53656e646572206973206e6f7420436f6e7472616374206f776e6572206f722060008201527f6973206e6f7420617070726f7665640000000000000000000000000000000000602082015250565b600061403b602f83613700565b915061404682613fdf565b604082019050919050565b6000602082019050818103600083015261406a8161402e565b9050919050565b7f4f6e6c7920636f6e7472616374206f776e65722063616e2063616c6c20697400600082015250565b60006140a7601f83613700565b91506140b282614071565b602082019050919050565b600060208201905081810360008301526140d68161409a565b9050919050565b7f497320417070726f766564206f72206f776e65722072657475726e6564206e6f60008201527f7400000000000000000000000000000000000000000000000000000000000000602082015250565b6000614139602183613700565b9150614144826140dd565b604082019050919050565b600060208201905081810360008301526141688161412c565b9050919050565b7f496e6465782073686f756c64206265206c657373207468616e2062616c616e6360008201527f656f660000000000000000000000000000000000000000000000000000000000602082015250565b60006141cb602383613700565b91506141d68261416f565b604082019050919050565b600060208201905081810360008301526141fa816141be565b9050919050565b7f4e487b7100000000000000000000000000000000000000000000000000000000600052603260045260246000fd5b7f4e487b7100000000000000000000000000000000000000000000000000000000600052601160045260246000fd5b600061426a826137b0565b91507fffffffffffffffffffffffffffffffffffffffffffffffffffffffffffffffff820361429c5761429b614230565b5b600182019050919050565b7f696e6465782073686f756c64206265206c657373207468616e20546f74616c2060008201527f537570706c790000000000000000000000000000000000000000000000000000602082015250565b6000614303602683613700565b915061430e826142a7565b604082019050919050565b60006020820190508181036000830152614332816142f6565b9050919050565b7f546f74616c20737570706c7920616c7265616479206163686965766564000000600082015250565b600061436f601d83613700565b915061437a82614339565b602082019050919050565b6000602082019050818103600083015261439e81614362565b9050919050565b7f5a4b20766572696669636174696f6e206973206e6f742073617469736669656460008201527f2e00000000000000000000000000000000000000000000000000000000000000602082015250565b6000614401602183613700565b915061440c826143a5565b604082019050919050565b60006020820190508181036000830152614430816143f4565b9050919050565b600060029050919050565b600081905092915050565b6000819050919050565b614460816137b0565b82525050565b60006144728383614457565b60208301905092915050565b6000602082019050919050565b61449481614437565b61449e8184614442565b92506144a98261444d565b8060005b838110156144da5781516144c18782614466565b96506144cc8361447e565b9250506001810190506144ad565b505050505050565b60006144ee828461448b565b60408201915081905092915050565b7f5468697320736f6c7574696f6e207761732075736564206265666f7265000000600082015250565b6000614533601d83613700565b915061453e826144fd565b602082019050919050565b6000602082019050818103600083015261456281614526565b9050919050565b7f4d696e742073686f756c6420626520646f6e65207375636365737366756c6c79600082015250565b600061459f602083613700565b91506145aa82614569565b602082019050919050565b600060208201905081810360008301526145ce81614592565b9050919050565b7f53656e646572206973206e6f742074686520746f000000000000000000000000600082015250565b600061460b601483613700565b9150614616826145d5565b602082019050919050565b6000602082019050818103600083015261463a816145fe565b9050919050565b7f436865636b206f6e204552433732312052656365697665640000000000000000600082015250565b6000614677601883613700565b915061468282614641565b602082019050919050565b600060208201905081810360008301526146a68161466a565b9050919050565b7f546f6b656e20646f6573206e6f74206578697374730000000000000000000000600082015250565b60006146e3601583613700565b91506146ee826146ad565b602082019050919050565b60006020820190508181036000830152614712816146d6565b9050919050565b7f4e6577206f776e6572206e65656420746f2062652061207265616c206164647260008201527f6573730000000000000000000000000000000000000000000000000000000000602082015250565b6000614775602383613700565b915061478082614719565b604082019050919050565b600060208201905081810360008301526147a481614768565b9050919050565b600081905092915050565b60008190508160005260206000209050919050565b600081546147d881613eb0565b6147e281866147ab565b945060018216600081146147fd576001811461481257614845565b60ff1983168652811515820286019350614845565b61481b856147b6565b60005b8381101561483d5781548189015260018201915060208101905061481e565b838801955050505b50505092915050565b600081519050919050565b60006148648261484e565b61486e81856147ab565b935061487e818560208601613711565b80840191505092915050565b600061489682856147cb565b91506148a28284614859565b91508190509392505050565b60008190508160005260206000209050919050565b60006020601f8301049050919050565b600082821b905092915050565b6000600883026149107fffffffffffffffffffffffffffffffffffffffffffffffffffffffffffffffff826148d3565b61491a86836148d3565b95508019841693508086168417925050509392505050565b6000819050919050565b600061495761495261494d846137b0565b614932565b6137b0565b9050919050565b6000819050919050565b6149718361493c565b61498561497d8261495e565b8484546148e0565b825550505050565b600090565b61499a61498d565b6149a5818484614968565b505050565b5b818110156149c9576149be600082614992565b6001810190506149ab565b5050565b601f821115614a0e576149df816148ae565b6149e8846148c3565b810160208510156149f7578190505b614a0b614a03856148c3565b8301826149aa565b50505b505050565b600082821c905092915050565b6000614a3160001984600802614a13565b1980831691505092915050565b6000614a4a8383614a20565b9150826002028217905092915050565b614a63826136f5565b67ffffffffffffffff811115614a7c57614a7b6139b6565b5b614a868254613eb0565b614a918282856149cd565b600060209050601f831160018114614ac45760008415614ab2578287015190505b614abc8582614a3e565b865550614b24565b601f198416614ad2866148ae565b60005b82811015614afa57848901518255600182019150602085019450602081019050614ad5565b86831015614b175784890151614b13601f891682614a20565b8355505b6001600288020188555050505b505050505050565b6000614b37826137b0565b9150614b42836137b0565b9250827fffffffffffffffffffffffffffffffffffffffffffffffffffffffffffffffff03821115614b7757614b76614230565b5b828201905092915050565b600082825260208201905092915050565b6000614b9e8261484e565b614ba88185614b82565b9350614bb8818560208601613711565b614bc181613744565b840191505092915050565b6000608082019050614be16000830187613845565b614bee6020830186613845565b614bfb6040830185613934565b8181036060830152614c0d8184614b93565b905095945050505050565b600081519050614c2781613666565b92915050565b600060208284031215614c4357614c42613630565b5b6000614c5184828501614c18565b91505092915050565b7f46726f6d2073686f756c6420626520746f6b656e206f776e6572000000000000600082015250565b6000614c90601a83613700565b9150614c9b82614c5a565b602082019050919050565b60006020820190508181036000830152614cbf81614c83565b9050919050565b7f27546f272073686f756c642062652076616c6964206164647265737300000000600082015250565b6000614cfc601c83613700565b9150614d0782614cc6565b602082019050919050565b60006020820190508181036000830152614d2b81614cef565b9050919050565b7f496e76616c696420616464726573730000000000000000000000000000000000600082015250565b6000614d68600f83613700565b9150614d7382614d32565b602082019050919050565b60006020820190508181036000830152614d9781614d5b565b9050919050565b7f546f6b656e20496420616c726561647920657869737473000000000000000000600082015250565b6000614dd4601783613700565b9150614ddf82614d9e565b602082019050919050565b60006020820190508181036000830152614e0381614dc7565b9050919050565b7f4e487b7100000000000000000000000000000000000000000000000000000000600052601260045260246000fd5b6000614e44826137b0565b9150614e4f836137b0565b925082614e5f57614e5e614e0a565b5b828204905092915050565b6000614e75826137b0565b9150614e80836137b0565b925082821015614e9357614e92614230565b5b828203905092915050565b6000614ea9826137b0565b9150614eb4836137b0565b925082614ec457614ec3614e0a565b5b828206905092915050565b7f436f756e7465723a2064656372656d656e74206f766572666c6f770000000000600082015250565b6000614f05601b83613700565b9150614f1082614ecf565b602082019050919050565b60006020820190508181036000830152614f3481614ef8565b9050919050565b6000614f46826137b0565b9150614f51836137b0565b9250817fffffffffffffffffffffffffffffffffffffffffffffffffffffffffffffffff0483118215151615614f8a57614f89614230565b5b82820290509291505056fea26469706673582212206786cc597d49b0174f14fe119934dbad5d11e4dbf76ad4c3ac30c709f6efa2b364736f6c634300080f003368747470733a2f2f73332d75732d776573742d322e616d617a6f6e6177732e636f6d2f756461636974792d626c6f636b636861696e2f63617073746f6e652f",
  "immutableReferences": {},
  "source": "// SPDX-License-Identifier: MIT\npragma solidity >=0.4.21 <0.9.0;\n\nimport \"../zokrates/code/square/verifier.sol\";\nimport \"./ERC721Mintable.sol\";\n\ncontract SolnSquareVerifier is ERC721Mintable, Verifier {\n    struct Solution {\n        uint256 tokenId;\n        address account;\n    }\n\n    /**\n        @dev solution will be hashed (keccak256(input)) and added into the mapping\n     */\n    mapping(bytes32 => Solution) solutions;\n\n    Solution[] totalToken;\n\n    uint256 tokenSupply;\n\n    event SolutionAdded(\n        bytes32 indexed solution,\n        address indexed account,\n        uint256 tokenId\n    );\n\n    constructor(uint256 _tokenSupply) {\n        tokenSupply = _tokenSupply;\n    }\n\n    /**\n        @dev function to add the solutions to the array\n     */\n\n    function addTheSolutions(bytes32 _solution, uint256 tokenId) internal {\n        solutions[_solution].tokenId = tokenId;\n        solutions[_solution].account = msg.sender;\n\n        totalToken.push(Solution({tokenId: tokenId, account: msg.sender}));\n\n        emit SolutionAdded(_solution, msg.sender, tokenId);\n    }\n\n    function mintAfterVerification(\n        address to,\n        uint256 tokenId,\n        Proof memory proof,\n        uint256[2] memory input\n    ) public whenNotPaused {\n        //not mint over the total supply\n        require(\n            totalToken.length <= tokenSupply,\n            \"Total supply already achieved\"\n        );\n\n        bool zkVerfiedOK = zkVerify(proof, input);\n        require(zkVerfiedOK == true, \"ZK verification is not satisfied.\");\n\n        bytes32 solution = keccak256(abi.encodePacked(input));\n\n        //add only unique solution\n        require(\n            solutions[solution].account == address(0),\n            \"This solution was used before\"\n        );\n\n        // if ZK OK, go ahead and mint\n        bool mintOK = mint(to, tokenId);\n        require(mintOK == true, \"Mint should be done successfully\");\n\n        // if mint OK, go ahead and save the ZK solution\n        addTheSolutions(solution, tokenId);\n    }\n\n    function zkVerify(Proof memory proof, uint256[2] memory input)\n        public\n        view\n        returns (bool)\n    {\n        return bool(Verifier.verifyTx(proof, input));\n    }\n}\n",
  "sourcePath": "/home/rafamessias/Documents/udacity/Ethereum/real-estate-marketplace/contracts/SolnSquareVerifier.sol",
  "compiler": {
    "name": "solc",
    "version": "0.8.15+commit.e14f2714.Emscripten.clang"
  },
  "schemaVersion": "3.4.10",
  "updatedAt": "2022-09-26T01:32:03.354Z",
  "networkType": "ethereum",
  "devdoc": {
    "kind": "dev",
    "methods": {
      "isApprovedForAll(address,address)": {
        "details": "Tells whether an operator is approved by a given owner",
        "params": {
          "operator": "operator address which you want to query the approval of",
          "owner": "owner address which you want to query the approval of"
        },
        "returns": {
          "_0": "bool whether the given operator is approved by the given owner"
        }
      },
      "setApprovalForAll(address,bool)": {
        "details": "Sets or unsets the approval of a given operator An operator is allowed to transfer all tokens of the sender on their behalf",
        "params": {
          "approved": "representing the status of the approval to be set",
          "to": "operator address to set the approval"
        }
      },
      "supportsInterface(bytes4)": {
        "details": "implement supportsInterface(bytes4) using a lookup table"
      },
      "tokenByIndex(uint256)": {
        "details": "Gets the token ID at a given index of all the tokens in this contract Reverts if the index is greater or equal to the total number of tokens",
        "params": {
          "index": "uint256 representing the index to be accessed of the tokens list"
        },
        "returns": {
          "_0": "uint256 token ID at the given index of the tokens list"
        }
      },
      "tokenOfOwnerByIndex(address,uint256)": {
        "details": "Gets the token ID at a given index of the tokens list of the requested owner",
        "params": {
          "index": "uint256 representing the index to be accessed of the requested tokens list",
          "owner": "address owning the tokens list to be accessed"
        },
        "returns": {
          "_0": "uint256 token ID at the given index of the tokens list owned by the requested address"
        }
      },
      "totalSupply()": {
        "details": "Gets the total amount of tokens stored by the contract",
        "returns": {
          "_0": "uint256 representing the total amount of tokens"
        }
      }
    },
    "stateVariables": {
      "solutions": {
        "details": "solution will be hashed (keccak256(input)) and added into the mapping"
      }
    },
    "version": 1
  },
  "userdoc": {
    "kind": "user",
    "methods": {},
    "version": 1
  }
}